{
  "contractName": "Oracle",
  "abi": [
    {
      "anonymous": false,
      "inputs": [
        {
          "indexed": true,
          "internalType": "address",
          "name": "previousOwner",
          "type": "address"
        },
        {
          "indexed": true,
          "internalType": "address",
          "name": "newOwner",
          "type": "address"
        }
      ],
      "name": "OwnershipTransferred",
      "type": "event"
    },
    {
      "anonymous": false,
      "inputs": [
        {
          "indexed": true,
          "internalType": "uint256",
          "name": "oldPeriod",
          "type": "uint256"
        },
        {
          "indexed": true,
          "internalType": "uint256",
          "name": "newPeriod",
          "type": "uint256"
        },
        {
          "indexed": false,
          "internalType": "uint256",
          "name": "timestamp",
          "type": "uint256"
        }
      ],
      "name": "PeriodUpdated",
      "type": "event"
    },
    {
      "anonymous": false,
      "inputs": [
        {
          "indexed": true,
          "internalType": "address",
          "name": "token",
          "type": "address"
        },
        {
          "indexed": true,
          "internalType": "address",
          "name": "aggregator",
          "type": "address"
        },
        {
          "indexed": false,
          "internalType": "uint256",
          "name": "precision",
          "type": "uint256"
        }
      ],
      "name": "PriceListUpdated",
      "type": "event"
    },
    {
      "anonymous": false,
      "inputs": [
        {
          "indexed": false,
          "internalType": "uint256",
          "name": "currPriceMA",
          "type": "uint256"
        },
        {
          "indexed": false,
          "internalType": "uint256",
          "name": "currPricetime",
          "type": "uint256"
        }
      ],
      "name": "Update",
      "type": "event"
    },
    {
      "inputs": [],
      "name": "ETHPricePrecision",
      "outputs": [
        {
          "internalType": "uint256",
          "name": "",
          "type": "uint256"
        }
      ],
      "stateMutability": "view",
      "type": "function"
    },
    {
      "inputs": [],
      "name": "FREQUENCY",
      "outputs": [
        {
          "internalType": "uint8",
          "name": "",
          "type": "uint8"
        }
      ],
      "stateMutability": "view",
      "type": "function"
    },
    {
      "inputs": [],
      "name": "SPAPricePrecision",
      "outputs": [
        {
          "internalType": "uint256",
          "name": "",
          "type": "uint256"
        }
      ],
      "stateMutability": "view",
      "type": "function"
    },
    {
      "inputs": [],
      "name": "USDsInOutRatio",
      "outputs": [
        {
          "internalType": "uint256",
          "name": "",
          "type": "uint256"
        }
      ],
      "stateMutability": "view",
      "type": "function"
    },
    {
      "inputs": [],
      "name": "USDsInOutRatioPrecision",
      "outputs": [
        {
          "internalType": "uint256",
          "name": "",
          "type": "uint256"
        }
      ],
      "stateMutability": "view",
      "type": "function"
    },
    {
      "inputs": [
        {
          "internalType": "uint256",
          "name": "",
          "type": "uint256"
        }
      ],
      "name": "USDsInflow",
      "outputs": [
        {
          "internalType": "uint256",
          "name": "",
          "type": "uint256"
        }
      ],
      "stateMutability": "view",
      "type": "function"
    },
    {
      "inputs": [],
      "name": "USDsInstance",
      "outputs": [
        {
          "internalType": "contract USDs",
          "name": "",
          "type": "address"
        }
      ],
      "stateMutability": "view",
      "type": "function"
    },
    {
      "inputs": [
        {
          "internalType": "uint256",
          "name": "",
          "type": "uint256"
        }
      ],
      "name": "USDsOutflow",
      "outputs": [
        {
          "internalType": "uint256",
          "name": "",
          "type": "uint256"
        }
      ],
      "stateMutability": "view",
      "type": "function"
    },
    {
      "inputs": [],
      "name": "USDsPricePrecision",
      "outputs": [
        {
          "internalType": "uint256",
          "name": "",
          "type": "uint256"
        }
      ],
      "stateMutability": "view",
      "type": "function"
    },
    {
      "inputs": [],
      "name": "lastUpdateTime",
      "outputs": [
        {
          "internalType": "uint32",
          "name": "",
          "type": "uint32"
        }
      ],
      "stateMutability": "view",
      "type": "function"
    },
    {
      "inputs": [],
      "name": "owner",
      "outputs": [
        {
          "internalType": "address",
          "name": "",
          "type": "address"
        }
      ],
      "stateMutability": "view",
      "type": "function"
    },
    {
      "inputs": [],
      "name": "period",
      "outputs": [
        {
          "internalType": "uint32",
          "name": "",
          "type": "uint32"
        }
      ],
      "stateMutability": "view",
      "type": "function"
    },
    {
      "inputs": [
        {
          "internalType": "address",
          "name": "",
          "type": "address"
        }
      ],
      "name": "priceFeeds",
      "outputs": [
        {
          "internalType": "contract AggregatorV3Interface",
          "name": "",
          "type": "address"
        }
      ],
      "stateMutability": "view",
      "type": "function"
    },
    {
      "inputs": [
        {
          "internalType": "address",
          "name": "",
          "type": "address"
        }
      ],
      "name": "pricePrecisions",
      "outputs": [
        {
          "internalType": "uint256",
          "name": "",
          "type": "uint256"
        }
      ],
      "stateMutability": "view",
      "type": "function"
    },
    {
      "inputs": [],
      "name": "pricetimeOldestIndex",
      "outputs": [
        {
          "internalType": "uint32",
          "name": "",
          "type": "uint32"
        }
      ],
      "stateMutability": "view",
      "type": "function"
    },
    {
      "inputs": [],
      "name": "renounceOwnership",
      "outputs": [],
      "stateMutability": "nonpayable",
      "type": "function"
    },
    {
      "inputs": [],
      "name": "token0PriceMA",
      "outputs": [
        {
          "internalType": "uint256",
          "name": "",
          "type": "uint256"
        }
      ],
      "stateMutability": "view",
      "type": "function"
    },
    {
      "inputs": [
        {
          "internalType": "uint256",
          "name": "",
          "type": "uint256"
        }
      ],
      "name": "token0Pricetimes",
      "outputs": [
        {
          "internalType": "uint32",
          "name": "timestamp",
          "type": "uint32"
        },
        {
          "internalType": "uint256",
          "name": "price0Cumulative",
          "type": "uint256"
        }
      ],
      "stateMutability": "view",
      "type": "function"
    },
    {
      "inputs": [
        {
          "internalType": "address",
          "name": "",
          "type": "address"
        }
      ],
      "name": "tokenAddressIndex",
      "outputs": [
        {
          "internalType": "uint256",
          "name": "",
          "type": "uint256"
        }
      ],
      "stateMutability": "view",
      "type": "function"
    },
    {
      "inputs": [
        {
          "internalType": "uint256",
          "name": "",
          "type": "uint256"
        }
      ],
      "name": "tokenAddresses",
      "outputs": [
        {
          "internalType": "address",
          "name": "",
          "type": "address"
        }
      ],
      "stateMutability": "view",
      "type": "function"
    },
    {
      "inputs": [
        {
          "internalType": "address",
          "name": "newOwner",
          "type": "address"
        }
      ],
      "name": "transferOwnership",
      "outputs": [],
      "stateMutability": "nonpayable",
      "type": "function"
    },
    {
      "inputs": [],
      "name": "uniswapQuoter",
      "outputs": [
        {
          "internalType": "contract IQuoter",
          "name": "",
          "type": "address"
        }
      ],
      "stateMutability": "view",
      "type": "function"
    },
    {
      "inputs": [
        {
          "internalType": "address",
          "name": "pair_",
          "type": "address"
        },
        {
          "internalType": "address",
          "name": "USDsToken_",
          "type": "address"
        }
      ],
      "name": "initialize",
      "outputs": [],
      "stateMutability": "nonpayable",
      "type": "function"
    },
    {
      "inputs": [],
      "name": "getPairAddr",
      "outputs": [
        {
          "internalType": "address",
          "name": "",
          "type": "address"
        }
      ],
      "stateMutability": "view",
      "type": "function"
    },
    {
      "inputs": [
        {
          "internalType": "uint32",
          "name": "newPeriod",
          "type": "uint32"
        }
      ],
      "name": "changePeriod",
      "outputs": [],
      "stateMutability": "nonpayable",
      "type": "function"
    },
    {
      "inputs": [
        {
          "internalType": "address",
          "name": "assetAddress",
          "type": "address"
        },
        {
          "internalType": "address",
          "name": "aggregatorAddress",
          "type": "address"
        },
        {
          "internalType": "uint256",
          "name": "precision",
          "type": "uint256"
        }
      ],
      "name": "updatePriceList",
      "outputs": [],
      "stateMutability": "nonpayable",
      "type": "function"
    },
    {
      "inputs": [
        {
          "internalType": "address",
          "name": "USDsToken_",
          "type": "address"
        },
        {
          "internalType": "address",
          "name": "WETH9_",
          "type": "address"
        },
        {
          "internalType": "address",
          "name": "quoterAddress_",
          "type": "address"
        }
      ],
      "name": "updateUSDsPair",
      "outputs": [],
      "stateMutability": "nonpayable",
      "type": "function"
    },
    {
      "inputs": [],
      "name": "getETHPrice",
      "outputs": [
        {
          "internalType": "uint256",
          "name": "",
          "type": "uint256"
        }
      ],
      "stateMutability": "view",
      "type": "function"
    },
    {
      "inputs": [
        {
          "internalType": "address",
          "name": "assetAddress",
          "type": "address"
        }
      ],
      "name": "getAssetPrice",
      "outputs": [
        {
          "internalType": "uint256",
          "name": "",
          "type": "uint256"
        }
      ],
      "stateMutability": "view",
      "type": "function"
    },
    {
      "inputs": [],
      "name": "getSPAPrice",
      "outputs": [
        {
          "internalType": "uint256",
          "name": "",
          "type": "uint256"
        }
      ],
      "stateMutability": "view",
      "type": "function"
    },
    {
      "inputs": [],
      "name": "getUSDsPrice",
      "outputs": [
        {
          "internalType": "uint256",
          "name": "",
          "type": "uint256"
        }
      ],
      "stateMutability": "nonpayable",
      "type": "function"
    },
    {
      "inputs": [],
      "name": "getUSDsPrice_Average",
      "outputs": [
        {
          "internalType": "uint256",
          "name": "",
          "type": "uint256"
        }
      ],
      "stateMutability": "nonpayable",
      "type": "function"
    },
    {
      "inputs": [
        {
          "internalType": "address",
          "name": "tokenAddr",
          "type": "address"
        }
      ],
      "name": "collatPrice",
      "outputs": [
        {
          "internalType": "uint256",
          "name": "",
          "type": "uint256"
        }
      ],
      "stateMutability": "view",
      "type": "function"
    },
    {
      "inputs": [
        {
          "internalType": "address",
          "name": "tokenAddr",
          "type": "address"
        }
      ],
      "name": "collatPricePrecision",
      "outputs": [
        {
          "internalType": "uint256",
          "name": "",
          "type": "uint256"
        }
      ],
      "stateMutability": "view",
      "type": "function"
    },
    {
      "inputs": [],
      "name": "update",
      "outputs": [],
      "stateMutability": "nonpayable",
      "type": "function"
    }
  ],
  "bytecode": "0x608060405234801561001057600080fd5b506135e3806100206000396000f3fe608060405234801561001057600080fd5b50600436106102115760003560e01c80638da5cb5b11610125578063c36d7497116100ad578063d5b01d431161007c578063d5b01d431461060f578063e5df8b841461062d578063ee1bca9e1461065d578063ef78d4fd14610679578063f2fde38b1461069757610211565b8063c36d749714610597578063c8f33c91146105b5578063caffc2b8146105d3578063cef4b242146105f157610211565b80639fd3d759116100f45780639fd3d759146104f1578063a2e6204514610521578063a607a8d91461052b578063b3596f0714610549578063c229d7501461057957610211565b80638da5cb5b146104575780639dcb511a146104755780639e335467146104a55780639f1a442e146104c157610211565b80632527c722116101a85780635abe6c69116101775780635abe6c69146103b15780636c6f1865146103cf578063715018a6146103ff578063743db827146104095780637d1489fe1461042757610211565b80632527c7221461032b578063298cc9f11461035b578063485cc955146103775780634db4a3521461039357610211565b806312dd85ee116101e457806312dd85ee146102a157806316c4c011146102bf57806319860524146102dd5780631f58c4411461030d57610211565b8063067c0bef1461021657806308432eea146102475780630b71f216146102655780630d4045c614610283575b600080fd5b610230600480360381019061022b9190612bee565b6106b3565b60405161023e92919061339c565b60405180910390f35b61024f6106ea565b60405161025c919061333d565b60405180910390f35b61026d6106f7565b60405161027a919061333d565b60405180910390f35b61028b6106fd565b6040516102989190613103565b60405180910390f35b6102a9610727565b6040516102b6919061333d565b60405180910390f35b6102c7610799565b6040516102d4919061333d565b60405180910390f35b6102f760048036038101906102f29190612a9c565b61079f565b604051610304919061333d565b60405180910390f35b6103156107b7565b604051610322919061333d565b60405180910390f35b61034560048036038101906103409190612a9c565b6107bd565b604051610352919061333d565b60405180910390f35b61037560048036038101906103709190612c40565b6107d5565b005b610391600480360381019061038c9190612ac5565b6108cc565b005b61039b610d66565b6040516103a8919061318c565b60405180910390f35b6103b9610d8c565b6040516103c6919061333d565b60405180910390f35b6103e960048036038101906103e49190612bee565b610eef565b6040516103f6919061333d565b60405180910390f35b610407610f07565b005b610411611044565b60405161041e919061333d565b60405180910390f35b610441600480360381019061043c9190612a9c565b61104a565b60405161044e919061333d565b60405180910390f35b61045f611093565b60405161046c9190613103565b60405180910390f35b61048f600480360381019061048a9190612a9c565b6110bd565b60405161049c9190613171565b60405180910390f35b6104bf60048036038101906104ba9190612b01565b6110f0565b005b6104db60048036038101906104d69190612a9c565b61129a565b6040516104e8919061333d565b60405180910390f35b61050b60048036038101906105069190612bee565b6112ac565b604051610518919061333d565b60405180910390f35b6105296112c4565b005b610533611779565b604051610540919061333d565b60405180910390f35b610563600480360381019061055e9190612a9c565b611837565b604051610570919061333d565b60405180910390f35b610581611934565b60405161058e91906133c5565b60405180910390f35b61059f611939565b6040516105ac919061333d565b60405180910390f35b6105bd61193f565b6040516105ca9190613381565b60405180910390f35b6105db611955565b6040516105e89190613381565b60405180910390f35b6105f961196b565b60405161060691906131a7565b60405180910390f35b610617611991565b604051610624919061333d565b60405180910390f35b61064760048036038101906106429190612bee565b611997565b6040516106549190613103565b60405180910390f35b61067760048036038101906106729190612b50565b6119d3565b005b610681611c73565b60405161068e9190613381565b60405180910390f35b6106b160048036038101906106ac9190612a9c565b611c89565b005b606781601981106106c057fe5b600202016000915090508060000160009054906101000a900463ffffffff16908060010154905082565b6000609b54600102905090565b60cf5481565b6000606660009054906101000a900473ffffffffffffffffffffffffffffffffffffffff16905090565b600080610732611779565b9050600061075a6e010000000000000000000000000000606554611e3590919063ffffffff16565b90506107926065546107846e01000000000000000000000000000085611e8b90919063ffffffff16565b611e3590919063ffffffff16565b9250505090565b60655481565b60d56020528060005260406000206000915090505481565b60d05481565b60d36020528060005260406000206000915090505481565b6107dd611efb565b73ffffffffffffffffffffffffffffffffffffffff166107fb611093565b73ffffffffffffffffffffffffffffffffffffffff1614610851576040517f08c379a0000000000000000000000000000000000000000000000000000000008152600401610848906132fd565b60405180910390fd5b8063ffffffff16609960089054906101000a900463ffffffff1663ffffffff167fde7c06487600994e2f4bf3592750288862ce94f43efbdbf7d2dcca6d682619ba426040516108a0919061333d565b60405180910390a380609960086101000a81548163ffffffff021916908363ffffffff16021790555050565b600060019054906101000a900460ff16806108eb57506108ea611f03565b5b80610901575060008054906101000a900460ff16155b610940576040517f08c379a00000000000000000000000000000000000000000000000000000000081526004016109379061329d565b60405180910390fd5b60008060019054906101000a900460ff161590508015610990576001600060016101000a81548160ff02191690831515021790555060016000806101000a81548160ff0219169083151502179055505b610998611f14565b610e10609960086101000a81548163ffffffff021916908363ffffffff1602179055506305f5e100609a81905550670de0b6b3a7640000609b819055506305f5e100609c819055506298968060d081905550739326bfa02add2366b30bacb125260af6410313316099600c6101000a81548173ffffffffffffffffffffffffffffffffffffffff021916908373ffffffffffffffffffffffffffffffffffffffff16021790555060006401000000004281610a4f57fe5b06905083606660006101000a81548173ffffffffffffffffffffffffffffffffffffffff021916908373ffffffffffffffffffffffffffffffffffffffff16021790555080609960046101000a81548163ffffffff021916908363ffffffff1602179055506000610abf8561200c565b5050905060006201e84890506000607090506000609960089054906101000a900463ffffffff1663ffffffff168284901b0290506000601860ff16820290508284901b60658190555060005b600160180160ff16811015610bc557610b5182610b4388610b358588611e8b90919063ffffffff16565b61227a90919063ffffffff16565b6122cf90919063ffffffff16565b60678260198110610b5e57fe5b600202016001018190555080601860ff1603609960089054906101000a900463ffffffff1602870360678260198110610b9357fe5b6002020160000160006101000a81548163ffffffff021916908363ffffffff1602179055508080600101915050610b0b565b508760d160006101000a81548173ffffffffffffffffffffffffffffffffffffffff021916908373ffffffffffffffffffffffffffffffffffffffff16021790555060005b600160180160ff16811015610c4e576000609d8260198110610c2857fe5b0181905550600060b68260198110610c3c57fe5b01819055508080600101915050610c0a565b5073b27308f9f90d607463bb33ea1bebb41c27ce5ab660d660006101000a81548173ffffffffffffffffffffffffffffffffffffffff021916908373ffffffffffffffffffffffffffffffffffffffff1602179055508760d760006101000a81548173ffffffffffffffffffffffffffffffffffffffff021916908373ffffffffffffffffffffffffffffffffffffffff16021790555073d0a1e359811322d97991e03f863a0c30c2cf029c60d860006101000a81548173ffffffffffffffffffffffffffffffffffffffff021916908373ffffffffffffffffffffffffffffffffffffffff1602179055505050505050508015610d615760008060016101000a81548160ff0219169083151502179055505b505050565b60d660009054906101000a900473ffffffffffffffffffffffffffffffffffffffff1681565b60008060d760009054906101000a900473ffffffffffffffffffffffffffffffffffffffff169050600060d860009054906101000a900473ffffffffffffffffffffffffffffffffffffffff1690506000610bb8905060008060d660009054906101000a900473ffffffffffffffffffffffffffffffffffffffff1673ffffffffffffffffffffffffffffffffffffffff166330d07f218686866001876040518663ffffffff1660e01b8152600401610e4995949392919061311e565b602060405180830381600087803b158015610e6357600080fd5b505af1158015610e77573d6000803e3d6000fd5b505050506040513d601f19601f82011682018060405250810190610e9b9190612c17565b90506000610ea7611779565b9050610ee481610ed6609b54610ec8609a5487611e8b90919063ffffffff16565b611e8b90919063ffffffff16565b611e3590919063ffffffff16565b965050505050505090565b609d8160198110610efc57fe5b016000915090505481565b610f0f611efb565b73ffffffffffffffffffffffffffffffffffffffff16610f2d611093565b73ffffffffffffffffffffffffffffffffffffffff1614610f83576040517f08c379a0000000000000000000000000000000000000000000000000000000008152600401610f7a906132fd565b60405180910390fd5b600073ffffffffffffffffffffffffffffffffffffffff16603360009054906101000a900473ffffffffffffffffffffffffffffffffffffffff1673ffffffffffffffffffffffffffffffffffffffff167f8be0079c531659141344cd1fd0a4f28419497f9722a3daafe3b4186f6b6457e060405160405180910390a36000603360006101000a81548173ffffffffffffffffffffffffffffffffffffffff021916908373ffffffffffffffffffffffffffffffffffffffff160217905550565b609c5481565b600060d560008373ffffffffffffffffffffffffffffffffffffffff1673ffffffffffffffffffffffffffffffffffffffff168152602001908152602001600020549050919050565b6000603360009054906101000a900473ffffffffffffffffffffffffffffffffffffffff16905090565b60d46020528060005260406000206000915054906101000a900473ffffffffffffffffffffffffffffffffffffffff1681565b6110f8611efb565b73ffffffffffffffffffffffffffffffffffffffff16611116611093565b73ffffffffffffffffffffffffffffffffffffffff161461116c576040517f08c379a0000000000000000000000000000000000000000000000000000000008152600401611163906132fd565b60405180910390fd5b8060d660006101000a81548173ffffffffffffffffffffffffffffffffffffffff021916908373ffffffffffffffffffffffffffffffffffffffff1602179055508260d760006101000a81548173ffffffffffffffffffffffffffffffffffffffff021916908373ffffffffffffffffffffffffffffffffffffffff1602179055508160d860006101000a81548173ffffffffffffffffffffffffffffffffffffffff021916908373ffffffffffffffffffffffffffffffffffffffff1602179055508073ffffffffffffffffffffffffffffffffffffffff168373ffffffffffffffffffffffffffffffffffffffff167f939338a00a4640790cca2146dc2d01d062414c061f008ad2cc75e75ae5b5ec57601260405161128d91906131c2565b60405180910390a3505050565b60006112a582611837565b9050919050565b60b681601981106112b957fe5b016000915090505481565b600064010000000042816112d457fe5b0690506000609960049054906101000a900463ffffffff1682039050609960089054906101000a900463ffffffff1663ffffffff168163ffffffff161015611351576040517f08c379a0000000000000000000000000000000000000000000000000000000008152600401611348906131dd565b60405180910390fd5b600061137e606660009054906101000a900473ffffffffffffffffffffffffffffffffffffffff1661200c565b505090506000609960009054906101000a900463ffffffff1690506000600160180160ff166001830163ffffffff16816113b457fe5b0690508260678363ffffffff16601981106113cb57fe5b60020201600101819055508460678363ffffffff16601981106113ea57fe5b6002020160000160006101000a81548163ffffffff021916908363ffffffff160217905550600060678263ffffffff166019811061142457fe5b6002020160000160009054906101000a900463ffffffff1660678463ffffffff166019811061144f57fe5b6002020160000160009054906101000a900463ffffffff160363ffffffff1690506114c9816114bb60678563ffffffff166019811061148a57fe5b600202016001015460678763ffffffff16601981106114a557fe5b60020201600101546122cf90919063ffffffff16565b611e3590919063ffffffff16565b60658190555085609960046101000a81548163ffffffff021916908363ffffffff16021790555081609960006101000a81548163ffffffff021916908363ffffffff1602179055507f8ecf343d22d1934aea3fb34b7332371552b19286c5bc696adae16c7690a90d5460655485604051611544929190613358565b60405180910390a160d160009054906101000a900473ffffffffffffffffffffffffffffffffffffffff1673ffffffffffffffffffffffffffffffffffffffff1663736bf5916040518163ffffffff1660e01b815260040160206040518083038186803b1580156115b457600080fd5b505afa1580156115c8573d6000803e3d6000fd5b505050506040513d601f19601f820116820180604052508101906115ec9190612c17565b609d8463ffffffff16601981106115ff57fe5b018190555060d160009054906101000a900473ffffffffffffffffffffffffffffffffffffffff1673ffffffffffffffffffffffffffffffffffffffff16630abddbe76040518163ffffffff1660e01b815260040160206040518083038186803b15801561166c57600080fd5b505afa158015611680573d6000803e3d6000fd5b505050506040513d601f19601f820116820180604052508101906116a49190612c17565b60b68463ffffffff16601981106116b757fe5b018190555060006116f9609d8463ffffffff16601981106116d457fe5b0154609d8663ffffffff16601981106116e957fe5b01546122cf90919063ffffffff16565b9050600061173860b68563ffffffff166019811061171357fe5b015460b68763ffffffff166019811061172857fe5b01546122cf90919063ffffffff16565b9050600060cf5414156117535760d05460cf8190555061176f565b61176860cf5482611e3590919063ffffffff16565b60cf819055505b5050505050505050565b6000806000806000806099600c9054906101000a900473ffffffffffffffffffffffffffffffffffffffff1673ffffffffffffffffffffffffffffffffffffffff1663feaf968c6040518163ffffffff1660e01b815260040160a06040518083038186803b1580156117ea57600080fd5b505afa1580156117fe573d6000803e3d6000fd5b505050506040513d601f19601f820116820180604052508101906118229190612c69565b94509450945094509450839550505050505090565b60008060008060008060d460008873ffffffffffffffffffffffffffffffffffffffff1673ffffffffffffffffffffffffffffffffffffffff16815260200190815260200160002060009054906101000a900473ffffffffffffffffffffffffffffffffffffffff1673ffffffffffffffffffffffffffffffffffffffff1663feaf968c6040518163ffffffff1660e01b815260040160a06040518083038186803b1580156118e557600080fd5b505afa1580156118f9573d6000803e3d6000fd5b505050506040513d601f19601f8201168201806040525081019061191d9190612c69565b945094509450945094508395505050505050919050565b601881565b609b5481565b609960049054906101000a900463ffffffff1681565b609960009054906101000a900463ffffffff1681565b60d160009054906101000a900473ffffffffffffffffffffffffffffffffffffffff1681565b609a5481565b60d281815481106119a457fe5b906000526020600020016000915054906101000a900473ffffffffffffffffffffffffffffffffffffffff1681565b6119db611efb565b73ffffffffffffffffffffffffffffffffffffffff166119f9611093565b73ffffffffffffffffffffffffffffffffffffffff1614611a4f576040517f08c379a0000000000000000000000000000000000000000000000000000000008152600401611a46906132fd565b60405180910390fd5b600060d360008573ffffffffffffffffffffffffffffffffffffffff1673ffffffffffffffffffffffffffffffffffffffff168152602001908152602001600020541415611b445760d2839080600181540180825580915050600190039060005260206000200160009091909190916101000a81548173ffffffffffffffffffffffffffffffffffffffff021916908373ffffffffffffffffffffffffffffffffffffffff16021790555060d28054905060d360008573ffffffffffffffffffffffffffffffffffffffff1673ffffffffffffffffffffffffffffffffffffffff168152602001908152602001600020819055505b8160d460008573ffffffffffffffffffffffffffffffffffffffff1673ffffffffffffffffffffffffffffffffffffffff16815260200190815260200160002060006101000a81548173ffffffffffffffffffffffffffffffffffffffff021916908373ffffffffffffffffffffffffffffffffffffffff16021790555080600a0a60d560008573ffffffffffffffffffffffffffffffffffffffff1673ffffffffffffffffffffffffffffffffffffffff168152602001908152602001600020819055508173ffffffffffffffffffffffffffffffffffffffff168373ffffffffffffffffffffffffffffffffffffffff167f939338a00a4640790cca2146dc2d01d062414c061f008ad2cc75e75ae5b5ec5783604051611c66919061333d565b60405180910390a3505050565b609960089054906101000a900463ffffffff1681565b611c91611efb565b73ffffffffffffffffffffffffffffffffffffffff16611caf611093565b73ffffffffffffffffffffffffffffffffffffffff1614611d05576040517f08c379a0000000000000000000000000000000000000000000000000000000008152600401611cfc906132fd565b60405180910390fd5b600073ffffffffffffffffffffffffffffffffffffffff168173ffffffffffffffffffffffffffffffffffffffff161415611d75576040517f08c379a0000000000000000000000000000000000000000000000000000000008152600401611d6c906131fd565b60405180910390fd5b8073ffffffffffffffffffffffffffffffffffffffff16603360009054906101000a900473ffffffffffffffffffffffffffffffffffffffff1673ffffffffffffffffffffffffffffffffffffffff167f8be0079c531659141344cd1fd0a4f28419497f9722a3daafe3b4186f6b6457e060405160405180910390a380603360006101000a81548173ffffffffffffffffffffffffffffffffffffffff021916908373ffffffffffffffffffffffffffffffffffffffff16021790555050565b6000808211611e79576040517f08c379a0000000000000000000000000000000000000000000000000000000008152600401611e709061325d565b60405180910390fd5b818381611e8257fe5b04905092915050565b600080831415611e9e5760009050611ef5565b6000828402905082848281611eaf57fe5b0414611ef0576040517f08c379a0000000000000000000000000000000000000000000000000000000008152600401611ee7906132bd565b60405180910390fd5b809150505b92915050565b600033905090565b6000611f0e3061231f565b15905090565b600060019054906101000a900460ff1680611f335750611f32611f03565b5b80611f49575060008054906101000a900460ff16155b611f88576040517f08c379a0000000000000000000000000000000000000000000000000000000008152600401611f7f9061329d565b60405180910390fd5b60008060019054906101000a900460ff161590508015611fd8576001600060016101000a81548160ff02191690831515021790555060016000806101000a81548160ff0219169083151502179055505b611fe0612332565b611fe861241a565b80156120095760008060016101000a81548160ff0219169083151502179055505b50565b60008060006120196125ab565b90508373ffffffffffffffffffffffffffffffffffffffff16635909c0d56040518163ffffffff1660e01b815260040160206040518083038186803b15801561206157600080fd5b505afa158015612075573d6000803e3d6000fd5b505050506040513d601f19601f820116820180604052508101906120999190612c17565b92508373ffffffffffffffffffffffffffffffffffffffff16635a3d54936040518163ffffffff1660e01b815260040160206040518083038186803b1580156120e157600080fd5b505afa1580156120f5573d6000803e3d6000fd5b505050506040513d601f19601f820116820180604052508101906121199190612c17565b915060008060008673ffffffffffffffffffffffffffffffffffffffff16630902f1ac6040518163ffffffff1660e01b815260040160606040518083038186803b15801561216657600080fd5b505afa15801561217a573d6000803e3d6000fd5b505050506040513d601f19601f8201168201806040525081019061219e9190612b9f565b9250925092508363ffffffff168163ffffffff161461227057600081850390508063ffffffff166121ef846dffffffffffffffffffffffffffff16866dffffffffffffffffffffffffffff166125c1565b600001517bffffffffffffffffffffffffffffffffffffffffffffffffffffffff1602870196508063ffffffff16612247856dffffffffffffffffffffffffffff16856dffffffffffffffffffffffffffff166125c1565b600001517bffffffffffffffffffffffffffffffffffffffffffffffffffffffff160286019550505b5050509193909250565b6000808284019050838110156122c5576040517f08c379a00000000000000000000000000000000000000000000000000000000081526004016122bc9061321d565b60405180910390fd5b8091505092915050565b600082821115612314576040517f08c379a000000000000000000000000000000000000000000000000000000000815260040161230b9061323d565b60405180910390fd5b818303905092915050565b600080823b905060008111915050919050565b600060019054906101000a900460ff16806123515750612350611f03565b5b80612367575060008054906101000a900460ff16155b6123a6576040517f08c379a000000000000000000000000000000000000000000000000000000000815260040161239d9061329d565b60405180910390fd5b60008060019054906101000a900460ff1615905080156123f6576001600060016101000a81548160ff02191690831515021790555060016000806101000a81548160ff0219169083151502179055505b80156124175760008060016101000a81548160ff0219169083151502179055505b50565b600060019054906101000a900460ff16806124395750612438611f03565b5b8061244f575060008054906101000a900460ff16155b61248e576040517f08c379a00000000000000000000000000000000000000000000000000000000081526004016124859061329d565b60405180910390fd5b60008060019054906101000a900460ff1615905080156124de576001600060016101000a81548160ff02191690831515021790555060016000806101000a81548160ff0219169083151502179055505b60006124e8611efb565b905080603360006101000a81548173ffffffffffffffffffffffffffffffffffffffff021916908373ffffffffffffffffffffffffffffffffffffffff1602179055508073ffffffffffffffffffffffffffffffffffffffff16600073ffffffffffffffffffffffffffffffffffffffff167f8be0079c531659141344cd1fd0a4f28419497f9722a3daafe3b4186f6b6457e060405160405180910390a35080156125a85760008060016101000a81548160ff0219169083151502179055505b50565b600064010000000042816125bb57fe5b06905090565b6125c96129c3565b6000821161260c576040517f08c379a00000000000000000000000000000000000000000000000000000000081526004016126039061327d565b60405180910390fd5b600083141561264a57604051806020016040528060007bffffffffffffffffffffffffffffffffffffffffffffffffffffffff168152509050612820565b7fffffffffffffffffffffffffffffffffffffffffffffffffffffffffffffffff71ffffffffffffffffffffffffffffffffffff16831161275057600082607060ff1685901b8161269757fe5b0490507fffffffffffffffffffffffffffffffffffffffffffffffffffffffffffffffff7bffffffffffffffffffffffffffffffffffffffffffffffffffffffff1681111561271b576040517f08c379a00000000000000000000000000000000000000000000000000000000081526004016127129061331d565b60405180910390fd5b6040518060200160405280827bffffffffffffffffffffffffffffffffffffffffffffffffffffffff16815250915050612820565b600061276c846e01000000000000000000000000000085612826565b90507fffffffffffffffffffffffffffffffffffffffffffffffffffffffffffffffff7bffffffffffffffffffffffffffffffffffffffffffffffffffffffff168111156127ef576040517f08c379a00000000000000000000000000000000000000000000000000000000081526004016127e69061331d565b60405180910390fd5b6040518060200160405280827bffffffffffffffffffffffffffffffffffffffffffffffffffffffff168152509150505b92915050565b600080600061283586866128d3565b915091506000848061284357fe5b868809905082811115612857576001820391505b808303925060008214156128795784838161286e57fe5b0493505050506128cc565b8482106128bb576040517f08c379a00000000000000000000000000000000000000000000000000000000081526004016128b2906132dd565b60405180910390fd5b6128c6838387612926565b93505050505b9392505050565b60008060007fffffffffffffffffffffffffffffffffffffffffffffffffffffffffffffffff8061290057fe5b8486099050838502925082810391508281101561291e576001820391505b509250929050565b600080826000038316905080838161293a57fe5b04925080858161294657fe5b049450600181826000038161295757fe5b04018402850194506000600190508084026002038102905080840260020381029050808402600203810290508084026002038102905080840260020381029050808402600203810290508084026002038102905080840260020381029050808602925050509392505050565b604051806020016040528060007bffffffffffffffffffffffffffffffffffffffffffffffffffffffff1681525090565b600081359050612a0381613523565b92915050565b600081519050612a188161353a565b92915050565b600081519050612a2d81613551565b92915050565b600081359050612a4281613568565b92915050565b600081519050612a5781613568565b92915050565b600081359050612a6c8161357f565b92915050565b600081519050612a818161357f565b92915050565b600081519050612a9681613596565b92915050565b600060208284031215612aae57600080fd5b6000612abc848285016129f4565b91505092915050565b60008060408385031215612ad857600080fd5b6000612ae6858286016129f4565b9250506020612af7858286016129f4565b9150509250929050565b600080600060608486031215612b1657600080fd5b6000612b24868287016129f4565b9350506020612b35868287016129f4565b9250506040612b46868287016129f4565b9150509250925092565b600080600060608486031215612b6557600080fd5b6000612b73868287016129f4565b9350506020612b84868287016129f4565b9250506040612b9586828701612a33565b9150509250925092565b600080600060608486031215612bb457600080fd5b6000612bc286828701612a1e565b9350506020612bd386828701612a1e565b9250506040612be486828701612a72565b9150509250925092565b600060208284031215612c0057600080fd5b6000612c0e84828501612a33565b91505092915050565b600060208284031215612c2957600080fd5b6000612c3784828501612a48565b91505092915050565b600060208284031215612c5257600080fd5b6000612c6084828501612a5d565b91505092915050565b600080600080600060a08688031215612c8157600080fd5b6000612c8f88828901612a87565b9550506020612ca088828901612a09565b9450506040612cb188828901612a48565b9350506060612cc288828901612a48565b9250506080612cd388828901612a87565b9150509295509295909350565b612ce9816133f1565b82525050565b612cf881613493565b82525050565b612d07816134b7565b82525050565b612d16816134db565b82525050565b612d25816134ff565b82525050565b612d3481613511565b82525050565b6000612d476029836133e0565b91507f7570646174652829203a207468652074696d6520656c6170736564206973207460008301527f6f6f2073686f72742e00000000000000000000000000000000000000000000006020830152604082019050919050565b6000612dad6026836133e0565b91507f4f776e61626c653a206e6577206f776e657220697320746865207a65726f206160008301527f64647265737300000000000000000000000000000000000000000000000000006020830152604082019050919050565b6000612e13601b836133e0565b91507f536166654d6174683a206164646974696f6e206f766572666c6f7700000000006000830152602082019050919050565b6000612e53601e836133e0565b91507f536166654d6174683a207375627472616374696f6e206f766572666c6f7700006000830152602082019050919050565b6000612e93601a836133e0565b91507f536166654d6174683a206469766973696f6e206279207a65726f0000000000006000830152602082019050919050565b6000612ed36026836133e0565b91507f4669786564506f696e743a3a6672616374696f6e3a206469766973696f6e206260008301527f79207a65726f00000000000000000000000000000000000000000000000000006020830152604082019050919050565b6000612f39602e836133e0565b91507f496e697469616c697a61626c653a20636f6e747261637420697320616c72656160008301527f647920696e697469616c697a65640000000000000000000000000000000000006020830152604082019050919050565b6000612f9f6021836133e0565b91507f536166654d6174683a206d756c7469706c69636174696f6e206f766572666c6f60008301527f77000000000000000000000000000000000000000000000000000000000000006020830152604082019050919050565b6000613005601a836133e0565b91507f46756c6c4d6174683a2046554c4c4449565f4f564552464c4f570000000000006000830152602082019050919050565b60006130456020836133e0565b91507f4f776e61626c653a2063616c6c6572206973206e6f7420746865206f776e65726000830152602082019050919050565b6000613085601e836133e0565b91507f4669786564506f696e743a3a6672616374696f6e3a206f766572666c6f7700006000830152602082019050919050565b6130c181613427565b82525050565b6130d081613447565b82525050565b6130df81613456565b82525050565b6130ee81613460565b82525050565b6130fd81613470565b82525050565b60006020820190506131186000830184612ce0565b92915050565b600060a0820190506131336000830188612ce0565b6131406020830187612ce0565b61314d60408301866130c7565b61315a6060830185612d2b565b61316760808301846130b8565b9695505050505050565b60006020820190506131866000830184612cef565b92915050565b60006020820190506131a16000830184612cfe565b92915050565b60006020820190506131bc6000830184612d0d565b92915050565b60006020820190506131d76000830184612d1c565b92915050565b600060208201905081810360008301526131f681612d3a565b9050919050565b6000602082019050818103600083015261321681612da0565b9050919050565b6000602082019050818103600083015261323681612e06565b9050919050565b6000602082019050818103600083015261325681612e46565b9050919050565b6000602082019050818103600083015261327681612e86565b9050919050565b6000602082019050818103600083015261329681612ec6565b9050919050565b600060208201905081810360008301526132b681612f2c565b9050919050565b600060208201905081810360008301526132d681612f92565b9050919050565b600060208201905081810360008301526132f681612ff8565b9050919050565b6000602082019050818103600083015261331681613038565b9050919050565b6000602082019050818103600083015261333681613078565b9050919050565b600060208201905061335260008301846130d6565b92915050565b600060408201905061336d60008301856130d6565b61337a60208301846130d6565b9392505050565b600060208201905061339660008301846130e5565b92915050565b60006040820190506133b160008301856130e5565b6133be60208301846130d6565b9392505050565b60006020820190506133da60008301846130f4565b92915050565b600082825260208201905092915050565b60006133fc82613427565b9050919050565b6000819050919050565b60006dffffffffffffffffffffffffffff82169050919050565b600073ffffffffffffffffffffffffffffffffffffffff82169050919050565b600062ffffff82169050919050565b6000819050919050565b600063ffffffff82169050919050565b600060ff82169050919050565b600069ffffffffffffffffffff82169050919050565b600061349e826134a5565b9050919050565b60006134b082613427565b9050919050565b60006134c2826134c9565b9050919050565b60006134d482613427565b9050919050565b60006134e6826134ed565b9050919050565b60006134f882613427565b9050919050565b600061350a82613456565b9050919050565b600061351c82613456565b9050919050565b61352c816133f1565b811461353757600080fd5b50565b61354381613403565b811461354e57600080fd5b50565b61355a8161340d565b811461356557600080fd5b50565b61357181613456565b811461357c57600080fd5b50565b61358881613460565b811461359357600080fd5b50565b61359f8161347d565b81146135aa57600080fd5b5056fea2646970667358221220227324c772354b85122351bf4970d3a1b98c6ecfb76ec80c4a036b3551933a4a64736f6c634300060c0033",
  "immutableReferences": {},
  "source": "// SPDX-License-Identifier: MIT\n\n//TO-DO: have getUSDsPrice_Average() returns USDs price over longer period;\npragma solidity ^0.6.12;\npragma experimental ABIEncoderV2; //What's this for?\n\n\nimport \"@openzeppelin/contracts-upgradeable/proxy/Initializable.sol\";\nimport \"@openzeppelin/contracts-upgradeable/access/OwnableUpgradeable.sol\";\nimport \"@openzeppelin/contracts-upgradeable/math/SafeMathUpgradeable.sol\";\n\nimport { USDs } from \"../token/USDs.sol\";\nimport \"../interfaces/AggregatorV3Interface.sol\";\nimport \"../interfaces/IOracle.sol\";\nimport \"../interfaces/IUniswapV2Pair.sol\";\nimport \"../libraries/UniswapV2OracleLibrary.sol\";\nimport \"../interfaces/IQuoter.sol\";\n\n/**\n * @title Oracle - the oracle contract for Spark\n * @author Sperax Dev Team\n * @notice this contract gets data from UniswapV2 pair and feed these data into the main contact of Spark, i.e. Spark.sol\n * @dev this contract draws insights from \"ExampleOracleSimple.sol\" by UniswapV2 team\n */\n\ncontract Oracle is Initializable, IOracle, OwnableUpgradeable {\n    using SafeMathUpgradeable for *;\n\n    event Update(uint currPriceMA, uint currPricetime);\n\n\tevent PriceListUpdated(\n\t\taddress indexed token,\n\t\taddress indexed aggregator,\n        uint256 precision\n\t);\n\n\tevent PeriodUpdated(\n\t\tuint256 indexed oldPeriod,\n        uint256 indexed newPeriod,\n        uint256 timestamp\n\t);\n\n    struct token0Pricetime {\n       uint32 timestamp;\n       uint price0Cumulative;\n    }\n\n\n    //\n    // Constants & Immutables\n    //\n    uint8 public constant FREQUENCY = 24;\n\n    //\n    // Core State Variables\n    //\n    // the moving average price of token0 denominated in token1\n    // frequency = 24, default period = 1 hours ==> default timespan is 1 days\n    uint public override token0PriceMA;\n    IUniswapV2Pair private _pair;\n\n    //\n    // Auxilliary State Variables\n    //\n    // the per-period cumulative pricetimes, i.e. the UniswapV2 price*time values, of token0\n    token0Pricetime[FREQUENCY+1] public token0Pricetimes;\n    uint32 public pricetimeOldestIndex;\n    // the timstamp of the lastest price update\n    uint32 public override lastUpdateTime;\n    // the default period of one price update is 1 hours\n    uint32 public override period;\n\tAggregatorV3Interface priceFeedETH;\n\n    uint public override ETHPricePrecision;\n    uint public override USDsPricePrecision;\n    uint public override SPAPricePrecision;\n\n    //  For swap fee:\n    uint[FREQUENCY+1] public USDsInflow;\n    uint[FREQUENCY+1] public USDsOutflow;\n    uint public override USDsInOutRatio;\n    uint public override USDsInOutRatioPrecision;\n    USDs public USDsInstance;\n\n    address[] public tokenAddresses;\n    mapping(address => uint256) public tokenAddressIndex;\n    mapping(address => AggregatorV3Interface) public priceFeeds;\n    mapping(address => uint256) public pricePrecisions;\n\n    IQuoter public uniswapQuoter;\n    address private USDsToken;\n    address private WETH9;\n\t// AggregatorV3Interface priceFeedUSDC;\n\t// AggregatorV3Interface priceFeedUSDT;\n\t// AggregatorV3Interface priceFeedDAI;\n\n\t// address public USDCAddr;\n\t// address public USDTAddr;\n\t// address public DAIAddr;\n    // uint public USDCPricePrecision;\n    // uint public USDTPricePrecision;\n    // uint public DAIPricePrecision;\n\n    //\n    // Initializer\n    //\n    function initialize(\n        address pair_, address USDsToken_\n    ) public initializer {\n        OwnableUpgradeable.__Ownable_init();\n\n        // Initialize variables\n        period = 1 hours;\n        // USDCAddr = 0xb7a4F3E9097C08dA09517b5aB877F7a917224ede;\n        // USDCPricePrecision = 10**8;\n        // priceFeedUSDC = AggregatorV3Interface(0x9211c6b3BF41A10F78539810Cf5c64e1BB78Ec60);\n        ETHPricePrecision = 10**8;\n        USDsPricePrecision = 10**18;\n        SPAPricePrecision = 10**8;\n        USDsInOutRatioPrecision = 10000000; // Note: need to be less than (2^32 - 1)\n\n        priceFeedETH = AggregatorV3Interface(0x9326BFA02ADD2366b30bacB125260Af641031331);\n        uint32 constructTime = uint32(now % 2 ** 32);\n        _pair = IUniswapV2Pair(pair_);\n        lastUpdateTime = constructTime;\n\n        // obtain the cumulative pricetime from uniswapv2 pair deployment to now\n        (uint pricetimeCorrection, , ) = UniswapV2OracleLibrary.currentCumulativePrices(pair_);\n\n        // set up initial conditions\n        // assume that 1 ETH = 2500 USD, 1 SPA = 0.02 USD, so 1 ETH = 125,000 SPA\n        uint iniToken0Price = 125000;\n        uint resolution = 112;\n        uint unitPricetime = (iniToken0Price << resolution) * period;\n        uint basePricetime = unitPricetime * FREQUENCY;\n\n        // simulate the pricetimes of the past 7 days, including necessary correction\n        token0PriceMA = iniToken0Price << resolution;\n        for (uint i = 0; i < (FREQUENCY+1); i++) {\n            token0Pricetimes[i].price0Cumulative = unitPricetime\n                                                   .mul(i)\n                                                   .add(pricetimeCorrection)\n                                                   .sub(basePricetime);\n            token0Pricetimes[i].timestamp = constructTime - period * uint32(FREQUENCY - i);\n        }\n        USDsInstance = USDs(USDsToken_);\n\n        for (uint i = 0; i < (FREQUENCY+1); i++) {\n            USDsInflow[i] = 0;\n            USDsOutflow[i] = 0;\n        }\n\n        uniswapQuoter = IQuoter(0xb27308f9F90D607463bb33eA1BeBb41C27CE5AB6);\n        USDsToken = USDsToken_;\n        WETH9 = 0xd0A1E359811322d97991E03f863a0C30C2cF029C;\n    }\n\n    //\n    // Getter Function\n    //\n    /**\n     * @notice get the address of the token pair pool\n     * @return the pair pool address\n     */\n    function getPairAddr() external view returns (address) {\n        return address(_pair);\n    }\n\n    //\n    // Owner Only Function: changePeriod\n    //\n\n    /**\n     * @notice change updating period\n     * @dev the frequency of update always remains the same\n     * @param newPeriod new minimal period in between two updates\n     */\n    function changePeriod(uint32 newPeriod) external onlyOwner {\n        emit PeriodUpdated(period, newPeriod, block.timestamp);\n\n        period = newPeriod;\n    }\n\n    /**\n        Update price list\n     */\n    function updatePriceList(address assetAddress, address aggregatorAddress, uint256 precision) external onlyOwner {\n        if (tokenAddressIndex[assetAddress] == 0) {\n            tokenAddresses.push(assetAddress);\n            tokenAddressIndex[assetAddress] = tokenAddresses.length;\n        }\n        priceFeeds[assetAddress] = AggregatorV3Interface(aggregatorAddress);\n        pricePrecisions[assetAddress] = 10 ** precision;\n\n        emit PriceListUpdated(assetAddress, aggregatorAddress, precision);\n    }\n\n    /**\n        Update USDs Uniswap V3 pair\n     */\n    function updateUSDsPair(address USDsToken_, address WETH9_, address quoterAddress_) external onlyOwner {\n        uniswapQuoter = IQuoter(quoterAddress_);\n        USDsToken = USDsToken_;\n        WETH9 = WETH9_;\n\n        emit PriceListUpdated(USDsToken_, quoterAddress_, 18);\n    }\n\n    //\n    // Core Functions\n    //\n\n\tfunction getETHPrice() public view override returns (uint) {\n\t\t(\n\t\t\tuint80 roundID,\n\t\t\tint price,\n\t\t\tuint startedAt,\n\t\t\tuint timeStamp,\n\t\t\tuint80 answeredInRound\n\t\t) = priceFeedETH.latestRoundData();\n\t\treturn uint(price);\n\t}\n\n\tfunction getAssetPrice(address assetAddress) public view override returns (uint) {\n\t\t(\n\t\t\tuint80 roundID,\n\t\t\tint price,\n\t\t\tuint startedAt,\n\t\t\tuint timeStamp,\n\t\t\tuint80 answeredInRound\n\t\t) = priceFeeds[assetAddress].latestRoundData();\n\t\treturn uint(price);\n\t}\n\n    //to-do\n\tfunction getSPAPrice() external view override returns (uint) {\n\t\tuint ETHPrice = getETHPrice();\n\n        uint token0PriceMA_NoPrec = token0PriceMA.div(2**112);\n        //failing case: 1 ETH > 10^25 SPA or token0PriceMA/2**112 < ETHPrice\n        return ETHPrice.mul(2**112).div(token0PriceMA);\n\t}\n\n    function getUSDsPrice() external override returns (uint) {\n        // address tokenIn = USDsToken;\n        // address tokenOut = WETH9;\n        // uint24 fee = 3000;\n        // uint160 sqrtPriceLimitX96 = 0;\n\n        // uint256 amountIn = uniswapQuoter.quoteExactOutputSingle(\n        //     tokenIn,\n        //     tokenOut,\n        //     fee,\n        //     1,\n        //     sqrtPriceLimitX96\n        // );\n\n\t\t// uint ETHPrice = getETHPrice();\n\t\t// return amountIn.mul(ETHPricePrecision).mul(USDsPricePrecision).div(ETHPrice);\n        return 1 * USDsPricePrecision;\n\t}\n\n    //TO-DO: have getUSDsPrice_Average() returns USDs price over longer period;\n    function getUSDsPrice_Average() external override returns (uint) {\n        address tokenIn = USDsToken;\n        address tokenOut = WETH9;\n        uint24 fee = 3000;\n        uint160 sqrtPriceLimitX96 = 0;\n\n        uint256 amountIn = uniswapQuoter.quoteExactOutputSingle(\n            tokenIn,\n            tokenOut,\n            fee,\n            1,\n            sqrtPriceLimitX96\n        );\n\n\t\tuint ETHPrice = getETHPrice();\n\t\treturn amountIn.mul(ETHPricePrecision).mul(USDsPricePrecision).div(ETHPrice);\n\t}\n\n\tfunction collatPrice(address tokenAddr) external view override returns (uint) {\n\t\treturn getAssetPrice(tokenAddr);\n\t}\n\n    function collatPricePrecision(address tokenAddr) external view override returns (uint) {\n        return pricePrecisions[tokenAddr];\n\t}\n\n    /**\n     * @notice update the price of token0 to the latest\n     * @dev the price would be updated only once per period time\n     */\n    function update() external override {\n        // check if enough time has elapsed for a new update\n        uint32 currTime = uint32(now % 2 ** 32);\n        uint32 timeElapsed = currTime - lastUpdateTime;\n        require(timeElapsed >= period, \"update() : the time elapsed is too short.\");\n\n\n        // query the lastest pricetime\n        (uint price0Cumulative, , ) = UniswapV2OracleLibrary.currentCumulativePrices(address(_pair));\n\n        // update the past-7-day pricetime array and record\n        uint32 indexNew = pricetimeOldestIndex;\n        uint32 indexOld = (indexNew + 1) % (FREQUENCY+1);\n        token0Pricetimes[indexNew].price0Cumulative = price0Cumulative;\n        token0Pricetimes[indexNew].timestamp = currTime;\n\n        // calculate the new moving average price of token0\n        uint timeElapsedMA =\n            uint(token0Pricetimes[indexNew].timestamp - token0Pricetimes[indexOld].timestamp); // notice: overflow is preferred\n        token0PriceMA = token0Pricetimes[indexNew].price0Cumulative\n                         .sub(token0Pricetimes[indexOld].price0Cumulative)\n                         .div(timeElapsedMA);\n\n        // update global status\n        lastUpdateTime = currTime;\n        pricetimeOldestIndex = indexOld;\n        emit Update(token0PriceMA, price0Cumulative);\n\n        USDsInflow[indexNew] = USDsInstance._totalMinted();\n        USDsOutflow[indexNew] = USDsInstance._totalBurnt();\n\n        uint USDsInflowOneDay = USDsInflow[indexNew].sub(USDsInflow[indexOld]);\n        uint USDsOutflowOneDay = USDsOutflow[indexNew].sub(USDsOutflow[indexOld]);\n        if (USDsInOutRatio == 0) {\n            USDsInOutRatio = USDsInOutRatioPrecision;\n        } else {\n            USDsInOutRatio = USDsOutflowOneDay.div(USDsInOutRatio);\n        }\n\n    }\n}\n",
  "sourcePath": "/Volumes/Work/Sperax/USDs/contracts/oracle/Oracle.sol",
  "compiler": {
    "name": "solc",
    "version": "0.6.12+commit.27d51765.Emscripten.clang"
  },
  "schemaVersion": "3.4.0",
  "updatedAt": "2021-08-20T02:02:28.990Z",
  "devdoc": {
    "author": "Sperax Dev Team",
    "details": "this contract draws insights from \"ExampleOracleSimple.sol\" by UniswapV2 team",
    "kind": "dev",
    "methods": {
      "changePeriod(uint32)": {
        "details": "the frequency of update always remains the same",
        "params": {
          "newPeriod": "new minimal period in between two updates"
        }
      },
      "getPairAddr()": {
        "returns": {
          "_0": "the pair pool address"
        }
      },
      "owner()": {
        "details": "Returns the address of the current owner."
      },
      "renounceOwnership()": {
        "details": "Leaves the contract without owner. It will not be possible to call `onlyOwner` functions anymore. Can only be called by the current owner. NOTE: Renouncing ownership will leave the contract without an owner, thereby removing any functionality that is only available to the owner."
      },
      "transferOwnership(address)": {
        "details": "Transfers ownership of the contract to a new account (`newOwner`). Can only be called by the current owner."
      },
      "update()": {
        "details": "the price would be updated only once per period time"
      }
    },
    "title": "Oracle - the oracle contract for Spark",
    "version": 1
  },
  "userdoc": {
    "kind": "user",
    "methods": {
      "changePeriod(uint32)": {
        "notice": "change updating period"
      },
      "getPairAddr()": {
        "notice": "get the address of the token pair pool"
      },
      "update()": {
        "notice": "update the price of token0 to the latest"
      },
      "updatePriceList(address,address,uint256)": {
        "notice": "Update price list"
      },
      "updateUSDsPair(address,address,address)": {
        "notice": "Update USDs Uniswap V3 pair"
      }
    },
    "notice": "this contract gets data from UniswapV2 pair and feed these data into the main contact of Spark, i.e. Spark.sol",
    "version": 1
  }
}