{
  "contractName": "USDs",
  "abi": [
    {
      "anonymous": false,
      "inputs": [
        {
          "indexed": true,
          "internalType": "address",
          "name": "owner",
          "type": "address"
        },
        {
          "indexed": true,
          "internalType": "address",
          "name": "spender",
          "type": "address"
        },
        {
          "indexed": false,
          "internalType": "uint256",
          "name": "value",
          "type": "uint256"
        }
      ],
      "name": "Approval",
      "type": "event"
    },
    {
      "anonymous": false,
      "inputs": [
        {
          "indexed": true,
          "internalType": "address",
          "name": "previousOwner",
          "type": "address"
        },
        {
          "indexed": true,
          "internalType": "address",
          "name": "newOwner",
          "type": "address"
        }
      ],
      "name": "OwnershipTransferred",
      "type": "event"
    },
    {
      "anonymous": false,
      "inputs": [
        {
          "indexed": false,
          "internalType": "uint256",
          "name": "totalSupply",
          "type": "uint256"
        },
        {
          "indexed": false,
          "internalType": "uint256",
          "name": "rebasingCredits",
          "type": "uint256"
        },
        {
          "indexed": false,
          "internalType": "uint256",
          "name": "rebasingCreditsPerToken",
          "type": "uint256"
        }
      ],
      "name": "TotalSupplyUpdated",
      "type": "event"
    },
    {
      "anonymous": false,
      "inputs": [
        {
          "indexed": true,
          "internalType": "address",
          "name": "from",
          "type": "address"
        },
        {
          "indexed": true,
          "internalType": "address",
          "name": "to",
          "type": "address"
        },
        {
          "indexed": false,
          "internalType": "uint256",
          "name": "value",
          "type": "uint256"
        }
      ],
      "name": "Transfer",
      "type": "event"
    },
    {
      "inputs": [],
      "name": "_totalBurnt",
      "outputs": [
        {
          "internalType": "uint256",
          "name": "",
          "type": "uint256"
        }
      ],
      "stateMutability": "view",
      "type": "function"
    },
    {
      "inputs": [],
      "name": "_totalMinted",
      "outputs": [
        {
          "internalType": "uint256",
          "name": "",
          "type": "uint256"
        }
      ],
      "stateMutability": "view",
      "type": "function"
    },
    {
      "inputs": [],
      "name": "_totalSupply",
      "outputs": [
        {
          "internalType": "uint256",
          "name": "",
          "type": "uint256"
        }
      ],
      "stateMutability": "view",
      "type": "function"
    },
    {
      "inputs": [],
      "name": "decimals",
      "outputs": [
        {
          "internalType": "uint8",
          "name": "",
          "type": "uint8"
        }
      ],
      "stateMutability": "view",
      "type": "function"
    },
    {
      "inputs": [],
      "name": "name",
      "outputs": [
        {
          "internalType": "string",
          "name": "",
          "type": "string"
        }
      ],
      "stateMutability": "view",
      "type": "function"
    },
    {
      "inputs": [
        {
          "internalType": "address",
          "name": "",
          "type": "address"
        }
      ],
      "name": "nonRebasingCreditsPerToken",
      "outputs": [
        {
          "internalType": "uint256",
          "name": "",
          "type": "uint256"
        }
      ],
      "stateMutability": "view",
      "type": "function"
    },
    {
      "inputs": [],
      "name": "nonRebasingSupply",
      "outputs": [
        {
          "internalType": "uint256",
          "name": "",
          "type": "uint256"
        }
      ],
      "stateMutability": "view",
      "type": "function"
    },
    {
      "inputs": [],
      "name": "owner",
      "outputs": [
        {
          "internalType": "address",
          "name": "",
          "type": "address"
        }
      ],
      "stateMutability": "view",
      "type": "function"
    },
    {
      "inputs": [
        {
          "internalType": "address",
          "name": "",
          "type": "address"
        }
      ],
      "name": "rebaseState",
      "outputs": [
        {
          "internalType": "enum USDs.RebaseOptions",
          "name": "",
          "type": "uint8"
        }
      ],
      "stateMutability": "view",
      "type": "function"
    },
    {
      "inputs": [],
      "name": "rebasingCredits",
      "outputs": [
        {
          "internalType": "uint256",
          "name": "",
          "type": "uint256"
        }
      ],
      "stateMutability": "view",
      "type": "function"
    },
    {
      "inputs": [],
      "name": "rebasingCreditsPerToken",
      "outputs": [
        {
          "internalType": "uint256",
          "name": "",
          "type": "uint256"
        }
      ],
      "stateMutability": "view",
      "type": "function"
    },
    {
      "inputs": [],
      "name": "renounceOwnership",
      "outputs": [],
      "stateMutability": "nonpayable",
      "type": "function"
    },
    {
      "inputs": [],
      "name": "symbol",
      "outputs": [
        {
          "internalType": "string",
          "name": "",
          "type": "string"
        }
      ],
      "stateMutability": "view",
      "type": "function"
    },
    {
      "inputs": [
        {
          "internalType": "address",
          "name": "newOwner",
          "type": "address"
        }
      ],
      "name": "transferOwnership",
      "outputs": [],
      "stateMutability": "nonpayable",
      "type": "function"
    },
    {
      "inputs": [],
      "name": "vaultAddress",
      "outputs": [
        {
          "internalType": "address",
          "name": "",
          "type": "address"
        }
      ],
      "stateMutability": "view",
      "type": "function"
    },
    {
      "inputs": [
        {
          "internalType": "string",
          "name": "_nameArg",
          "type": "string"
        },
        {
          "internalType": "string",
          "name": "_symbolArg",
          "type": "string"
        },
        {
          "internalType": "address",
          "name": "_vaultAddress",
          "type": "address"
        }
      ],
      "name": "initialize",
      "outputs": [],
      "stateMutability": "nonpayable",
      "type": "function"
    },
    {
      "inputs": [
        {
          "internalType": "address",
          "name": "newVault",
          "type": "address"
        }
      ],
      "name": "changeVault",
      "outputs": [],
      "stateMutability": "nonpayable",
      "type": "function"
    },
    {
      "inputs": [],
      "name": "totalSupply",
      "outputs": [
        {
          "internalType": "uint256",
          "name": "",
          "type": "uint256"
        }
      ],
      "stateMutability": "view",
      "type": "function"
    },
    {
      "inputs": [
        {
          "internalType": "address",
          "name": "_account",
          "type": "address"
        }
      ],
      "name": "balanceOf",
      "outputs": [
        {
          "internalType": "uint256",
          "name": "",
          "type": "uint256"
        }
      ],
      "stateMutability": "view",
      "type": "function"
    },
    {
      "inputs": [
        {
          "internalType": "address",
          "name": "_account",
          "type": "address"
        }
      ],
      "name": "creditsBalanceOf",
      "outputs": [
        {
          "internalType": "uint256",
          "name": "",
          "type": "uint256"
        },
        {
          "internalType": "uint256",
          "name": "",
          "type": "uint256"
        }
      ],
      "stateMutability": "view",
      "type": "function"
    },
    {
      "inputs": [
        {
          "internalType": "address",
          "name": "_to",
          "type": "address"
        },
        {
          "internalType": "uint256",
          "name": "_value",
          "type": "uint256"
        }
      ],
      "name": "transfer",
      "outputs": [
        {
          "internalType": "bool",
          "name": "",
          "type": "bool"
        }
      ],
      "stateMutability": "nonpayable",
      "type": "function"
    },
    {
      "inputs": [
        {
          "internalType": "address",
          "name": "_from",
          "type": "address"
        },
        {
          "internalType": "address",
          "name": "_to",
          "type": "address"
        },
        {
          "internalType": "uint256",
          "name": "_value",
          "type": "uint256"
        }
      ],
      "name": "transferFrom",
      "outputs": [
        {
          "internalType": "bool",
          "name": "",
          "type": "bool"
        }
      ],
      "stateMutability": "nonpayable",
      "type": "function"
    },
    {
      "inputs": [
        {
          "internalType": "address",
          "name": "_owner",
          "type": "address"
        },
        {
          "internalType": "address",
          "name": "_spender",
          "type": "address"
        }
      ],
      "name": "allowance",
      "outputs": [
        {
          "internalType": "uint256",
          "name": "",
          "type": "uint256"
        }
      ],
      "stateMutability": "view",
      "type": "function"
    },
    {
      "inputs": [
        {
          "internalType": "address",
          "name": "_spender",
          "type": "address"
        },
        {
          "internalType": "uint256",
          "name": "_value",
          "type": "uint256"
        }
      ],
      "name": "approve",
      "outputs": [
        {
          "internalType": "bool",
          "name": "",
          "type": "bool"
        }
      ],
      "stateMutability": "nonpayable",
      "type": "function"
    },
    {
      "inputs": [
        {
          "internalType": "address",
          "name": "_spender",
          "type": "address"
        },
        {
          "internalType": "uint256",
          "name": "_addedValue",
          "type": "uint256"
        }
      ],
      "name": "increaseAllowance",
      "outputs": [
        {
          "internalType": "bool",
          "name": "",
          "type": "bool"
        }
      ],
      "stateMutability": "nonpayable",
      "type": "function"
    },
    {
      "inputs": [
        {
          "internalType": "address",
          "name": "_spender",
          "type": "address"
        },
        {
          "internalType": "uint256",
          "name": "_subtractedValue",
          "type": "uint256"
        }
      ],
      "name": "decreaseAllowance",
      "outputs": [
        {
          "internalType": "bool",
          "name": "",
          "type": "bool"
        }
      ],
      "stateMutability": "nonpayable",
      "type": "function"
    },
    {
      "inputs": [
        {
          "internalType": "address",
          "name": "_account",
          "type": "address"
        },
        {
          "internalType": "uint256",
          "name": "_amount",
          "type": "uint256"
        }
      ],
      "name": "mint",
      "outputs": [],
      "stateMutability": "nonpayable",
      "type": "function"
    },
    {
      "inputs": [
        {
          "internalType": "address",
          "name": "account",
          "type": "address"
        },
        {
          "internalType": "uint256",
          "name": "amount",
          "type": "uint256"
        }
      ],
      "name": "burn",
      "outputs": [],
      "stateMutability": "nonpayable",
      "type": "function"
    },
    {
      "inputs": [],
      "name": "rebaseOptIn",
      "outputs": [],
      "stateMutability": "nonpayable",
      "type": "function"
    },
    {
      "inputs": [],
      "name": "rebaseOptOut",
      "outputs": [],
      "stateMutability": "nonpayable",
      "type": "function"
    },
    {
      "inputs": [
        {
          "internalType": "uint256",
          "name": "_newTotalSupply",
          "type": "uint256"
        }
      ],
      "name": "changeSupply",
      "outputs": [],
      "stateMutability": "nonpayable",
      "type": "function"
    }
  ],
  "bytecode": "0x608060405234801561001057600080fd5b50613c9f806100206000396000f3fe608060405234801561001057600080fd5b50600436106101e55760003560e01c806360e232a91161010f578063a457c2d7116100a2578063e696393a11610071578063e696393a146109dc578063f2fde38b146109fa578063f51b0fd414610a3e578063f9854bfc14610a48576101e5565b8063a457c2d714610892578063a9059cbb146108f6578063c2376dff1461095a578063dd62ed3e14610964576101e5565b8063736bf591116100de578063736bf5911461076f5780638da5cb5b1461078d57806395d89b41146107c15780639dc29fac14610844576101e5565b806360e232a9146106ab5780636691cb3d146106ef57806370a082311461070d578063715018a614610765576101e5565b8063313ce5671161018757806340c10f191161015657806340c10f191461056e578063430bf08a146105bc578063456ee286146105f0578063609350cd14610653576101e5565b8063313ce5671461049d57806339509351146104be57806339a7919f146105225780633eaaf86b14610550576101e5565b8063095ea7b3116101c3578063095ea7b3146103795780630abddbe7146103dd57806318160ddd146103fb57806323b872dd14610419576101e5565b806306fdde03146101ea578063077f224a1461026d578063077f22b71461035b575b600080fd5b6101f2610aa7565b6040518080602001828103825283818151815260200191508051906020019080838360005b83811015610232578082015181840152602081019050610217565b50505050905090810190601f16801561025f5780820380516001836020036101000a031916815260200191505b509250505060405180910390f35b6103596004803603606081101561028357600080fd5b81019080803590602001906401000000008111156102a057600080fd5b8201836020820111156102b257600080fd5b803590602001918460018302840111640100000000831117156102d457600080fd5b9091929391929390803590602001906401000000008111156102f557600080fd5b82018360208201111561030757600080fd5b8035906020019184600183028401116401000000008311171561032957600080fd5b9091929391929390803573ffffffffffffffffffffffffffffffffffffffff169060200190929190505050610b49565b005b610363610d3a565b6040518082815260200191505060405180910390f35b6103c56004803603604081101561038f57600080fd5b81019080803573ffffffffffffffffffffffffffffffffffffffff16906020019092919080359060200190929190505050610d41565b60405180821515815260200191505060405180910390f35b6103e5610e34565b6040518082815260200191505060405180910390f35b610403610e3a565b6040518082815260200191505060405180910390f35b6104856004803603606081101561042f57600080fd5b81019080803573ffffffffffffffffffffffffffffffffffffffff169060200190929190803573ffffffffffffffffffffffffffffffffffffffff16906020019092919080359060200190929190505050610e44565b60405180821515815260200191505060405180910390f35b6104a56110f2565b604051808260ff16815260200191505060405180910390f35b61050a600480360360408110156104d457600080fd5b81019080803573ffffffffffffffffffffffffffffffffffffffff16906020019092919080359060200190929190505050611109565b60405180821515815260200191505060405180910390f35b61054e6004803603602081101561053857600080fd5b8101908080359060200190929190505050611308565b005b610558611613565b6040518082815260200191505060405180910390f35b6105ba6004803603604081101561058457600080fd5b81019080803573ffffffffffffffffffffffffffffffffffffffff16906020019092919080359060200190929190505050611619565b005b6105c46116eb565b604051808273ffffffffffffffffffffffffffffffffffffffff16815260200191505060405180910390f35b6106326004803603602081101561060657600080fd5b81019080803573ffffffffffffffffffffffffffffffffffffffff169060200190929190505050611712565b6040518082600281111561064257fe5b815260200191505060405180910390f35b6106956004803603602081101561066957600080fd5b81019080803573ffffffffffffffffffffffffffffffffffffffff169060200190929190505050611733565b6040518082815260200191505060405180910390f35b6106ed600480360360208110156106c157600080fd5b81019080803573ffffffffffffffffffffffffffffffffffffffff16906020019092919050505061174c565b005b6106f7611840565b6040518082815260200191505060405180910390f35b61074f6004803603602081101561072357600080fd5b81019080803573ffffffffffffffffffffffffffffffffffffffff169060200190929190505050611847565b6040518082815260200191505060405180910390f35b61076d6118fd565b005b610777611a6d565b6040518082815260200191505060405180910390f35b610795611a73565b604051808273ffffffffffffffffffffffffffffffffffffffff16815260200191505060405180910390f35b6107c9611a9d565b6040518080602001828103825283818151815260200191508051906020019080838360005b838110156108095780820151818401526020810190506107ee565b50505050905090810190601f1680156108365780820380516001836020036101000a031916815260200191505b509250505060405180910390f35b6108906004803603604081101561085a57600080fd5b81019080803573ffffffffffffffffffffffffffffffffffffffff16906020019092919080359060200190929190505050611b3f565b005b6108de600480360360408110156108a857600080fd5b81019080803573ffffffffffffffffffffffffffffffffffffffff16906020019092919080359060200190929190505050611c11565b60405180821515815260200191505060405180910390f35b6109426004803603604081101561090c57600080fd5b81019080803573ffffffffffffffffffffffffffffffffffffffff16906020019092919080359060200190929190505050611ea5565b60405180821515815260200191505060405180910390f35b610962612041565b005b6109c66004803603604081101561097a57600080fd5b81019080803573ffffffffffffffffffffffffffffffffffffffff169060200190929190803573ffffffffffffffffffffffffffffffffffffffff16906020019092919050505061229a565b6040518082815260200191505060405180910390f35b6109e4612322565b6040518082815260200191505060405180910390f35b610a3c60048036036020811015610a1057600080fd5b81019080803573ffffffffffffffffffffffffffffffffffffffff169060200190929190505050612329565b005b610a4661251e565b005b610a8a60048036036020811015610a5e57600080fd5b81019080803573ffffffffffffffffffffffffffffffffffffffff16906020019092919050505061282c565b604051808381526020018281526020019250505060405180910390f35b606060c98054600181600116156101000203166002900480601f016020809104026020016040519081016040528092919081815260200182805460018160011615610100020316600290048015610b3f5780601f10610b1457610100808354040283529160200191610b3f565b820191906000526020600020905b815481529060010190602001808311610b2257829003601f168201915b5050505050905090565b600060019054906101000a900460ff1680610b685750610b67612882565b5b80610b7e575060008054906101000a900460ff16155b610bd3576040517f08c379a000000000000000000000000000000000000000000000000000000000815260040180806020018281038252602e815260200180613c1b602e913960400191505060405180910390fd5b60008060019054906101000a900460ff161590508015610c23576001600060016101000a81548160ff02191690831515021790555060016000806101000a81548160ff0219169083151502179055505b610cb786868080601f016020809104026020016040519081016040528093929190818152602001838380828437600081840152601f19601f8201169050808301925050505050505085858080601f016020809104026020016040519081016040528093929190818152602001838380828437600081840152601f19601f820116905080830192505050505050506012612893565b610cbf6128e1565b670de0b6b3a7640000610104819055508161010160006101000a81548173ffffffffffffffffffffffffffffffffffffffff021916908373ffffffffffffffffffffffffffffffffffffffff1602179055508015610d325760008060016101000a81548160ff0219169083151502179055505b505050505050565b6101035481565b60008161010060003373ffffffffffffffffffffffffffffffffffffffff1673ffffffffffffffffffffffffffffffffffffffff16815260200190815260200160002060008573ffffffffffffffffffffffffffffffffffffffff1673ffffffffffffffffffffffffffffffffffffffff168152602001908152602001600020819055508273ffffffffffffffffffffffffffffffffffffffff163373ffffffffffffffffffffffffffffffffffffffff167f8c5be1e5ebec7d5bd14f71427d1e84f3dd0314c0f7b2291e5b200ac8c7c3b925846040518082815260200191505060405180910390a36001905092915050565b60ff5481565b600060fd54905090565b60008073ffffffffffffffffffffffffffffffffffffffff168373ffffffffffffffffffffffffffffffffffffffff161415610ee8576040517f08c379a00000000000000000000000000000000000000000000000000000000081526004018080602001828103825260188152602001807f5472616e7366657220746f207a65726f2061646472657373000000000000000081525060200191505060405180910390fd5b610ef184611847565b821115610f66576040517f08c379a000000000000000000000000000000000000000000000000000000000815260040180806020018281038252601d8152602001807f5472616e736665722067726561746572207468616e2062616c616e636500000081525060200191505060405180910390fd5b610ff68261010060008773ffffffffffffffffffffffffffffffffffffffff1673ffffffffffffffffffffffffffffffffffffffff16815260200190815260200160002060003373ffffffffffffffffffffffffffffffffffffffff1673ffffffffffffffffffffffffffffffffffffffff168152602001908152602001600020546129ef90919063ffffffff16565b61010060008673ffffffffffffffffffffffffffffffffffffffff1673ffffffffffffffffffffffffffffffffffffffff16815260200190815260200160002060003373ffffffffffffffffffffffffffffffffffffffff1673ffffffffffffffffffffffffffffffffffffffff16815260200190815260200160002081905550611082848484612a72565b8273ffffffffffffffffffffffffffffffffffffffff168473ffffffffffffffffffffffffffffffffffffffff167fddf252ad1be2c89b69c2b068fc378daa952ba7f163c4a11628f55a4df523b3ef846040518082815260200191505060405180910390a3600190509392505050565b600060cb60009054906101000a900460ff16905090565b600061119b8261010060003373ffffffffffffffffffffffffffffffffffffffff1673ffffffffffffffffffffffffffffffffffffffff16815260200190815260200160002060008673ffffffffffffffffffffffffffffffffffffffff1673ffffffffffffffffffffffffffffffffffffffff16815260200190815260200160002054612cd390919063ffffffff16565b61010060003373ffffffffffffffffffffffffffffffffffffffff1673ffffffffffffffffffffffffffffffffffffffff16815260200190815260200160002060008573ffffffffffffffffffffffffffffffffffffffff1673ffffffffffffffffffffffffffffffffffffffff168152602001908152602001600020819055508273ffffffffffffffffffffffffffffffffffffffff163373ffffffffffffffffffffffffffffffffffffffff167f8c5be1e5ebec7d5bd14f71427d1e84f3dd0314c0f7b2291e5b200ac8c7c3b92561010060003373ffffffffffffffffffffffffffffffffffffffff1673ffffffffffffffffffffffffffffffffffffffff16815260200190815260200160002060008773ffffffffffffffffffffffffffffffffffffffff1673ffffffffffffffffffffffffffffffffffffffff168152602001908152602001600020546040518082815260200191505060405180910390a36001905092915050565b3373ffffffffffffffffffffffffffffffffffffffff1661010160009054906101000a900473ffffffffffffffffffffffffffffffffffffffff1673ffffffffffffffffffffffffffffffffffffffff16146113cc576040517f08c379a00000000000000000000000000000000000000000000000000000000081526004018080602001828103825260178152602001807f43616c6c6572206973206e6f7420746865205661756c7400000000000000000081525060200191505060405180910390fd5b600060fd5411611444576040517f08c379a00000000000000000000000000000000000000000000000000000000081526004018080602001828103825260188152602001807f43616e6e6f7420696e637265617365203020737570706c79000000000000000081525060200191505060405180910390fd5b8060fd5414156114a2577f99e56f783b536ffacf422d59183ea321dd80dcd6d23daa13023e8afea38c3df160fd54610103546101045460405180848152602001838152602001828152602001935050505060405180910390a1611610565b6000196fffffffffffffffffffffffffffffffff1681116114c357806114d9565b6000196fffffffffffffffffffffffffffffffff165b60fd8190555061150c6114fa6101055460fd546129ef90919063ffffffff16565b61010354612d5b90919063ffffffff16565b610104819055506000610104541161158c576040517f08c379a00000000000000000000000000000000000000000000000000000000081526004018080602001828103825260188152602001807f496e76616c6964206368616e676520696e20737570706c79000000000000000081525060200191505060405180910390fd5b6115ba610105546115ac6101045461010354612d5b90919063ffffffff16565b612cd390919063ffffffff16565b60fd819055507f99e56f783b536ffacf422d59183ea321dd80dcd6d23daa13023e8afea38c3df160fd54610103546101045460405180848152602001838152602001828152602001935050505060405180910390a15b50565b60fd5481565b3373ffffffffffffffffffffffffffffffffffffffff1661010160009054906101000a900473ffffffffffffffffffffffffffffffffffffffff1673ffffffffffffffffffffffffffffffffffffffff16146116dd576040517f08c379a00000000000000000000000000000000000000000000000000000000081526004018080602001828103825260178152602001807f43616c6c6572206973206e6f7420746865205661756c7400000000000000000081525060200191505060405180910390fd5b6116e78282612d97565b5050565b61010160009054906101000a900473ffffffffffffffffffffffffffffffffffffffff1681565b6101076020528060005260406000206000915054906101000a900460ff1681565b6101066020528060005260406000206000915090505481565b611754613070565b73ffffffffffffffffffffffffffffffffffffffff16611772611a73565b73ffffffffffffffffffffffffffffffffffffffff16146117fb576040517f08c379a00000000000000000000000000000000000000000000000000000000081526004018080602001828103825260208152602001807f4f776e61626c653a2063616c6c6572206973206e6f7420746865206f776e657281525060200191505060405180910390fd5b8061010160006101000a81548173ffffffffffffffffffffffffffffffffffffffff021916908373ffffffffffffffffffffffffffffffffffffffff16021790555050565b6101045481565b60008061010260008473ffffffffffffffffffffffffffffffffffffffff1673ffffffffffffffffffffffffffffffffffffffff16815260200190815260200160002054141561189a57600090506118f8565b6118f56118a683613078565b61010260008573ffffffffffffffffffffffffffffffffffffffff1673ffffffffffffffffffffffffffffffffffffffff16815260200190815260200160002054612d5b90919063ffffffff16565b90505b919050565b611905613070565b73ffffffffffffffffffffffffffffffffffffffff16611923611a73565b73ffffffffffffffffffffffffffffffffffffffff16146119ac576040517f08c379a00000000000000000000000000000000000000000000000000000000081526004018080602001828103825260208152602001807f4f776e61626c653a2063616c6c6572206973206e6f7420746865206f776e657281525060200191505060405180910390fd5b600073ffffffffffffffffffffffffffffffffffffffff1660cb60019054906101000a900473ffffffffffffffffffffffffffffffffffffffff1673ffffffffffffffffffffffffffffffffffffffff167f8be0079c531659141344cd1fd0a4f28419497f9722a3daafe3b4186f6b6457e060405160405180910390a3600060cb60016101000a81548173ffffffffffffffffffffffffffffffffffffffff021916908373ffffffffffffffffffffffffffffffffffffffff160217905550565b60fe5481565b600060cb60019054906101000a900473ffffffffffffffffffffffffffffffffffffffff16905090565b606060ca8054600181600116156101000203166002900480601f016020809104026020016040519081016040528092919081815260200182805460018160011615610100020316600290048015611b355780601f10611b0a57610100808354040283529160200191611b35565b820191906000526020600020905b815481529060010190602001808311611b1857829003601f168201915b5050505050905090565b3373ffffffffffffffffffffffffffffffffffffffff1661010160009054906101000a900473ffffffffffffffffffffffffffffffffffffffff1673ffffffffffffffffffffffffffffffffffffffff1614611c03576040517f08c379a00000000000000000000000000000000000000000000000000000000081526004018080602001828103825260178152602001807f43616c6c6572206973206e6f7420746865205661756c7400000000000000000081525060200191505060405180910390fd5b611c0d8282613115565b5050565b60008061010060003373ffffffffffffffffffffffffffffffffffffffff1673ffffffffffffffffffffffffffffffffffffffff16815260200190815260200160002060008573ffffffffffffffffffffffffffffffffffffffff1673ffffffffffffffffffffffffffffffffffffffff168152602001908152602001600020549050808310611d2357600061010060003373ffffffffffffffffffffffffffffffffffffffff1673ffffffffffffffffffffffffffffffffffffffff16815260200190815260200160002060008673ffffffffffffffffffffffffffffffffffffffff1673ffffffffffffffffffffffffffffffffffffffff16815260200190815260200160002081905550611db8565b611d3683826129ef90919063ffffffff16565b61010060003373ffffffffffffffffffffffffffffffffffffffff1673ffffffffffffffffffffffffffffffffffffffff16815260200190815260200160002060008673ffffffffffffffffffffffffffffffffffffffff1673ffffffffffffffffffffffffffffffffffffffff168152602001908152602001600020819055505b8373ffffffffffffffffffffffffffffffffffffffff163373ffffffffffffffffffffffffffffffffffffffff167f8c5be1e5ebec7d5bd14f71427d1e84f3dd0314c0f7b2291e5b200ac8c7c3b92561010060003373ffffffffffffffffffffffffffffffffffffffff1673ffffffffffffffffffffffffffffffffffffffff16815260200190815260200160002060008873ffffffffffffffffffffffffffffffffffffffff1673ffffffffffffffffffffffffffffffffffffffff168152602001908152602001600020546040518082815260200191505060405180910390a3600191505092915050565b60008073ffffffffffffffffffffffffffffffffffffffff168373ffffffffffffffffffffffffffffffffffffffff161415611f49576040517f08c379a00000000000000000000000000000000000000000000000000000000081526004018080602001828103825260188152602001807f5472616e7366657220746f207a65726f2061646472657373000000000000000081525060200191505060405180910390fd5b611f5233611847565b821115611fc7576040517f08c379a000000000000000000000000000000000000000000000000000000000815260040180806020018281038252601d8152602001807f5472616e736665722067726561746572207468616e2062616c616e636500000081525060200191505060405180910390fd5b611fd2338484612a72565b8273ffffffffffffffffffffffffffffffffffffffff163373ffffffffffffffffffffffffffffffffffffffff167fddf252ad1be2c89b69c2b068fc378daa952ba7f163c4a11628f55a4df523b3ef846040518082815260200191505060405180910390a36001905092915050565b612049613070565b73ffffffffffffffffffffffffffffffffffffffff16612067611a73565b73ffffffffffffffffffffffffffffffffffffffff16146120f0576040517f08c379a00000000000000000000000000000000000000000000000000000000081526004018080602001828103825260208152602001807f4f776e61626c653a2063616c6c6572206973206e6f7420746865206f776e657281525060200191505060405180910390fd5b6120f933613494565b1561216c576040517f08c379a00000000000000000000000000000000000000000000000000000000081526004018080602001828103825260188152602001807f4163636f756e7420686173206e6f74206f7074656420696e000000000000000081525060200191505060405180910390fd5b61218a61217833611847565b61010554612cd390919063ffffffff16565b610105819055506101045461010660003373ffffffffffffffffffffffffffffffffffffffff1673ffffffffffffffffffffffffffffffffffffffff1681526020019081526020016000208190555061222f61010260003373ffffffffffffffffffffffffffffffffffffffff1673ffffffffffffffffffffffffffffffffffffffff16815260200190815260200160002054610103546129ef90919063ffffffff16565b61010381905550600161010760003373ffffffffffffffffffffffffffffffffffffffff1673ffffffffffffffffffffffffffffffffffffffff16815260200190815260200160002060006101000a81548160ff0219169083600281111561229357fe5b0217905550565b600061010060008473ffffffffffffffffffffffffffffffffffffffff1673ffffffffffffffffffffffffffffffffffffffff16815260200190815260200160002060008373ffffffffffffffffffffffffffffffffffffffff1673ffffffffffffffffffffffffffffffffffffffff16815260200190815260200160002054905092915050565b6101055481565b612331613070565b73ffffffffffffffffffffffffffffffffffffffff1661234f611a73565b73ffffffffffffffffffffffffffffffffffffffff16146123d8576040517f08c379a00000000000000000000000000000000000000000000000000000000081526004018080602001828103825260208152602001807f4f776e61626c653a2063616c6c6572206973206e6f7420746865206f776e657281525060200191505060405180910390fd5b600073ffffffffffffffffffffffffffffffffffffffff168173ffffffffffffffffffffffffffffffffffffffff16141561245e576040517f08c379a0000000000000000000000000000000000000000000000000000000008152600401808060200182810382526026815260200180613bf56026913960400191505060405180910390fd5b8073ffffffffffffffffffffffffffffffffffffffff1660cb60019054906101000a900473ffffffffffffffffffffffffffffffffffffffff1673ffffffffffffffffffffffffffffffffffffffff167f8be0079c531659141344cd1fd0a4f28419497f9722a3daafe3b4186f6b6457e060405160405180910390a38060cb60016101000a81548173ffffffffffffffffffffffffffffffffffffffff021916908373ffffffffffffffffffffffffffffffffffffffff16021790555050565b612526613070565b73ffffffffffffffffffffffffffffffffffffffff16612544611a73565b73ffffffffffffffffffffffffffffffffffffffff16146125cd576040517f08c379a00000000000000000000000000000000000000000000000000000000081526004018080602001828103825260208152602001807f4f776e61626c653a2063616c6c6572206973206e6f7420746865206f776e657281525060200191505060405180910390fd5b6125d633613494565b612648576040517f08c379a00000000000000000000000000000000000000000000000000000000081526004018080602001828103825260198152602001807f4163636f756e7420686173206e6f74206f70746564206f75740000000000000081525060200191505060405180910390fd5b60006126ba61265633613078565b6126ac6101045461010260003373ffffffffffffffffffffffffffffffffffffffff1673ffffffffffffffffffffffffffffffffffffffff1681526020019081526020016000205461356d90919063ffffffff16565b6135f390919063ffffffff16565b90506126da6126c833611847565b610105546129ef90919063ffffffff16565b610105819055508061010260003373ffffffffffffffffffffffffffffffffffffffff1673ffffffffffffffffffffffffffffffffffffffff1681526020019081526020016000208190555061277c61010260003373ffffffffffffffffffffffffffffffffffffffff1673ffffffffffffffffffffffffffffffffffffffff1681526020019081526020016000205461010354612cd390919063ffffffff16565b61010381905550600261010760003373ffffffffffffffffffffffffffffffffffffffff1673ffffffffffffffffffffffffffffffffffffffff16815260200190815260200160002060006101000a81548160ff021916908360028111156127e057fe5b021790555061010660003373ffffffffffffffffffffffffffffffffffffffff1673ffffffffffffffffffffffffffffffffffffffff1681526020019081526020016000206000905550565b60008061010260008473ffffffffffffffffffffffffffffffffffffffff1673ffffffffffffffffffffffffffffffffffffffff1681526020019081526020016000205461287984613078565b91509150915091565b600061288d3061367c565b15905090565b8260c990805190602001906128a9929190613b57565b508160ca90805190602001906128c0929190613b57565b508060cb60006101000a81548160ff021916908360ff160217905550505050565b600060019054906101000a900460ff168061290057506128ff612882565b5b80612916575060008054906101000a900460ff16155b61296b576040517f08c379a000000000000000000000000000000000000000000000000000000000815260040180806020018281038252602e815260200180613c1b602e913960400191505060405180910390fd5b60008060019054906101000a900460ff1615905080156129bb576001600060016101000a81548160ff02191690831515021790555060016000806101000a81548160ff0219169083151502179055505b6129c361368f565b6129cb61378d565b80156129ec5760008060016101000a81548160ff0219169083151502179055505b50565b600082821115612a67576040517f08c379a000000000000000000000000000000000000000000000000000000000815260040180806020018281038252601e8152602001807f536166654d6174683a207375627472616374696f6e206f766572666c6f77000081525060200191505060405180910390fd5b818303905092915050565b6000612a7d83613494565b90506000612a8a85613494565b90506000612aa9612a9a86613078565b8561393490919063ffffffff16565b90506000612ac8612ab988613078565b8661393490919063ffffffff16565b9050612b54816040518060400160405280601f81526020017f5472616e7366657220616d6f756e7420657863656564732062616c616e63650081525061010260008b73ffffffffffffffffffffffffffffffffffffffff1673ffffffffffffffffffffffffffffffffffffffff168152602001908152602001600020546139519092919063ffffffff16565b61010260008973ffffffffffffffffffffffffffffffffffffffff1673ffffffffffffffffffffffffffffffffffffffff16815260200190815260200160002081905550612beb8261010260008973ffffffffffffffffffffffffffffffffffffffff1673ffffffffffffffffffffffffffffffffffffffff16815260200190815260200160002054612cd390919063ffffffff16565b61010260008873ffffffffffffffffffffffffffffffffffffffff1673ffffffffffffffffffffffffffffffffffffffff16815260200190815260200160002081905550838015612c3a575082155b15612c7e57612c558561010554612cd390919063ffffffff16565b61010581905550612c7281610103546129ef90919063ffffffff16565b61010381905550612cca565b83158015612c895750825b15612cc957612ca485610105546129ef90919063ffffffff16565b61010581905550612cc18261010354612cd390919063ffffffff16565b610103819055505b5b50505050505050565b600080828401905083811015612d51576040517f08c379a000000000000000000000000000000000000000000000000000000000815260040180806020018281038252601b8152602001807f536166654d6174683a206164646974696f6e206f766572666c6f77000000000081525060200191505060405180910390fd5b8091505092915050565b600080612d79670de0b6b3a76400008561356d90919063ffffffff16565b9050612d8e83826135f390919063ffffffff16565b91505092915050565b600073ffffffffffffffffffffffffffffffffffffffff168273ffffffffffffffffffffffffffffffffffffffff161415612e3a576040517f08c379a00000000000000000000000000000000000000000000000000000000081526004018080602001828103825260188152602001807f4d696e7420746f20746865207a65726f2061646472657373000000000000000081525060200191505060405180910390fd5b6000612e4583613494565b90506000612e64612e5585613078565b8461393490919063ffffffff16565b9050612eb98161010260008773ffffffffffffffffffffffffffffffffffffffff1673ffffffffffffffffffffffffffffffffffffffff16815260200190815260200160002054612cd390919063ffffffff16565b61010260008673ffffffffffffffffffffffffffffffffffffffff1673ffffffffffffffffffffffffffffffffffffffff168152602001908152602001600020819055508115612f2557612f198361010554612cd390919063ffffffff16565b61010581905550612f43565b612f3b8161010354612cd390919063ffffffff16565b610103819055505b612f588360fd54612cd390919063ffffffff16565b60fd81905550612f738360fe54612cd390919063ffffffff16565b60fe819055506000196fffffffffffffffffffffffffffffffff1660fd5410613004576040517f08c379a000000000000000000000000000000000000000000000000000000000815260040180806020018281038252600a8152602001807f4d617820737570706c790000000000000000000000000000000000000000000081525060200191505060405180910390fd5b8373ffffffffffffffffffffffffffffffffffffffff16600073ffffffffffffffffffffffffffffffffffffffff167fddf252ad1be2c89b69c2b068fc378daa952ba7f163c4a11628f55a4df523b3ef856040518082815260200191505060405180910390a350505050565b600033905090565b60008061010660008473ffffffffffffffffffffffffffffffffffffffff1673ffffffffffffffffffffffffffffffffffffffff16815260200190815260200160002054146131095761010660008373ffffffffffffffffffffffffffffffffffffffff1673ffffffffffffffffffffffffffffffffffffffff168152602001908152602001600020549050613110565b6101045490505b919050565b600073ffffffffffffffffffffffffffffffffffffffff168273ffffffffffffffffffffffffffffffffffffffff1614156131b8576040517f08c379a000000000000000000000000000000000000000000000000000000000815260040180806020018281038252601a8152602001807f4275726e2066726f6d20746865207a65726f206164647265737300000000000081525060200191505060405180910390fd5b60008114156131c657613490565b60006131d183613494565b905060006131f06131e185613078565b8461393490919063ffffffff16565b9050600061010260008673ffffffffffffffffffffffffffffffffffffffff1673ffffffffffffffffffffffffffffffffffffffff1681526020019081526020016000205490508181148061324757508160018203145b1561329757600061010260008773ffffffffffffffffffffffffffffffffffffffff1673ffffffffffffffffffffffffffffffffffffffff168152602001908152602001600020819055506133aa565b8181111561333b576132f28261010260008873ffffffffffffffffffffffffffffffffffffffff1673ffffffffffffffffffffffffffffffffffffffff168152602001908152602001600020546129ef90919063ffffffff16565b61010260008773ffffffffffffffffffffffffffffffffffffffff1673ffffffffffffffffffffffffffffffffffffffff168152602001908152602001600020819055506133a9565b6040517f08c379a00000000000000000000000000000000000000000000000000000000081526004018080602001828103825260168152602001807f52656d6f766520657863656564732062616c616e63650000000000000000000081525060200191505060405180910390fd5b5b82156133d2576133c684610105546129ef90919063ffffffff16565b610105819055506133f0565b6133e882610103546129ef90919063ffffffff16565b610103819055505b6134058460fd546129ef90919063ffffffff16565b60fd819055506134208460ff54612cd390919063ffffffff16565b60ff81905550600073ffffffffffffffffffffffffffffffffffffffff168573ffffffffffffffffffffffffffffffffffffffff167fddf252ad1be2c89b69c2b068fc378daa952ba7f163c4a11628f55a4df523b3ef866040518082815260200191505060405180910390a35050505b5050565b6000806134a08361367c565b90508080156135125750600060028111156134b757fe5b61010760008573ffffffffffffffffffffffffffffffffffffffff1673ffffffffffffffffffffffffffffffffffffffff16815260200190815260200160002060009054906101000a900460ff16600281111561351057fe5b145b156135215761352083613a0b565b5b600061010660008573ffffffffffffffffffffffffffffffffffffffff1673ffffffffffffffffffffffffffffffffffffffff1681526020019081526020016000205411915050919050565b60008083141561358057600090506135ed565b600082840290508284828161359157fe5b04146135e8576040517f08c379a0000000000000000000000000000000000000000000000000000000008152600401808060200182810382526021815260200180613c496021913960400191505060405180910390fd5b809150505b92915050565b600080821161366a576040517f08c379a000000000000000000000000000000000000000000000000000000000815260040180806020018281038252601a8152602001807f536166654d6174683a206469766973696f6e206279207a65726f00000000000081525060200191505060405180910390fd5b81838161367357fe5b04905092915050565b600080823b905060008111915050919050565b600060019054906101000a900460ff16806136ae57506136ad612882565b5b806136c4575060008054906101000a900460ff16155b613719576040517f08c379a000000000000000000000000000000000000000000000000000000000815260040180806020018281038252602e815260200180613c1b602e913960400191505060405180910390fd5b60008060019054906101000a900460ff161590508015613769576001600060016101000a81548160ff02191690831515021790555060016000806101000a81548160ff0219169083151502179055505b801561378a5760008060016101000a81548160ff0219169083151502179055505b50565b600060019054906101000a900460ff16806137ac57506137ab612882565b5b806137c2575060008054906101000a900460ff16155b613817576040517f08c379a000000000000000000000000000000000000000000000000000000000815260040180806020018281038252602e815260200180613c1b602e913960400191505060405180910390fd5b60008060019054906101000a900460ff161590508015613867576001600060016101000a81548160ff02191690831515021790555060016000806101000a81548160ff0219169083151502179055505b6000613871613070565b90508060cb60016101000a81548173ffffffffffffffffffffffffffffffffffffffff021916908373ffffffffffffffffffffffffffffffffffffffff1602179055508073ffffffffffffffffffffffffffffffffffffffff16600073ffffffffffffffffffffffffffffffffffffffff167f8be0079c531659141344cd1fd0a4f28419497f9722a3daafe3b4186f6b6457e060405160405180910390a35080156139315760008060016101000a81548160ff0219169083151502179055505b50565b60006139498383670de0b6b3a7640000613b22565b905092915050565b60008383111582906139fe576040517f08c379a00000000000000000000000000000000000000000000000000000000081526004018080602001828103825283818151815260200191508051906020019080838360005b838110156139c35780820151818401526020810190506139a8565b50505050905090810190601f1680156139f05780820380516001836020036101000a031916815260200191505b509250505060405180910390fd5b5082840390509392505050565b600061010660008373ffffffffffffffffffffffffffffffffffffffff1673ffffffffffffffffffffffffffffffffffffffff168152602001908152602001600020541415613b1f576101045461010660008373ffffffffffffffffffffffffffffffffffffffff1673ffffffffffffffffffffffffffffffffffffffff16815260200190815260200160002081905550613aba613aa882611847565b61010554612cd390919063ffffffff16565b61010581905550613b1761010260008373ffffffffffffffffffffffffffffffffffffffff1673ffffffffffffffffffffffffffffffffffffffff16815260200190815260200160002054610103546129ef90919063ffffffff16565b610103819055505b50565b600080613b38848661356d90919063ffffffff16565b9050613b4d83826135f390919063ffffffff16565b9150509392505050565b828054600181600116156101000203166002900490600052602060002090601f016020900481019282601f10613b9857805160ff1916838001178555613bc6565b82800160010185558215613bc6579182015b82811115613bc5578251825591602001919060010190613baa565b5b509050613bd39190613bd7565b5090565b5b80821115613bf0576000816000905550600101613bd8565b509056fe4f776e61626c653a206e6577206f776e657220697320746865207a65726f2061646472657373496e697469616c697a61626c653a20636f6e747261637420697320616c726561647920696e697469616c697a6564536166654d6174683a206d756c7469706c69636174696f6e206f766572666c6f77a2646970667358221220ee5a7bfec04fed6db1cc9ec770fb07e177c5d4b5f31e6e7bfa47d29c855eb3d664736f6c634300060c0033",
  "immutableReferences": {},
  "source": "/**\n    Questions:\n    1. in changeSupply, why we need to first check if _totalSupply > 0?\n */ \n\n// SPDX-License-Identifier: MIT\npragma solidity ^0.6.12;\n\n/**\n * @title USDs Token Contract\n * @dev ERC20 compatible contract for USDs\n * @dev Implements an elastic supply\n * @author Origin Protocol Inc\n */\n\nimport \"@openzeppelin/contracts-upgradeable/proxy/Initializable.sol\";\nimport \"@openzeppelin/contracts-upgradeable/access/OwnableUpgradeable.sol\";\nimport \"@openzeppelin/contracts-upgradeable/math/SafeMathUpgradeable.sol\";\nimport \"@openzeppelin/contracts-upgradeable/utils/AddressUpgradeable.sol\";\n\nimport { InitializableERC20Detailed } from \"../libraries/InitializableERC20Detailed.sol\";\nimport { StableMath } from \"../libraries/StableMath.sol\";\n\n/**\n * NOTE that this is an ERC20 token but the invariant that the sum of\n * balanceOf(x) for all x is not >= totalSupply(). This is a consequence of the\n * rebasing design. Any integrations with USDs should be aware.\n */\n\ncontract USDs is Initializable, InitializableERC20Detailed, OwnableUpgradeable {\n    using SafeMathUpgradeable for uint256;\n    using StableMath for uint256;\n\n    event TotalSupplyUpdated(\n        uint256 totalSupply,\n        uint256 rebasingCredits,\n        uint256 rebasingCreditsPerToken\n    );\n\n    enum RebaseOptions { NotSet, OptOut, OptIn }\n\n    uint256 private constant MAX_SUPPLY = ~uint128(0); // (2^128) - 1\n    uint256 public _totalSupply;    // the total supply of USDs\n    uint256 public _totalMinted;    // the total num of USDs minted so far\n    uint256 public _totalBurnt;     // the total num of USDs burnt so far\n    mapping(address => mapping(address => uint256)) private _allowances;\n    address public vaultAddress;    // the address where (i) all collaterals of USDs protocol reside, e.g. USDT, USDC, ETH, etc and (ii) major actions like USDs minting are initiated\n    // an user's balance of USDs is based on her balance of \"credits.\" \n    // in a rebase process, her USDs balance will change according to her credit balance and the rebase ratio\n    mapping(address => uint256) private _creditBalances; \n    // the total number of credits of the USDs protocol\n    uint256 public rebasingCredits;\n    // the rebase ratio = num of credits / num of USDs\n    uint256 public rebasingCreditsPerToken;\n    // Frozen address/credits are non rebasing (value is held in contracts which\n    // do not receive yield unless they explicitly opt in)\n    uint256 public nonRebasingSupply;   // num of USDs that are not affected by rebase\n    mapping(address => uint256) public nonRebasingCreditsPerToken; // the rebase ratio of non-rebasing accounts just before they opt out\n    mapping(address => RebaseOptions) public rebaseState;          // the rebase state of each account, i.e. opt in or opt out \n\n    function initialize(\n        string calldata _nameArg,\n        string calldata _symbolArg,\n        address _vaultAddress\n    ) external initializer {\n        InitializableERC20Detailed._initialize(_nameArg, _symbolArg, 18);\n        OwnableUpgradeable.__Ownable_init();\n        rebasingCreditsPerToken = 1e18;\n        vaultAddress = _vaultAddress;\n    }\n\n    /**\n     * @dev change the vault address\n     * @param newVault the new vault address\n     */\n    function changeVault(address newVault) external onlyOwner {\n        vaultAddress = newVault;\n    }\n\n    /**\n     * @dev Verifies that the caller is the Savings Manager contract\n     */\n    modifier onlyVault() {\n        require(vaultAddress == msg.sender, \"Caller is not the Vault\");\n        _;\n    }\n\n    /**\n     * @dev check the current total supply of USDs\n     * @return The total supply of USDs.\n     */\n    function totalSupply() public view override returns (uint256) {\n        return _totalSupply;\n    }\n\n    /**\n     * @dev Gets the USDs balance of the specified address.\n     * @param _account Address to query the balance of.\n     * @return A uint256 representing the _amount of base units owned by the\n     *         specified address.\n     */\n    function balanceOf(address _account) public view override returns (uint256) {\n        if (_creditBalances[_account] == 0) return 0;\n        return\n            _creditBalances[_account].divPrecisely(_creditsPerToken(_account));\n    }\n\n    /**\n     * @dev Gets the credits balance of the specified address.\n     * @param _account The address to query the balance of.\n     * @return (uint256, uint256) Credit balance and credits per token of the\n     *         address\n     */\n    function creditsBalanceOf(address _account)\n        public\n        view\n        returns (uint256, uint256)\n    {\n        return (_creditBalances[_account], _creditsPerToken(_account));\n    }\n\n    /**\n     * @dev Transfer tokens to a specified address.\n     * @param _to the address to transfer to.\n     * @param _value the _amount to be transferred.\n     * @return true on success.\n     */\n    function transfer(address _to, uint256 _value) public override returns (bool) {\n        require(_to != address(0), \"Transfer to zero address\");\n        require(\n            _value <= balanceOf(msg.sender),\n            \"Transfer greater than balance\"\n        );\n\n        _executeTransfer(msg.sender, _to, _value);\n\n        emit Transfer(msg.sender, _to, _value);\n\n        return true;\n    }\n\n    /**\n     * @dev Transfer tokens from one address to another.\n     * @param _from The address you want to send tokens from.\n     * @param _to The address you want to transfer to.\n     * @param _value The _amount of tokens to be transferred.\n     */\n    function transferFrom(\n        address _from,\n        address _to,\n        uint256 _value\n    ) public override returns (bool) {\n        require(_to != address(0), \"Transfer to zero address\");\n        require(_value <= balanceOf(_from), \"Transfer greater than balance\");\n\n        // notice: allowance balnce check depends on \"sub\" non-negative check\n        _allowances[_from][msg.sender] = _allowances[_from][msg.sender].sub(\n            _value\n        );\n\n        _executeTransfer(_from, _to, _value);\n\n        emit Transfer(_from, _to, _value);\n\n        return true;\n    }\n\n    /**\n     * @dev Update the count of non rebasing credits in response to a transfer\n     * @param _from The address you want to send tokens from.\n     * @param _to The address you want to transfer to.\n     * @param _value Amount of USDs to transfer\n     */\n    function _executeTransfer(\n        address _from,\n        address _to,\n        uint256 _value\n    ) internal {\n        bool isNonRebasingTo = _isNonRebasingAccount(_to);\n        bool isNonRebasingFrom = _isNonRebasingAccount(_from);\n\n        // Credits deducted and credited might be different due to the\n        // differing creditsPerToken used by each account\n        uint256 creditsCredited = _value.mulTruncate(_creditsPerToken(_to));\n        uint256 creditsDeducted = _value.mulTruncate(_creditsPerToken(_from));\n\n        _creditBalances[_from] = _creditBalances[_from].sub(\n            creditsDeducted,\n            \"Transfer amount exceeds balance\"\n        );\n        _creditBalances[_to] = _creditBalances[_to].add(creditsCredited);\n\n        // update global stats\n        if (isNonRebasingTo && !isNonRebasingFrom) {\n            // Transfer to non-rebasing account from rebasing account, credits\n            // are removed from the non rebasing tally\n            nonRebasingSupply = nonRebasingSupply.add(_value);\n            // Update rebasingCredits by subtracting the deducted amount\n            rebasingCredits = rebasingCredits.sub(creditsDeducted);\n        } else if (!isNonRebasingTo && isNonRebasingFrom) {\n            // Transfer to rebasing account from non-rebasing account\n            // Decreasing non-rebasing credits by the amount that was sent\n            nonRebasingSupply = nonRebasingSupply.sub(_value);\n            // Update rebasingCredits by adding the credited amount\n            rebasingCredits = rebasingCredits.add(creditsCredited);\n        }\n    }\n\n    /**\n     * @dev Function to check the _amount of tokens that an owner has allowed to a _spender.\n     * @param _owner The address which owns the funds.\n     * @param _spender The address which will spend the funds.\n     * @return The number of tokens still available for the _spender.\n     */\n    function allowance(address _owner, address _spender)\n        public\n        view\n        override returns (uint256)\n    {\n        return _allowances[_owner][_spender];\n    }\n\n    /**\n     * @dev Approve the passed address to spend the specified _amount of tokens on behalf of\n     * msg.sender. This method is included for ERC20 compatibility.\n     * increaseAllowance and decreaseAllowance should be used instead.\n     * Changing an allowance with this method brings the risk that someone may transfer both\n     * the old and the new allowance - if they are both greater than zero - if a transfer\n     * transaction is mined before the later approve() call is mined.\n     *\n     * @param _spender The address which will spend the funds.\n     * @param _value The _amount of tokens to be spent.\n     */\n    function approve(address _spender, uint256 _value) public override returns (bool) {\n        _allowances[msg.sender][_spender] = _value;\n        emit Approval(msg.sender, _spender, _value);\n        return true;\n    }\n\n    /**\n     * @dev Increase the _amount of tokens that an owner has allowed to a _spender.\n     * This method should be used instead of approve() to avoid the double approval vulnerability\n     * described above.\n     * @param _spender The address which will spend the funds.\n     * @param _addedValue The _amount of tokens to increase the allowance by.\n     */\n    function increaseAllowance(address _spender, uint256 _addedValue)\n        public\n        override\n        returns (bool)\n    {\n        _allowances[msg.sender][_spender] = _allowances[msg.sender][_spender]\n            .add(_addedValue);\n        emit Approval(msg.sender, _spender, _allowances[msg.sender][_spender]);\n        return true;\n    }\n\n    /**\n     * @dev Decrease the _amount of tokens that an owner has allowed to a _spender.\n     * @param _spender The address which will spend the funds.\n     * @param _subtractedValue The _amount of tokens to decrease the allowance by.\n     */\n    function decreaseAllowance(address _spender, uint256 _subtractedValue)\n        public\n        override\n        returns (bool)\n    {\n        uint256 oldValue = _allowances[msg.sender][_spender];\n        if (_subtractedValue >= oldValue) {\n            _allowances[msg.sender][_spender] = 0;\n        } else {\n            _allowances[msg.sender][_spender] = oldValue.sub(_subtractedValue);\n        }\n        emit Approval(msg.sender, _spender, _allowances[msg.sender][_spender]);\n        return true;\n    }\n\n    /**\n     * @dev Mints new USDs tokens, increasing totalSupply.\n     * @param _account the account address the newly minted USDs will be attributed to\n     * @param _amount the amount of USDs that will be minted\n     */\n    function mint(address _account, uint256 _amount) external onlyVault {\n        _mint(_account, _amount);\n    }\n\n    /**\n     * @dev Creates `_amount` tokens and assigns them to `_account`, increasing\n     * the total supply.\n     *\n     * Emits a {Transfer} event with `from` set to the zero address.\n     *\n     * Requirements\n     *\n     * - `to` cannot be the zero address.\n     * @param _account the account address the newly minted USDs will be attributed to\n     * @param _amount the amount of USDs that will be minted\n     */\n    function _mint(address _account, uint256 _amount) internal override {\n        require(_account != address(0), \"Mint to the zero address\");\n\n        bool isNonRebasingAccount = _isNonRebasingAccount(_account);\n\n        uint256 creditAmount = _amount.mulTruncate(_creditsPerToken(_account));\n        _creditBalances[_account] = _creditBalances[_account].add(creditAmount);\n\n        // notice: If the account is non rebasing and doesn't have a set creditsPerToken\n        //          then set it i.e. this is a mint from a fresh contract\n\n        // update global stats\n        if (isNonRebasingAccount) {\n            nonRebasingSupply = nonRebasingSupply.add(_amount);\n        } else {\n            rebasingCredits = rebasingCredits.add(creditAmount);\n        }\n\n        _totalSupply = _totalSupply.add(_amount);\n        _totalMinted = _totalMinted.add(_amount);\n\n        require(_totalSupply < MAX_SUPPLY, \"Max supply\");\n\n        emit Transfer(address(0), _account, _amount);\n    }\n\n    /**\n     * @dev Burns tokens, decreasing totalSupply.\n     */\n    function burn(address account, uint256 amount) external onlyVault {\n        _burn(account, amount);\n    }\n\n    /**\n     * @dev Destroys `_amount` tokens from `_account`, reducing the\n     * total supply.\n     *\n     * Emits a {Transfer} event with `to` set to the zero address.\n     *\n     * Requirements\n     *\n     * - `_account` cannot be the zero address.\n     * - `_account` must have at least `_amount` tokens.\n     */\n    function _burn(address _account, uint256 _amount) internal override {\n        require(_account != address(0), \"Burn from the zero address\");\n        if (_amount == 0) {\n            return;\n        }\n\n        bool isNonRebasingAccount = _isNonRebasingAccount(_account);\n        uint256 creditAmount = _amount.mulTruncate(_creditsPerToken(_account));\n        uint256 currentCredits = _creditBalances[_account];\n\n        // Remove the credits, burning rounding errors\n        if (\n            currentCredits == creditAmount || currentCredits - 1 == creditAmount\n        ) {\n            // Handle dust from rounding\n            _creditBalances[_account] = 0;\n        } else if (currentCredits > creditAmount) {\n            _creditBalances[_account] = _creditBalances[_account].sub(\n                creditAmount\n            );\n        } else {\n            revert(\"Remove exceeds balance\");\n        }\n\n        // Remove from the credit tallies and non-rebasing supply\n        if (isNonRebasingAccount) {\n            nonRebasingSupply = nonRebasingSupply.sub(_amount);\n        } else {\n            rebasingCredits = rebasingCredits.sub(creditAmount);\n        }\n\n        _totalSupply = _totalSupply.sub(_amount);\n        _totalBurnt = _totalBurnt.add(_amount);\n        emit Transfer(_account, address(0), _amount);\n    }\n\n    /**\n     * @dev Get the credits per token for an account. Returns a fixed amount\n     *      if the account is non-rebasing.\n     * @param _account Address of the account.\n     */\n    function _creditsPerToken(address _account)\n        internal\n        view\n        returns (uint256)\n    {\n        if (nonRebasingCreditsPerToken[_account] != 0) {\n            return nonRebasingCreditsPerToken[_account];\n        } else {\n            return rebasingCreditsPerToken;\n        }\n    }\n\n    /**\n     * @dev Is an account using rebasing accounting or non-rebasing accounting?\n     *      Also, ensure contracts are non-rebasing if they have not opted in.\n     * @param _account Address of the account.\n     */\n    function _isNonRebasingAccount(address _account) internal returns (bool) {\n        bool isContract = AddressUpgradeable.isContract(_account);\n        if (isContract && rebaseState[_account] == RebaseOptions.NotSet) {\n            _ensureRebasingMigration(_account);\n        }\n        return nonRebasingCreditsPerToken[_account] > 0;\n    }\n\n    /**\n     * @dev Ensures internal account for rebasing and non-rebasing credits and\n     *      supply is updated following deployment of frozen yield change.\n     */\n    function _ensureRebasingMigration(address _account) internal {\n        if (nonRebasingCreditsPerToken[_account] == 0) {\n            // Set fixed credits per token for this account\n            nonRebasingCreditsPerToken[_account] = rebasingCreditsPerToken;\n            // Update non rebasing supply\n            nonRebasingSupply = nonRebasingSupply.add(balanceOf(_account));\n            // Update credit tallies\n            rebasingCredits = rebasingCredits.sub(_creditBalances[_account]);\n        }\n    }\n\n    /**\n     * @dev Add a contract address to the non rebasing exception list. I.e. the\n     * address's balance will be part of rebases so the account will be exposed\n     * to upside and downside.\n     */\n    function rebaseOptIn() public onlyOwner {\n        require(_isNonRebasingAccount(msg.sender), \"Account has not opted out\");\n\n        // Convert balance into the same amount at the current exchange rate\n        uint256 newCreditBalance = _creditBalances[msg.sender]\n            .mul(rebasingCreditsPerToken)\n            .div(_creditsPerToken(msg.sender));\n\n        // Decreasing non rebasing supply\n        nonRebasingSupply = nonRebasingSupply.sub(balanceOf(msg.sender));\n\n        _creditBalances[msg.sender] = newCreditBalance;\n\n        // Increase rebasing credits, totalSupply remains unchanged so no\n        // adjustment necessary\n        rebasingCredits = rebasingCredits.add(_creditBalances[msg.sender]);\n\n        rebaseState[msg.sender] = RebaseOptions.OptIn;\n\n        // Delete any fixed credits per token\n        delete nonRebasingCreditsPerToken[msg.sender];\n    }\n\n    /**\n     * @dev Remove a contract address to the non rebasing exception list.\n     */\n    function rebaseOptOut() public onlyOwner {\n        require(!_isNonRebasingAccount(msg.sender), \"Account has not opted in\");\n\n        // Increase non rebasing supply\n        nonRebasingSupply = nonRebasingSupply.add(balanceOf(msg.sender));\n        // Set fixed credits per token\n        nonRebasingCreditsPerToken[msg.sender] = rebasingCreditsPerToken;\n\n        // Decrease rebasing credits, total supply remains unchanged so no\n        // adjustment necessary\n        rebasingCredits = rebasingCredits.sub(_creditBalances[msg.sender]);\n\n        // Mark explicitly opted out of rebasing\n        rebaseState[msg.sender] = RebaseOptions.OptOut;\n    }\n\n    /**\n     * @dev The rebase function. Modify the supply without minting new tokens. This uses a change in\n     *      the exchange rate between \"credits\" and USDs tokens to change balances.\n     * @param _newTotalSupply New total supply of USDs.\n     */\n    function changeSupply(uint256 _newTotalSupply)\n        external\n        onlyVault\n    {\n        require(_totalSupply > 0, \"Cannot increase 0 supply\"); \n\n        // special case: if the total supply remains the same\n        if (_totalSupply == _newTotalSupply) {\n            emit TotalSupplyUpdated(\n                _totalSupply,\n                rebasingCredits,\n                rebasingCreditsPerToken\n            );\n            return;\n        }\n\n        // check if the new total supply surpasses the MAX\n        _totalSupply = _newTotalSupply > MAX_SUPPLY\n            ? MAX_SUPPLY\n            : _newTotalSupply;\n        // calculate the new rebase ratio, i.e. credits per token\n        rebasingCreditsPerToken = rebasingCredits.divPrecisely(\n            _totalSupply.sub(nonRebasingSupply)\n        );\n\n        require(rebasingCreditsPerToken > 0, \"Invalid change in supply\");\n\n        // re-calculate the total supply to accomodate precision error\n        _totalSupply = rebasingCredits\n            .divPrecisely(rebasingCreditsPerToken)\n            .add(nonRebasingSupply);\n\n        emit TotalSupplyUpdated(\n            _totalSupply,\n            rebasingCredits,\n            rebasingCreditsPerToken\n        );\n    }\n}\n",
  "sourcePath": "/Volumes/Work/Sperax/USDs/contracts/token/USDs.sol",
  "compiler": {
    "name": "solc",
    "version": "0.6.12+commit.27d51765.Emscripten.clang"
  },
  "schemaVersion": "3.4.0",
  "updatedAt": "2021-08-20T02:02:29.048Z",
  "devdoc": {
    "kind": "dev",
    "methods": {
      "allowance(address,address)": {
        "details": "Function to check the _amount of tokens that an owner has allowed to a _spender.",
        "params": {
          "_owner": "The address which owns the funds.",
          "_spender": "The address which will spend the funds."
        },
        "returns": {
          "_0": "The number of tokens still available for the _spender."
        }
      },
      "approve(address,uint256)": {
        "details": "Approve the passed address to spend the specified _amount of tokens on behalf of msg.sender. This method is included for ERC20 compatibility. increaseAllowance and decreaseAllowance should be used instead. Changing an allowance with this method brings the risk that someone may transfer both the old and the new allowance - if they are both greater than zero - if a transfer transaction is mined before the later approve() call is mined.",
        "params": {
          "_spender": "The address which will spend the funds.",
          "_value": "The _amount of tokens to be spent."
        }
      },
      "balanceOf(address)": {
        "details": "Gets the USDs balance of the specified address.",
        "params": {
          "_account": "Address to query the balance of."
        },
        "returns": {
          "_0": "A uint256 representing the _amount of base units owned by the         specified address."
        }
      },
      "burn(address,uint256)": {
        "details": "Burns tokens, decreasing totalSupply."
      },
      "changeSupply(uint256)": {
        "details": "The rebase function. Modify the supply without minting new tokens. This uses a change in      the exchange rate between \"credits\" and USDs tokens to change balances.",
        "params": {
          "_newTotalSupply": "New total supply of USDs."
        }
      },
      "changeVault(address)": {
        "details": "change the vault address",
        "params": {
          "newVault": "the new vault address"
        }
      },
      "creditsBalanceOf(address)": {
        "details": "Gets the credits balance of the specified address.",
        "params": {
          "_account": "The address to query the balance of."
        },
        "returns": {
          "_0": "(uint256, uint256) Credit balance and credits per token of the         address"
        }
      },
      "decimals()": {
        "details": "Returns the number of decimals used to get its user representation. For example, if `decimals` equals `2`, a balance of `505` tokens should be displayed to a user as `5,05` (`505 / 10 ** 2`). Tokens usually opt for a value of 18, imitating the relationship between Ether and Wei. NOTE: This information is only used for _display_ purposes: it in no way affects any of the arithmetic of the contract, including {IERC20-balanceOf} and {IERC20-transfer}."
      },
      "decreaseAllowance(address,uint256)": {
        "details": "Decrease the _amount of tokens that an owner has allowed to a _spender.",
        "params": {
          "_spender": "The address which will spend the funds.",
          "_subtractedValue": "The _amount of tokens to decrease the allowance by."
        }
      },
      "increaseAllowance(address,uint256)": {
        "details": "Increase the _amount of tokens that an owner has allowed to a _spender. This method should be used instead of approve() to avoid the double approval vulnerability described above.",
        "params": {
          "_addedValue": "The _amount of tokens to increase the allowance by.",
          "_spender": "The address which will spend the funds."
        }
      },
      "mint(address,uint256)": {
        "details": "Mints new USDs tokens, increasing totalSupply.",
        "params": {
          "_account": "the account address the newly minted USDs will be attributed to",
          "_amount": "the amount of USDs that will be minted"
        }
      },
      "name()": {
        "details": "Returns the name of the token."
      },
      "owner()": {
        "details": "Returns the address of the current owner."
      },
      "rebaseOptIn()": {
        "details": "Add a contract address to the non rebasing exception list. I.e. the address's balance will be part of rebases so the account will be exposed to upside and downside."
      },
      "rebaseOptOut()": {
        "details": "Remove a contract address to the non rebasing exception list."
      },
      "renounceOwnership()": {
        "details": "Leaves the contract without owner. It will not be possible to call `onlyOwner` functions anymore. Can only be called by the current owner. NOTE: Renouncing ownership will leave the contract without an owner, thereby removing any functionality that is only available to the owner."
      },
      "symbol()": {
        "details": "Returns the symbol of the token, usually a shorter version of the name."
      },
      "totalSupply()": {
        "details": "check the current total supply of USDs",
        "returns": {
          "_0": "The total supply of USDs."
        }
      },
      "transfer(address,uint256)": {
        "details": "Transfer tokens to a specified address.",
        "params": {
          "_to": "the address to transfer to.",
          "_value": "the _amount to be transferred."
        },
        "returns": {
          "_0": "true on success."
        }
      },
      "transferFrom(address,address,uint256)": {
        "details": "Transfer tokens from one address to another.",
        "params": {
          "_from": "The address you want to send tokens from.",
          "_to": "The address you want to transfer to.",
          "_value": "The _amount of tokens to be transferred."
        }
      },
      "transferOwnership(address)": {
        "details": "Transfers ownership of the contract to a new account (`newOwner`). Can only be called by the current owner."
      }
    },
    "version": 1
  },
  "userdoc": {
    "kind": "user",
    "methods": {},
    "notice": "NOTE that this is an ERC20 token but the invariant that the sum of balanceOf(x) for all x is not >= totalSupply(). This is a consequence of the rebasing design. Any integrations with USDs should be aware.",
    "version": 1
  }
}