{
  "contractName": "VaultCore",
  "abi": [
    {
      "anonymous": false,
      "inputs": [
        {
          "indexed": false,
          "internalType": "address",
          "name": "_asset",
          "type": "address"
        }
      ],
      "name": "AssetSupported",
      "type": "event"
    },
    {
      "anonymous": false,
      "inputs": [
        {
          "indexed": true,
          "internalType": "address",
          "name": "previousOwner",
          "type": "address"
        },
        {
          "indexed": true,
          "internalType": "address",
          "name": "newOwner",
          "type": "address"
        }
      ],
      "name": "OwnershipTransferred",
      "type": "event"
    },
    {
      "inputs": [],
      "name": "SPATokenAddr",
      "outputs": [
        {
          "internalType": "address",
          "name": "",
          "type": "address"
        }
      ],
      "stateMutability": "view",
      "type": "function"
    },
    {
      "inputs": [],
      "name": "SPAValut",
      "outputs": [
        {
          "internalType": "address",
          "name": "",
          "type": "address"
        }
      ],
      "stateMutability": "view",
      "type": "function"
    },
    {
      "inputs": [],
      "name": "USDsFeeValut",
      "outputs": [
        {
          "internalType": "address",
          "name": "",
          "type": "address"
        }
      ],
      "stateMutability": "view",
      "type": "function"
    },
    {
      "inputs": [],
      "name": "USDsYieldValut",
      "outputs": [
        {
          "internalType": "address",
          "name": "",
          "type": "address"
        }
      ],
      "stateMutability": "view",
      "type": "function"
    },
    {
      "inputs": [],
      "name": "allocatePrecentage",
      "outputs": [
        {
          "internalType": "uint256",
          "name": "",
          "type": "uint256"
        }
      ],
      "stateMutability": "view",
      "type": "function"
    },
    {
      "inputs": [],
      "name": "allocatePrecentage_Prec",
      "outputs": [
        {
          "internalType": "uint256",
          "name": "",
          "type": "uint256"
        }
      ],
      "stateMutability": "view",
      "type": "function"
    },
    {
      "inputs": [
        {
          "internalType": "address",
          "name": "",
          "type": "address"
        }
      ],
      "name": "assetDefaultStrategies",
      "outputs": [
        {
          "internalType": "address",
          "name": "",
          "type": "address"
        }
      ],
      "stateMutability": "view",
      "type": "function"
    },
    {
      "inputs": [],
      "name": "calculateSwapFeeIn",
      "outputs": [
        {
          "internalType": "uint256",
          "name": "",
          "type": "uint256"
        }
      ],
      "stateMutability": "nonpayable",
      "type": "function"
    },
    {
      "inputs": [],
      "name": "capitalAllowed",
      "outputs": [
        {
          "internalType": "bool",
          "name": "",
          "type": "bool"
        }
      ],
      "stateMutability": "view",
      "type": "function"
    },
    {
      "inputs": [],
      "name": "chiInit",
      "outputs": [
        {
          "internalType": "uint256",
          "name": "",
          "type": "uint256"
        }
      ],
      "stateMutability": "view",
      "type": "function"
    },
    {
      "inputs": [],
      "name": "chiMint",
      "outputs": [
        {
          "internalType": "uint256",
          "name": "",
          "type": "uint256"
        }
      ],
      "stateMutability": "nonpayable",
      "type": "function"
    },
    {
      "inputs": [],
      "name": "chiPrec",
      "outputs": [
        {
          "internalType": "uint256",
          "name": "",
          "type": "uint256"
        }
      ],
      "stateMutability": "view",
      "type": "function"
    },
    {
      "inputs": [
        {
          "internalType": "uint256",
          "name": "chiInit_",
          "type": "uint256"
        },
        {
          "internalType": "uint256",
          "name": "blockPassed",
          "type": "uint256"
        },
        {
          "internalType": "uint256",
          "name": "priceUSDs",
          "type": "uint256"
        },
        {
          "internalType": "uint256",
          "name": "precisionUSDs",
          "type": "uint256"
        }
      ],
      "name": "chiTarget",
      "outputs": [
        {
          "internalType": "uint256",
          "name": "chiTarget_",
          "type": "uint256"
        }
      ],
      "stateMutability": "pure",
      "type": "function"
    },
    {
      "inputs": [],
      "name": "chi_alpha",
      "outputs": [
        {
          "internalType": "uint256",
          "name": "",
          "type": "uint256"
        }
      ],
      "stateMutability": "view",
      "type": "function"
    },
    {
      "inputs": [],
      "name": "chi_alpha_Prec",
      "outputs": [
        {
          "internalType": "uint256",
          "name": "",
          "type": "uint256"
        }
      ],
      "stateMutability": "view",
      "type": "function"
    },
    {
      "inputs": [],
      "name": "chi_beta",
      "outputs": [
        {
          "internalType": "uint256",
          "name": "",
          "type": "uint256"
        }
      ],
      "stateMutability": "view",
      "type": "function"
    },
    {
      "inputs": [],
      "name": "chi_beta_Prec",
      "outputs": [
        {
          "internalType": "uint256",
          "name": "",
          "type": "uint256"
        }
      ],
      "stateMutability": "view",
      "type": "function"
    },
    {
      "inputs": [],
      "name": "chi_gamma",
      "outputs": [
        {
          "internalType": "uint256",
          "name": "",
          "type": "uint256"
        }
      ],
      "stateMutability": "view",
      "type": "function"
    },
    {
      "inputs": [],
      "name": "chi_gamma_Prec",
      "outputs": [
        {
          "internalType": "uint256",
          "name": "",
          "type": "uint256"
        }
      ],
      "stateMutability": "view",
      "type": "function"
    },
    {
      "inputs": [],
      "name": "collaValut",
      "outputs": [
        {
          "internalType": "address",
          "name": "",
          "type": "address"
        }
      ],
      "stateMutability": "view",
      "type": "function"
    },
    {
      "inputs": [],
      "name": "mintRedeemAllowed",
      "outputs": [
        {
          "internalType": "bool",
          "name": "",
          "type": "bool"
        }
      ],
      "stateMutability": "view",
      "type": "function"
    },
    {
      "inputs": [
        {
          "internalType": "address",
          "name": "collaAddr",
          "type": "address"
        },
        {
          "internalType": "uint256",
          "name": "valueAmt",
          "type": "uint256"
        },
        {
          "internalType": "uint8",
          "name": "valueType",
          "type": "uint8"
        }
      ],
      "name": "mintView",
      "outputs": [
        {
          "internalType": "uint256",
          "name": "SPABurnAmt",
          "type": "uint256"
        },
        {
          "internalType": "uint256",
          "name": "collaDepAmt",
          "type": "uint256"
        },
        {
          "internalType": "uint256",
          "name": "USDsAmt",
          "type": "uint256"
        },
        {
          "internalType": "uint256",
          "name": "swapFeeAmount",
          "type": "uint256"
        }
      ],
      "stateMutability": "nonpayable",
      "type": "function"
    },
    {
      "inputs": [
        {
          "internalType": "address",
          "name": "collaAddr",
          "type": "address"
        },
        {
          "internalType": "uint256",
          "name": "CollaAmt",
          "type": "uint256"
        }
      ],
      "name": "mintWithCollaView",
      "outputs": [
        {
          "internalType": "uint256",
          "name": "SPABurnAmt",
          "type": "uint256"
        },
        {
          "internalType": "uint256",
          "name": "collaDepAmt",
          "type": "uint256"
        },
        {
          "internalType": "uint256",
          "name": "USDsAmt",
          "type": "uint256"
        },
        {
          "internalType": "uint256",
          "name": "swapFeeAmount",
          "type": "uint256"
        }
      ],
      "stateMutability": "nonpayable",
      "type": "function"
    },
    {
      "inputs": [
        {
          "internalType": "uint256",
          "name": "CollaAmt",
          "type": "uint256"
        }
      ],
      "name": "mintWithEthView",
      "outputs": [
        {
          "internalType": "uint256",
          "name": "SPABurnAmt",
          "type": "uint256"
        },
        {
          "internalType": "uint256",
          "name": "collaDepAmt",
          "type": "uint256"
        },
        {
          "internalType": "uint256",
          "name": "USDsAmt",
          "type": "uint256"
        },
        {
          "internalType": "uint256",
          "name": "swapFeeAmount",
          "type": "uint256"
        }
      ],
      "stateMutability": "nonpayable",
      "type": "function"
    },
    {
      "inputs": [
        {
          "internalType": "address",
          "name": "collaAddr",
          "type": "address"
        },
        {
          "internalType": "uint256",
          "name": "SPAAmt",
          "type": "uint256"
        }
      ],
      "name": "mintWithSPAView",
      "outputs": [
        {
          "internalType": "uint256",
          "name": "SPABurnAmt",
          "type": "uint256"
        },
        {
          "internalType": "uint256",
          "name": "collaDepAmt",
          "type": "uint256"
        },
        {
          "internalType": "uint256",
          "name": "USDsAmt",
          "type": "uint256"
        },
        {
          "internalType": "uint256",
          "name": "swapFeeAmount",
          "type": "uint256"
        }
      ],
      "stateMutability": "nonpayable",
      "type": "function"
    },
    {
      "inputs": [
        {
          "internalType": "address",
          "name": "collaAddr",
          "type": "address"
        },
        {
          "internalType": "uint256",
          "name": "USDsMintAmt",
          "type": "uint256"
        }
      ],
      "name": "mintWithUSDsView",
      "outputs": [
        {
          "internalType": "uint256",
          "name": "SPABurnAmt",
          "type": "uint256"
        },
        {
          "internalType": "uint256",
          "name": "collaDepAmt",
          "type": "uint256"
        },
        {
          "internalType": "uint256",
          "name": "USDsAmt",
          "type": "uint256"
        },
        {
          "internalType": "uint256",
          "name": "swapFeeAmount",
          "type": "uint256"
        }
      ],
      "stateMutability": "nonpayable",
      "type": "function"
    },
    {
      "inputs": [],
      "name": "oracleAddr",
      "outputs": [
        {
          "internalType": "address",
          "name": "",
          "type": "address"
        }
      ],
      "stateMutability": "view",
      "type": "function"
    },
    {
      "inputs": [],
      "name": "owner",
      "outputs": [
        {
          "internalType": "address",
          "name": "",
          "type": "address"
        }
      ],
      "stateMutability": "view",
      "type": "function"
    },
    {
      "inputs": [],
      "name": "renounceOwnership",
      "outputs": [],
      "stateMutability": "nonpayable",
      "type": "function"
    },
    {
      "inputs": [],
      "name": "startBlockHeight",
      "outputs": [
        {
          "internalType": "uint256",
          "name": "",
          "type": "uint256"
        }
      ],
      "stateMutability": "view",
      "type": "function"
    },
    {
      "inputs": [
        {
          "internalType": "address",
          "name": "",
          "type": "address"
        },
        {
          "internalType": "address",
          "name": "",
          "type": "address"
        }
      ],
      "name": "strategiesAllocatedAmt",
      "outputs": [
        {
          "internalType": "uint256",
          "name": "",
          "type": "uint256"
        }
      ],
      "stateMutability": "view",
      "type": "function"
    },
    {
      "inputs": [
        {
          "internalType": "address",
          "name": "",
          "type": "address"
        }
      ],
      "name": "supportedCollat",
      "outputs": [
        {
          "internalType": "bool",
          "name": "",
          "type": "bool"
        }
      ],
      "stateMutability": "view",
      "type": "function"
    },
    {
      "inputs": [
        {
          "internalType": "address",
          "name": "",
          "type": "address"
        }
      ],
      "name": "supportedCollatAmount",
      "outputs": [
        {
          "internalType": "uint256",
          "name": "",
          "type": "uint256"
        }
      ],
      "stateMutability": "view",
      "type": "function"
    },
    {
      "inputs": [],
      "name": "swapFeePresion",
      "outputs": [
        {
          "internalType": "uint256",
          "name": "",
          "type": "uint256"
        }
      ],
      "stateMutability": "view",
      "type": "function"
    },
    {
      "inputs": [],
      "name": "swapFee_A",
      "outputs": [
        {
          "internalType": "uint256",
          "name": "",
          "type": "uint256"
        }
      ],
      "stateMutability": "view",
      "type": "function"
    },
    {
      "inputs": [],
      "name": "swapFee_A_Prec",
      "outputs": [
        {
          "internalType": "uint256",
          "name": "",
          "type": "uint256"
        }
      ],
      "stateMutability": "view",
      "type": "function"
    },
    {
      "inputs": [],
      "name": "swapFee_a",
      "outputs": [
        {
          "internalType": "uint32",
          "name": "",
          "type": "uint32"
        }
      ],
      "stateMutability": "view",
      "type": "function"
    },
    {
      "inputs": [],
      "name": "swapFee_a_Prec",
      "outputs": [
        {
          "internalType": "uint32",
          "name": "",
          "type": "uint32"
        }
      ],
      "stateMutability": "view",
      "type": "function"
    },
    {
      "inputs": [],
      "name": "swapFee_p",
      "outputs": [
        {
          "internalType": "uint256",
          "name": "",
          "type": "uint256"
        }
      ],
      "stateMutability": "view",
      "type": "function"
    },
    {
      "inputs": [],
      "name": "swapFee_p_Prec",
      "outputs": [
        {
          "internalType": "uint256",
          "name": "",
          "type": "uint256"
        }
      ],
      "stateMutability": "view",
      "type": "function"
    },
    {
      "inputs": [],
      "name": "swapFee_theta",
      "outputs": [
        {
          "internalType": "uint256",
          "name": "",
          "type": "uint256"
        }
      ],
      "stateMutability": "view",
      "type": "function"
    },
    {
      "inputs": [],
      "name": "swapFee_theta_Prec",
      "outputs": [
        {
          "internalType": "uint256",
          "name": "",
          "type": "uint256"
        }
      ],
      "stateMutability": "view",
      "type": "function"
    },
    {
      "inputs": [],
      "name": "swapfeeInAllowed",
      "outputs": [
        {
          "internalType": "bool",
          "name": "",
          "type": "bool"
        }
      ],
      "stateMutability": "view",
      "type": "function"
    },
    {
      "inputs": [],
      "name": "swapfeeOutAllowed",
      "outputs": [
        {
          "internalType": "bool",
          "name": "",
          "type": "bool"
        }
      ],
      "stateMutability": "view",
      "type": "function"
    },
    {
      "inputs": [
        {
          "internalType": "address",
          "name": "newOwner",
          "type": "address"
        }
      ],
      "name": "transferOwnership",
      "outputs": [],
      "stateMutability": "nonpayable",
      "type": "function"
    },
    {
      "inputs": [
        {
          "internalType": "bool",
          "name": "_mintRedeemAllowed",
          "type": "bool"
        }
      ],
      "name": "updateMintBurn",
      "outputs": [],
      "stateMutability": "nonpayable",
      "type": "function"
    },
    {
      "inputs": [
        {
          "internalType": "bool",
          "name": "_capitalAllowed",
          "type": "bool"
        }
      ],
      "name": "updateAllocate",
      "outputs": [],
      "stateMutability": "nonpayable",
      "type": "function"
    },
    {
      "inputs": [
        {
          "internalType": "bool",
          "name": "_swapfeeInAllowed",
          "type": "bool"
        }
      ],
      "name": "updateSwapInFee",
      "outputs": [],
      "stateMutability": "nonpayable",
      "type": "function"
    },
    {
      "inputs": [
        {
          "internalType": "bool",
          "name": "_swapfeeOutAllowed",
          "type": "bool"
        }
      ],
      "name": "updateSwapOutFee",
      "outputs": [],
      "stateMutability": "nonpayable",
      "type": "function"
    },
    {
      "inputs": [
        {
          "internalType": "address",
          "name": "_asset",
          "type": "address"
        }
      ],
      "name": "supportAsset",
      "outputs": [],
      "stateMutability": "nonpayable",
      "type": "function"
    },
    {
      "inputs": [
        {
          "internalType": "address",
          "name": "USDsToken_",
          "type": "address"
        },
        {
          "internalType": "address",
          "name": "oracleAddr_",
          "type": "address"
        },
        {
          "internalType": "address",
          "name": "BancorFormulaAddr_",
          "type": "address"
        }
      ],
      "name": "initialize",
      "outputs": [],
      "stateMutability": "nonpayable",
      "type": "function"
    },
    {
      "inputs": [],
      "name": "calculateSwapFeeOut",
      "outputs": [
        {
          "internalType": "uint256",
          "name": "",
          "type": "uint256"
        }
      ],
      "stateMutability": "view",
      "type": "function"
    },
    {
      "inputs": [],
      "name": "chiRedeem",
      "outputs": [
        {
          "internalType": "uint256",
          "name": "chiRedeem_",
          "type": "uint256"
        }
      ],
      "stateMutability": "nonpayable",
      "type": "function"
    },
    {
      "inputs": [
        {
          "internalType": "address",
          "name": "collaAddr",
          "type": "address"
        },
        {
          "internalType": "uint256",
          "name": "USDsMintAmt",
          "type": "uint256"
        }
      ],
      "name": "mintWithUSDs",
      "outputs": [],
      "stateMutability": "nonpayable",
      "type": "function"
    },
    {
      "inputs": [
        {
          "internalType": "address",
          "name": "collaAddr",
          "type": "address"
        },
        {
          "internalType": "uint256",
          "name": "SPAAmt",
          "type": "uint256"
        }
      ],
      "name": "mintWithSPA",
      "outputs": [],
      "stateMutability": "nonpayable",
      "type": "function"
    },
    {
      "inputs": [
        {
          "internalType": "address",
          "name": "collaAddr",
          "type": "address"
        },
        {
          "internalType": "uint256",
          "name": "CollaAmt",
          "type": "uint256"
        }
      ],
      "name": "mintWithColla",
      "outputs": [],
      "stateMutability": "nonpayable",
      "type": "function"
    },
    {
      "inputs": [],
      "name": "mintWithEth",
      "outputs": [],
      "stateMutability": "payable",
      "type": "function"
    },
    {
      "inputs": [
        {
          "internalType": "address",
          "name": "collaAddr",
          "type": "address"
        },
        {
          "internalType": "uint256",
          "name": "USDsAmt",
          "type": "uint256"
        }
      ],
      "name": "redeem",
      "outputs": [],
      "stateMutability": "nonpayable",
      "type": "function"
    },
    {
      "inputs": [
        {
          "internalType": "address",
          "name": "collaAddr",
          "type": "address"
        },
        {
          "internalType": "uint256",
          "name": "USDsAmt",
          "type": "uint256"
        }
      ],
      "name": "redeemView",
      "outputs": [
        {
          "internalType": "uint256",
          "name": "SPAMintAmt",
          "type": "uint256"
        },
        {
          "internalType": "uint256",
          "name": "collaUnlockAmt",
          "type": "uint256"
        },
        {
          "internalType": "uint256",
          "name": "USDsBurntAmt",
          "type": "uint256"
        },
        {
          "internalType": "uint256",
          "name": "swapFeeAmount",
          "type": "uint256"
        }
      ],
      "stateMutability": "nonpayable",
      "type": "function"
    },
    {
      "inputs": [],
      "name": "rebase",
      "outputs": [],
      "stateMutability": "nonpayable",
      "type": "function"
    },
    {
      "inputs": [],
      "name": "collateralRatio",
      "outputs": [
        {
          "internalType": "uint256",
          "name": "ratio",
          "type": "uint256"
        }
      ],
      "stateMutability": "nonpayable",
      "type": "function"
    },
    {
      "inputs": [],
      "name": "totalValueLocked",
      "outputs": [
        {
          "internalType": "uint256",
          "name": "value",
          "type": "uint256"
        }
      ],
      "stateMutability": "view",
      "type": "function"
    },
    {
      "inputs": [],
      "name": "totalValueInVault",
      "outputs": [
        {
          "internalType": "uint256",
          "name": "value",
          "type": "uint256"
        }
      ],
      "stateMutability": "view",
      "type": "function"
    },
    {
      "inputs": [],
      "name": "totalValueInStrategies",
      "outputs": [
        {
          "internalType": "uint256",
          "name": "value",
          "type": "uint256"
        }
      ],
      "stateMutability": "view",
      "type": "function"
    },
    {
      "inputs": [],
      "name": "allocate",
      "outputs": [],
      "stateMutability": "nonpayable",
      "type": "function"
    }
  ],
  "bytecode": "0x608060405234801561001057600080fd5b506174ad80620000216000396000f3fe6080604052600436106103ce5760003560e01c806396fd7db6116101fd578063be002f6e11610118578063e32974fe116100ab578063f62f84301161007a578063f62f843014611341578063faa5f34b14611382578063faeddc90146113ad578063fc703aa6146113d8578063fc9dc4ff14611403576103ce565b8063e32974fe1461125d578063e4a584a71461129a578063ec18154e146112c5578063f2fde38b146112f0576103ce565b8063ceee77ed116100e7578063ceee77ed14611100578063df1750cb14611141578063dfab838d146111c5578063e1da538014611232576103ce565b8063be002f6e14610f92578063c0c53b8b14610fd3578063c290817f14611064578063cc31fccb146110bf576103ce565b8063aa97120111610190578063b017b1831161015f578063b017b18314610ee4578063b4eae1cb14610f11578063baea83c814610f3c578063bbf274be14610f67576103ce565b8063aa97120114610dc1578063ab5d97f414610e25578063abaa991614610eb6578063af14052c14610ecd576103ce565b8063a09caa18116101cc578063a09caa1814610c6a578063a0fda95e14610c97578063a403e4d514610cc2578063a7a63b0a14610d3d576103ce565b806396fd7db614610b82578063974fa61814610bad5780639c11ca7314610c145780639f8fdafe14610c3f576103ce565b806357635e91116102ed5780637e428dac116102805780638da5cb5b1161024f5780638da5cb5b14610a555780638eb1281414610a9657806392b05ae314610ac157806395bb5e3714610afe576103ce565b80637e428dac146109935780637e4e61d7146109be57806382dd391c146109ff5780638714a6d314610a2a576103ce565b80637080460f116102bc5780637080460f146108e7578063715018a614610914578063723863711461092b57806377a41af114610956576103ce565b806357635e91146107d35780635e0d5f13146108005780635f5878951461083157806363a018e31461088c576103ce565b806332ad97ab1161036557806343ee5cdc1161033457806343ee5cdc146106c75780634b521499146106f25780634c75808e1461071d5780634cd55c2d14610782576103ce565b806332ad97ab1461061557806333f8bdfe1461064057806337d87d701461066b5780633f521f8c1461069c576103ce565b80631e9a6950116103a15780631e9a6950146104865780631f207d08146104e1578063276545fe146105655780633028452614610590576103ce565b80630ad641f1146103d357806316e63e30146103dd578063178522641461041e5780631d88023314610449575b600080fd5b6103db61142e565b005b3480156103e957600080fd5b506103f2611535565b604051808273ffffffffffffffffffffffffffffffffffffffff16815260200191505060405180910390f35b34801561042a57600080fd5b5061043361155b565b6040518082815260200191505060405180910390f35b34801561045557600080fd5b506104846004803603602081101561046c57600080fd5b8101908080351515906020019092919050505061156a565b005b34801561049257600080fd5b506104df600480360360408110156104a957600080fd5b81019080803573ffffffffffffffffffffffffffffffffffffffff16906020019092919080359060200190929190505050611636565b005b3480156104ed57600080fd5b5061053a6004803603604081101561050457600080fd5b81019080803573ffffffffffffffffffffffffffffffffffffffff169060200190929190803590602001909291905050506117de565b6040518085815260200184815260200183815260200182815260200194505050505060405180910390f35b34801561057157600080fd5b5061057a611921565b6040518082815260200191505060405180910390f35b34801561059c57600080fd5b506105ff600480360360408110156105b357600080fd5b81019080803573ffffffffffffffffffffffffffffffffffffffff169060200190929190803573ffffffffffffffffffffffffffffffffffffffff169060200190929190505050611926565b6040518082815260200191505060405180910390f35b34801561062157600080fd5b5061062a61194b565b6040518082815260200191505060405180910390f35b34801561064c57600080fd5b50610655611954565b6040518082815260200191505060405180910390f35b34801561067757600080fd5b5061068061195d565b604051808263ffffffff16815260200191505060405180910390f35b3480156106a857600080fd5b506106b1611962565b6040518082815260200191505060405180910390f35b3480156106d357600080fd5b506106dc611967565b6040518082815260200191505060405180910390f35b3480156106fe57600080fd5b50610707611bfd565b6040518082815260200191505060405180910390f35b34801561072957600080fd5b5061076c6004803603602081101561074057600080fd5b81019080803573ffffffffffffffffffffffffffffffffffffffff169060200190929190505050611c04565b6040518082815260200191505060405180910390f35b34801561078e57600080fd5b506107d1600480360360208110156107a557600080fd5b81019080803573ffffffffffffffffffffffffffffffffffffffff169060200190929190505050611c1c565b005b3480156107df57600080fd5b506107e8611e49565b60405180821515815260200191505060405180910390f35b34801561080c57600080fd5b50610815611e5c565b604051808263ffffffff16815260200191505060405180910390f35b34801561083d57600080fd5b5061088a6004803603604081101561085457600080fd5b81019080803573ffffffffffffffffffffffffffffffffffffffff16906020019092919080359060200190929190505050611e61565b005b34801561089857600080fd5b506108e5600480360360408110156108af57600080fd5b81019080803573ffffffffffffffffffffffffffffffffffffffff1690602001909291908035906020019092919050505061200b565b005b3480156108f357600080fd5b506108fc6121b5565b60405180821515815260200191505060405180910390f35b34801561092057600080fd5b506109296121c8565b005b34801561093757600080fd5b50610940612338565b6040518082815260200191505060405180910390f35b34801561096257600080fd5b506109916004803603602081101561097957600080fd5b8101908080351515906020019092919050505061233e565b005b34801561099f57600080fd5b506109a861240a565b6040518082815260200191505060405180910390f35b3480156109ca57600080fd5b506109d3612419565b604051808273ffffffffffffffffffffffffffffffffffffffff16815260200191505060405180910390f35b348015610a0b57600080fd5b50610a1461243f565b6040518082815260200191505060405180910390f35b348015610a3657600080fd5b50610a3f612773565b6040518082815260200191505060405180910390f35b348015610a6157600080fd5b50610a6a612961565b604051808273ffffffffffffffffffffffffffffffffffffffff16815260200191505060405180910390f35b348015610aa257600080fd5b50610aab61298b565b6040518082815260200191505060405180910390f35b348015610acd57600080fd5b50610afc60048036036020811015610ae457600080fd5b81019080803515159060200190929190505050612990565b005b348015610b0a57600080fd5b50610b5760048036036040811015610b2157600080fd5b81019080803573ffffffffffffffffffffffffffffffffffffffff16906020019092919080359060200190929190505050612a5c565b6040518085815260200184815260200183815260200182815260200194505050505060405180910390f35b348015610b8e57600080fd5b50610b97612b9f565b6040518082815260200191505060405180910390f35b348015610bb957600080fd5b50610bfc60048036036020811015610bd057600080fd5b81019080803573ffffffffffffffffffffffffffffffffffffffff169060200190929190505050612ba4565b60405180821515815260200191505060405180910390f35b348015610c2057600080fd5b50610c29612bc4565b6040518082815260200191505060405180910390f35b348015610c4b57600080fd5b50610c54612bc9565b6040518082815260200191505060405180910390f35b348015610c7657600080fd5b50610c7f612bce565b60405180821515815260200191505060405180910390f35b348015610ca357600080fd5b50610cac612be1565b6040518082815260200191505060405180910390f35b348015610cce57600080fd5b50610d1160048036036020811015610ce557600080fd5b81019080803573ffffffffffffffffffffffffffffffffffffffff169060200190929190505050612be6565b604051808273ffffffffffffffffffffffffffffffffffffffff16815260200191505060405180910390f35b348015610d4957600080fd5b50610d9660048036036040811015610d6057600080fd5b81019080803573ffffffffffffffffffffffffffffffffffffffff16906020019092919080359060200190929190505050612c19565b6040518085815260200184815260200183815260200182815260200194505050505060405180910390f35b348015610dcd57600080fd5b50610dfa60048036036020811015610de457600080fd5b8101908080359060200190929190505050612d5c565b6040518085815260200184815260200183815260200182815260200194505050505060405180910390f35b348015610e3157600080fd5b50610e8b60048036036060811015610e4857600080fd5b81019080803573ffffffffffffffffffffffffffffffffffffffff16906020019092919080359060200190929190803560ff169060200190929190505050612ddf565b6040518085815260200184815260200183815260200182815260200194505050505060405180910390f35b348015610ec257600080fd5b50610ecb6137e0565b005b348015610ed957600080fd5b50610ee261386c565b005b348015610ef057600080fd5b50610ef9613925565b60405180821515815260200191505060405180910390f35b348015610f1d57600080fd5b50610f26613938565b6040518082815260200191505060405180910390f35b348015610f4857600080fd5b50610f51613b99565b6040518082815260200191505060405180910390f35b348015610f7357600080fd5b50610f7c613b9e565b6040518082815260200191505060405180910390f35b348015610f9e57600080fd5b50610fa7613ba3565b604051808273ffffffffffffffffffffffffffffffffffffffff16815260200191505060405180910390f35b348015610fdf57600080fd5b5061106260048036036060811015610ff657600080fd5b81019080803573ffffffffffffffffffffffffffffffffffffffff169060200190929190803573ffffffffffffffffffffffffffffffffffffffff169060200190929190803573ffffffffffffffffffffffffffffffffffffffff169060200190929190505050613bc9565b005b34801561107057600080fd5b506110bd6004803603604081101561108757600080fd5b81019080803573ffffffffffffffffffffffffffffffffffffffff1690602001909291908035906020019092919050505061420a565b005b3480156110cb57600080fd5b506110d46143b4565b604051808273ffffffffffffffffffffffffffffffffffffffff16815260200191505060405180910390f35b34801561110c57600080fd5b506111156143da565b604051808273ffffffffffffffffffffffffffffffffffffffff16815260200191505060405180910390f35b34801561114d57600080fd5b5061119a6004803603604081101561116457600080fd5b81019080803573ffffffffffffffffffffffffffffffffffffffff16906020019092919080359060200190929190505050614400565b6040518085815260200184815260200183815260200182815260200194505050505060405180910390f35b3480156111d157600080fd5b5061121c600480360360808110156111e857600080fd5b8101908080359060200190929190803590602001909291908035906020019092919080359060200190929190505050614935565b6040518082815260200191505060405180910390f35b34801561123e57600080fd5b50611247614a8b565b6040518082815260200191505060405180910390f35b34801561126957600080fd5b506112986004803603602081101561128057600080fd5b81019080803515159060200190929190505050614a90565b005b3480156112a657600080fd5b506112af614b5c565b6040518082815260200191505060405180910390f35b3480156112d157600080fd5b506112da614cec565b6040518082815260200191505060405180910390f35b3480156112fc57600080fd5b5061133f6004803603602081101561131357600080fd5b81019080803573ffffffffffffffffffffffffffffffffffffffff169060200190929190505050614cfb565b005b34801561134d57600080fd5b50611356614ef0565b604051808273ffffffffffffffffffffffffffffffffffffffff16815260200191505060405180910390f35b34801561138e57600080fd5b50611397614f16565b6040518082815260200191505060405180910390f35b3480156113b957600080fd5b506113c2614f1b565b6040518082815260200191505060405180910390f35b3480156113e457600080fd5b506113ed614f31565b6040518082815260200191505060405180910390f35b34801561140f57600080fd5b50611418614f36565b6040518082815260200191505060405180910390f35b606560009054906101000a900460ff166114b0576040517f08c379a00000000000000000000000000000000000000000000000000000000081526004018080602001828103825260148152602001807f4d696e7420262072656465656d2070617573656400000000000000000000000081525060200191505060405180910390fd5b60003411611526576040517f08c379a00000000000000000000000000000000000000000000000000000000081526004018080602001828103825260118152602001807f4e65656420746f2070617920457468657200000000000000000000000000000081525060200191505060405180910390fd5b6115336000346003614f3c565b565b606c60009054906101000a900473ffffffffffffffffffffffffffffffffffffffff1681565b60006115656152f3565b905090565b61157261536d565b73ffffffffffffffffffffffffffffffffffffffff16611590612961565b73ffffffffffffffffffffffffffffffffffffffff1614611619576040517f08c379a00000000000000000000000000000000000000000000000000000000081526004018080602001828103825260208152602001807f4f776e61626c653a2063616c6c6572206973206e6f7420746865206f776e657281525060200191505060405180910390fd5b80606560016101000a81548160ff02191690831515021790555050565b606560009054906101000a900460ff166116b8576040517f08c379a00000000000000000000000000000000000000000000000000000000081526004018080602001828103825260148152602001807f4d696e7420262072656465656d2070617573656400000000000000000000000081525060200191505060405180910390fd5b606760008373ffffffffffffffffffffffffffffffffffffffff1673ffffffffffffffffffffffffffffffffffffffff16815260200190815260200160002060009054906101000a900460ff16611777576040517f08c379a00000000000000000000000000000000000000000000000000000000081526004018080602001828103825260188152602001807f436f6c6c61746572616c206e6f7420737570706f72746564000000000000000081525060200191505060405180910390fd5b600081116117d0576040517f08c379a00000000000000000000000000000000000000000000000000000000081526004018080602001828103825260218152602001806173b86021913960400191505060405180910390fd5b6117da8282615375565b5050565b600080600080606760008773ffffffffffffffffffffffffffffffffffffffff1673ffffffffffffffffffffffffffffffffffffffff16815260200190815260200160002060009054906101000a900460ff166118a3576040517f08c379a00000000000000000000000000000000000000000000000000000000081526004018080602001828103825260188152602001807f436f6c6c61746572616c206e6f7420737570706f72746564000000000000000081525060200191505060405180910390fd5b600085116118fc576040517f08c379a00000000000000000000000000000000000000000000000000000000081526004018080602001828103825260218152602001806173b86021913960400191505060405180910390fd5b61190886866001612ddf565b8094508195508296508397505050505092959194509250565b606381565b606b602052816000526040600020602052806000526040600020600091509150505481565b64e8d4a5100081565b64e8d4a5100081565b600c81565b600181565b6000606560029054906101000a900460ff166119865760009050611bfa565b6000606d60009054906101000a900473ffffffffffffffffffffffffffffffffffffffff1673ffffffffffffffffffffffffffffffffffffffff16635abe6c696040518163ffffffff1660e01b8152600401602060405180830381600087803b1580156119f257600080fd5b505af1158015611a06573d6000803e3d6000fd5b505050506040513d6020811015611a1c57600080fd5b810190808051906020019092919050505090506000606d60009054906101000a900473ffffffffffffffffffffffffffffffffffffffff1673ffffffffffffffffffffffffffffffffffffffff1663c36d74976040518163ffffffff1660e01b815260040160206040518083038186803b158015611a9957600080fd5b505afa158015611aad573d6000803e3d6000fd5b505050506040513d6020811015611ac357600080fd5b810190808051906020019092919050505090506000611aff6064611af184606361573c90919063ffffffff16565b6157c290919063ffffffff16565b905082811015611b22576103e8620f424081611b1757fe5b049350505050611bfa565b6000611b4d6001611b3f603287860361573c90919063ffffffff16565b6157c290919063ffffffff16565b90506000611b64828361573c90919063ffffffff16565b90506000611ba285611b9487611b86620f42408761573c90919063ffffffff16565b6157c290919063ffffffff16565b6157c290919063ffffffff16565b90506000611bba6064836157c290919063ffffffff16565b90506000816103e8620f424081611bcd57fe5b04019050620f42408110611bee57620f424098505050505050505050611bfa565b80985050505050505050505b90565b620f424081565b60666020528060005260406000206000915090505481565b611c2461536d565b73ffffffffffffffffffffffffffffffffffffffff16611c42612961565b73ffffffffffffffffffffffffffffffffffffffff1614611ccb576040517f08c379a00000000000000000000000000000000000000000000000000000000081526004018080602001828103825260208152602001807f4f776e61626c653a2063616c6c6572206973206e6f7420746865206f776e657281525060200191505060405180910390fd5b606760008273ffffffffffffffffffffffffffffffffffffffff1673ffffffffffffffffffffffffffffffffffffffff16815260200190815260200160002060009054906101000a900460ff1615611d8b576040517f08c379a00000000000000000000000000000000000000000000000000000000081526004018080602001828103825260178152602001807f417373657420616c726561647920737570706f7274656400000000000000000081525060200191505060405180910390fd5b6001606760008373ffffffffffffffffffffffffffffffffffffffff1673ffffffffffffffffffffffffffffffffffffffff16815260200190815260200160002060006101000a81548160ff0219169083151502179055506069819080600181540180825580915050600190039060005260206000200160009091909190916101000a81548173ffffffffffffffffffffffffffffffffffffffff021916908373ffffffffffffffffffffffffffffffffffffffff16021790555050565b606560009054906101000a900460ff1681565b600a81565b606560009054906101000a900460ff16611ee3576040517f08c379a00000000000000000000000000000000000000000000000000000000081526004018080602001828103825260148152602001807f4d696e7420262072656465656d2070617573656400000000000000000000000081525060200191505060405180910390fd5b606760008373ffffffffffffffffffffffffffffffffffffffff1673ffffffffffffffffffffffffffffffffffffffff16815260200190815260200160002060009054906101000a900460ff16611fa2576040517f08c379a00000000000000000000000000000000000000000000000000000000081526004018080602001828103825260188152602001807f436f6c6c61746572616c206e6f7420737570706f72746564000000000000000081525060200191505060405180910390fd5b60008111611ffb576040517f08c379a00000000000000000000000000000000000000000000000000000000081526004018080602001828103825260218152602001806173b86021913960400191505060405180910390fd5b61200782826000614f3c565b5050565b606560009054906101000a900460ff1661208d576040517f08c379a00000000000000000000000000000000000000000000000000000000081526004018080602001828103825260148152602001807f4d696e7420262072656465656d2070617573656400000000000000000000000081525060200191505060405180910390fd5b606760008373ffffffffffffffffffffffffffffffffffffffff1673ffffffffffffffffffffffffffffffffffffffff16815260200190815260200160002060009054906101000a900460ff1661214c576040517f08c379a00000000000000000000000000000000000000000000000000000000081526004018080602001828103825260188152602001807f436f6c6c61746572616c206e6f7420737570706f72746564000000000000000081525060200191505060405180910390fd5b600081116121a5576040517f08c379a00000000000000000000000000000000000000000000000000000000081526004018080602001828103825260218152602001806173b86021913960400191505060405180910390fd5b6121b182826002614f3c565b5050565b606560039054906101000a900460ff1681565b6121d061536d565b73ffffffffffffffffffffffffffffffffffffffff166121ee612961565b73ffffffffffffffffffffffffffffffffffffffff1614612277576040517f08c379a00000000000000000000000000000000000000000000000000000000081526004018080602001828103825260208152602001807f4f776e61626c653a2063616c6c6572206973206e6f7420746865206f776e657281525060200191505060405180910390fd5b600073ffffffffffffffffffffffffffffffffffffffff16603360009054906101000a900473ffffffffffffffffffffffffffffffffffffffff1673ffffffffffffffffffffffffffffffffffffffff167f8be0079c531659141344cd1fd0a4f28419497f9722a3daafe3b4186f6b6457e060405160405180910390a36000603360006101000a81548173ffffffffffffffffffffffffffffffffffffffff021916908373ffffffffffffffffffffffffffffffffffffffff160217905550565b61020181565b61234661536d565b73ffffffffffffffffffffffffffffffffffffffff16612364612961565b73ffffffffffffffffffffffffffffffffffffffff16146123ed576040517f08c379a00000000000000000000000000000000000000000000000000000000081526004018080602001828103825260208152602001807f4f776e61626c653a2063616c6c6572206973206e6f7420746865206f776e657281525060200191505060405180910390fd5b80606560026101000a81548160ff02191690831515021790555050565b600061241461584b565b905090565b606d60009054906101000a900473ffffffffffffffffffffffffffffffffffffffff1681565b6000606560039054906101000a900460ff1661245e5760009050612770565b6000606d60009054906101000a900473ffffffffffffffffffffffffffffffffffffffff1673ffffffffffffffffffffffffffffffffffffffff16630b71f2166040518163ffffffff1660e01b815260040160206040518083038186803b1580156124c857600080fd5b505afa1580156124dc573d6000803e3d6000fd5b505050506040513d60208110156124f257600080fd5b810190808051906020019092919050505090506000606d60009054906101000a900473ffffffffffffffffffffffffffffffffffffffff1673ffffffffffffffffffffffffffffffffffffffff16631f58c4416040518163ffffffff1660e01b815260040160206040518083038186803b15801561256f57600080fd5b505afa158015612583573d6000803e3d6000fd5b505050506040513d602081101561259957600080fd5b810190808051906020019092919050505090506125d3600a6125c583600c61573c90919063ffffffff16565b6157c290919063ffffffff16565b82116125f1576103e8620f4240816125e757fe5b0492505050612770565b600061261a600a61260c84600c61573c90919063ffffffff16565b6157c290919063ffffffff16565b830390506022811061263457620f42409350505050612770565b600080607460009054906101000a900473ffffffffffffffffffffffffffffffffffffffff1673ffffffffffffffffffffffffffffffffffffffff166332833d516014600186886040518563ffffffff1660e01b8152600401808581526020018481526020018363ffffffff1681526020018263ffffffff168152602001945050505050604080518083038186803b1580156126cf57600080fd5b505afa1580156126e3573d6000803e3d6000fd5b505050506040513d60408110156126f957600080fd5b810190808051906020019092919080519060200190929190505050915091506000612749606461273b620f42408560ff1687901c61573c90919063ffffffff16565b6157c290919063ffffffff16565b9050620f4240811061276657620f42409650505050505050612770565b8096505050505050505b90565b600080606d60009054906101000a900473ffffffffffffffffffffffffffffffffffffffff1673ffffffffffffffffffffffffffffffffffffffff166308432eea6040518163ffffffff1660e01b8152600401602060405180830381600087803b1580156127e057600080fd5b505af11580156127f4573d6000803e3d6000fd5b505050506040513d602081101561280a57600080fd5b810190808051906020019092919050505090506000606d60009054906101000a900473ffffffffffffffffffffffffffffffffffffffff1673ffffffffffffffffffffffffffffffffffffffff1663c36d74976040518163ffffffff1660e01b815260040160206040518083038186803b15801561288757600080fd5b505afa15801561289b573d6000803e3d6000fd5b505050506040513d60208110156128b157600080fd5b8101908080519060200190929190505050905060006128db60725443615bd090919063ffffffff16565b905060006128fd605f606464e8d4a5100002816128f457fe5b04838686614935565b90506000612909613938565b9050808211156129555761294e61293f6001612931848603600161573c90919063ffffffff16565b6157c290919063ffffffff16565b83615c5390919063ffffffff16565b9550612959565b8195505b505050505090565b6000603360009054906101000a900473ffffffffffffffffffffffffffffffffffffffff16905090565b600881565b61299861536d565b73ffffffffffffffffffffffffffffffffffffffff166129b6612961565b73ffffffffffffffffffffffffffffffffffffffff1614612a3f576040517f08c379a00000000000000000000000000000000000000000000000000000000081526004018080602001828103825260208152602001807f4f776e61626c653a2063616c6c6572206973206e6f7420746865206f776e657281525060200191505060405180910390fd5b80606560006101000a81548160ff02191690831515021790555050565b600080600080606760008773ffffffffffffffffffffffffffffffffffffffff1673ffffffffffffffffffffffffffffffffffffffff16815260200190815260200160002060009054906101000a900460ff16612b21576040517f08c379a00000000000000000000000000000000000000000000000000000000081526004018080602001828103825260188152602001807f436f6c6c61746572616c206e6f7420737570706f72746564000000000000000081525060200191505060405180910390fd5b60008511612b7a576040517f08c379a00000000000000000000000000000000000000000000000000000000081526004018080602001828103825260218152602001806173b86021913960400191505060405180910390fd5b612b8686866000612ddf565b8094508195508296508397505050505092959194509250565b600981565b60676020528060005260406000206000915054906101000a900460ff1681565b600181565b600181565b606560029054906101000a900460ff1681565b601481565b60686020528060005260406000206000915054906101000a900473ffffffffffffffffffffffffffffffffffffffff1681565b600080600080606760008773ffffffffffffffffffffffffffffffffffffffff1673ffffffffffffffffffffffffffffffffffffffff16815260200190815260200160002060009054906101000a900460ff16612cde576040517f08c379a00000000000000000000000000000000000000000000000000000000081526004018080602001828103825260188152602001807f436f6c6c61746572616c206e6f7420737570706f72746564000000000000000081525060200191505060405180910390fd5b60008511612d37576040517f08c379a00000000000000000000000000000000000000000000000000000000081526004018080602001828103825260218152602001806173b86021913960400191505060405180910390fd5b612d4386866002612ddf565b8094508195508296508397505050505092959194509250565b60008060008060008511612dbb576040517f08c379a00000000000000000000000000000000000000000000000000000000081526004018080602001828103825260218152602001806173b86021913960400191505060405180910390fd5b612dc86000866003612ddf565b809450819550829650839750505050509193509193565b60008060008060008060038760ff161415612f4357606d60009054906101000a900473ffffffffffffffffffffffffffffffffffffffff1673ffffffffffffffffffffffffffffffffffffffff1663a607a8d96040518163ffffffff1660e01b815260040160206040518083038186803b158015612e5c57600080fd5b505afa158015612e70573d6000803e3d6000fd5b505050506040513d6020811015612e8657600080fd5b81019080805190602001909291905050509150606d60009054906101000a900473ffffffffffffffffffffffffffffffffffffffff1673ffffffffffffffffffffffffffffffffffffffff1663d5b01d436040518163ffffffff1660e01b815260040160206040518083038186803b158015612f0157600080fd5b505afa158015612f15573d6000803e3d6000fd5b505050506040513d6020811015612f2b57600080fd5b810190808051906020019092919050505090506130d0565b606d60009054906101000a900473ffffffffffffffffffffffffffffffffffffffff1673ffffffffffffffffffffffffffffffffffffffff16639f1a442e8a6040518263ffffffff1660e01b8152600401808273ffffffffffffffffffffffffffffffffffffffff16815260200191505060206040518083038186803b158015612fcc57600080fd5b505afa158015612fe0573d6000803e3d6000fd5b505050506040513d6020811015612ff657600080fd5b81019080805190602001909291905050509150606d60009054906101000a900473ffffffffffffffffffffffffffffffffffffffff1673ffffffffffffffffffffffffffffffffffffffff16637d1489fe8a6040518263ffffffff1660e01b8152600401808273ffffffffffffffffffffffffffffffffffffffff16815260200191505060206040518083038186803b15801561309257600080fd5b505afa1580156130a6573d6000803e3d6000fd5b505050506040513d60208110156130bc57600080fd5b810190808051906020019092919050505090505b6000606d60009054906101000a900473ffffffffffffffffffffffffffffffffffffffff1673ffffffffffffffffffffffffffffffffffffffff166312dd85ee6040518163ffffffff1660e01b815260040160206040518083038186803b15801561313a57600080fd5b505afa15801561314e573d6000803e3d6000fd5b505050506040513d602081101561316457600080fd5b810190808051906020019092919050505090506000606d60009054906101000a900473ffffffffffffffffffffffffffffffffffffffff1673ffffffffffffffffffffffffffffffffffffffff1663743db8276040518163ffffffff1660e01b815260040160206040518083038186803b1580156131e157600080fd5b505afa1580156131f5573d6000803e3d6000fd5b505050506040513d602081101561320b57600080fd5b810190808051906020019092919050505090506000613228611967565b905060008c73ffffffffffffffffffffffffffffffffffffffff1663313ce5676040518163ffffffff1660e01b815260040160206040518083038186803b15801561327257600080fd5b505afa158015613286573d6000803e3d6000fd5b505050506040513d602081101561329c57600080fd5b810190808051906020019092919050505060ff16905060008b60ff16141561345f578b975061331d6132dc64e8d4a510008661573c90919063ffffffff16565b61330f856133016132eb614b5c565b64e8d4a51000038d61573c90919063ffffffff16565b61573c90919063ffffffff16565b6157c290919063ffffffff16565b9950600082111561336557613362613353620f4240613345858e61573c90919063ffffffff16565b6157c290919063ffffffff16565b8b615c5390919063ffffffff16565b99505b60006133bc6133828864e8d4a5100061573c90919063ffffffff16565b6133ae886133a0613391614b5c565b8e61573c90919063ffffffff16565b61573c90919063ffffffff16565b6157c290919063ffffffff16565b90506133e76133d5836012615bd090919063ffffffff16565b600a0a826157c290919063ffffffff16565b9950600083111561342f5761342c61341d620f424061340f868e61573c90919063ffffffff16565b6157c290919063ffffffff16565b8b615c5390919063ffffffff16565b99505b613457620f4240613449858c61573c90919063ffffffff16565b6157c290919063ffffffff16565b9750506137d1565b60018b60ff161415613612578b995089975060008211156134ba576134b761349383620f4240615c5390919063ffffffff16565b6134a9620f42408b61573c90919063ffffffff16565b6157c290919063ffffffff16565b97505b6135166134de6134c8614b5c565b64e8d4a51000038561573c90919063ffffffff16565b613508866134fa64e8d4a510008d61573c90919063ffffffff16565b61573c90919063ffffffff16565b6157c290919063ffffffff16565b9750600061356f6135358864e8d4a5100061573c90919063ffffffff16565b61356188613553613544614b5c565b8e61573c90919063ffffffff16565b61573c90919063ffffffff16565b6157c290919063ffffffff16565b905061359a613588836012615bd090919063ffffffff16565b600a0a826157c290919063ffffffff16565b995060008311156135e2576135df6135d0620f42406135c2868e61573c90919063ffffffff16565b6157c290919063ffffffff16565b8b615c5390919063ffffffff16565b99505b61360a620f42406135fc858c61573c90919063ffffffff16565b6157c290919063ffffffff16565b9750506137d0565b60028b60ff161480613627575060038b60ff16145b156137cf578b9850889750600082111561367b5761367861365483620f4240615c5390919063ffffffff16565b61366a620f42408b61573c90919063ffffffff16565b6157c290919063ffffffff16565b97505b60006136a6613694836012615bd090919063ffffffff16565b600a0a8a61573c90919063ffffffff16565b90506136fd6136b3614b5c565b6136ef886136e16136d28c64e8d4a5100061573c90919063ffffffff16565b8661573c90919063ffffffff16565b6157c290919063ffffffff16565b6157c290919063ffffffff16565b985061375b61371a64e8d4a510008761573c90919063ffffffff16565b61374d8661373f613729614b5c565b64e8d4a51000038e61573c90919063ffffffff16565b61573c90919063ffffffff16565b6157c290919063ffffffff16565b9a5060008311156137a3576137a0613791620f4240613783868f61573c90919063ffffffff16565b6157c290919063ffffffff16565b8c615c5390919063ffffffff16565b9a505b6137cb620f42406137bd858c61573c90919063ffffffff16565b6157c290919063ffffffff16565b9750505b5b5b50505050505093509350935093565b606560019054906101000a900460ff16613862576040517f08c379a000000000000000000000000000000000000000000000000000000000815260040180806020018281038252600f8152602001807f416c6c6f6361746520706175736564000000000000000000000000000000000081525060200191505060405180910390fd5b61386a615cdb565b565b61387461536d565b73ffffffffffffffffffffffffffffffffffffffff16613892612961565b73ffffffffffffffffffffffffffffffffffffffff161461391b576040517f08c379a00000000000000000000000000000000000000000000000000000000081526004018080602001828103825260208152602001807f4f776e61626c653a2063616c6c6572206973206e6f7420746865206f776e657281525060200191505060405180910390fd5b613923616111565b565b606560019054906101000a900460ff1681565b60008061394361661b565b90506000607360009054906101000a900473ffffffffffffffffffffffffffffffffffffffff1673ffffffffffffffffffffffffffffffffffffffff166318160ddd6040518163ffffffff1660e01b815260040160206040518083038186803b1580156139af57600080fd5b505afa1580156139c3573d6000803e3d6000fd5b505050506040513d60208110156139d957600080fd5b810190808051906020019092919050505090506000606d60009054906101000a900473ffffffffffffffffffffffffffffffffffffffff1673ffffffffffffffffffffffffffffffffffffffff166308432eea6040518163ffffffff1660e01b8152600401602060405180830381600087803b158015613a5857600080fd5b505af1158015613a6c573d6000803e3d6000fd5b505050506040513d6020811015613a8257600080fd5b810190808051906020019092919050505090506000606d60009054906101000a900473ffffffffffffffffffffffffffffffffffffffff1673ffffffffffffffffffffffffffffffffffffffff1663c36d74976040518163ffffffff1660e01b815260040160206040518083038186803b158015613aff57600080fd5b505afa158015613b13573d6000803e3d6000fd5b505050506040513d6020811015613b2957600080fd5b810190808051906020019092919050505090506000613b6382613b55858761573c90919063ffffffff16565b6157c290919063ffffffff16565b9050613b8f81613b8164e8d4a510008861573c90919063ffffffff16565b6157c290919063ffffffff16565b9550505050505090565b600a81565b606481565b607060009054906101000a900473ffffffffffffffffffffffffffffffffffffffff1681565b600060019054906101000a900460ff1680613be85750613be7616643565b5b80613bfe575060008054906101000a900460ff16155b613c53576040517f08c379a000000000000000000000000000000000000000000000000000000000815260040180806020018281038252602e8152602001806173ff602e913960400191505060405180910390fd5b60008060019054906101000a900460ff161590508015613ca3576001600060016101000a81548160ff02191690831515021790555060016000806101000a81548160ff0219169083151502179055505b613cab616654565b6001606560006101000a81548160ff0219169083151502179055506001606560026101000a81548160ff0219169083151502179055506001606560036101000a81548160ff0219169083151502179055506001606560016101000a81548160ff021916908315150217905550732b607b664a1012ad658b430e03603be1dc83eecc606c60006101000a81548173ffffffffffffffffffffffffffffffffffffffff021916908373ffffffffffffffffffffffffffffffffffffffff16021790555030606e60006101000a81548173ffffffffffffffffffffffffffffffffffffffff021916908373ffffffffffffffffffffffffffffffffffffffff16021790555030606f60006101000a81548173ffffffffffffffffffffffffffffffffffffffff021916908373ffffffffffffffffffffffffffffffffffffffff16021790555030607060006101000a81548173ffffffffffffffffffffffffffffffffffffffff021916908373ffffffffffffffffffffffffffffffffffffffff16021790555030607160006101000a81548173ffffffffffffffffffffffffffffffffffffffff021916908373ffffffffffffffffffffffffffffffffffffffff16021790555060016067600073b7a4f3e9097c08da09517b5ab877f7a917224ede73ffffffffffffffffffffffffffffffffffffffff1673ffffffffffffffffffffffffffffffffffffffff16815260200190815260200160002060006101000a81548160ff021916908315150217905550606973b7a4f3e9097c08da09517b5ab877f7a917224ede9080600181540180825580915050600190039060005260206000200160009091909190916101000a81548173ffffffffffffffffffffffffffffffffffffffff021916908373ffffffffffffffffffffffffffffffffffffffff160217905550600160676000734f96fe3b7a6cf9725f59d353f723c1bdb64ca6aa73ffffffffffffffffffffffffffffffffffffffff1673ffffffffffffffffffffffffffffffffffffffff16815260200190815260200160002060006101000a81548160ff0219169083151502179055506069734f96fe3b7a6cf9725f59d353f723c1bdb64ca6aa9080600181540180825580915050600190039060005260206000200160009091909190916101000a81548173ffffffffffffffffffffffffffffffffffffffff021916908373ffffffffffffffffffffffffffffffffffffffff1602179055506001606760007307de306ff27a2b630b1141956844eb1552b956b573ffffffffffffffffffffffffffffffffffffffff1673ffffffffffffffffffffffffffffffffffffffff16815260200190815260200160002060006101000a81548160ff02191690831515021790555060697307de306ff27a2b630b1141956844eb1552b956b59080600181540180825580915050600190039060005260206000200160009091909190916101000a81548173ffffffffffffffffffffffffffffffffffffffff021916908373ffffffffffffffffffffffffffffffffffffffff16021790555083607360006101000a81548173ffffffffffffffffffffffffffffffffffffffff021916908373ffffffffffffffffffffffffffffffffffffffff16021790555082606d60006101000a81548173ffffffffffffffffffffffffffffffffffffffff021916908373ffffffffffffffffffffffffffffffffffffffff16021790555081607460006101000a81548173ffffffffffffffffffffffffffffffffffffffff021916908373ffffffffffffffffffffffffffffffffffffffff1602179055504360728190555080156142045760008060016101000a81548160ff0219169083151502179055505b50505050565b606560009054906101000a900460ff1661428c576040517f08c379a00000000000000000000000000000000000000000000000000000000081526004018080602001828103825260148152602001807f4d696e7420262072656465656d2070617573656400000000000000000000000081525060200191505060405180910390fd5b606760008373ffffffffffffffffffffffffffffffffffffffff1673ffffffffffffffffffffffffffffffffffffffff16815260200190815260200160002060009054906101000a900460ff1661434b576040517f08c379a00000000000000000000000000000000000000000000000000000000081526004018080602001828103825260188152602001807f436f6c6c61746572616c206e6f7420737570706f72746564000000000000000081525060200191505060405180910390fd5b600081116143a4576040517f08c379a00000000000000000000000000000000000000000000000000000000081526004018080602001828103825260218152602001806173b86021913960400191505060405180910390fd5b6143b082826001614f3c565b5050565b607160009054906101000a900473ffffffffffffffffffffffffffffffffffffffff1681565b606e60009054906101000a900473ffffffffffffffffffffffffffffffffffffffff1681565b6000806000806000606d60009054906101000a900473ffffffffffffffffffffffffffffffffffffffff1673ffffffffffffffffffffffffffffffffffffffff16639f1a442e886040518263ffffffff1660e01b8152600401808273ffffffffffffffffffffffffffffffffffffffff16815260200191505060206040518083038186803b15801561449157600080fd5b505afa1580156144a5573d6000803e3d6000fd5b505050506040513d60208110156144bb57600080fd5b810190808051906020019092919050505090506000606d60009054906101000a900473ffffffffffffffffffffffffffffffffffffffff1673ffffffffffffffffffffffffffffffffffffffff16637d1489fe896040518263ffffffff1660e01b8152600401808273ffffffffffffffffffffffffffffffffffffffff16815260200191505060206040518083038186803b15801561455957600080fd5b505afa15801561456d573d6000803e3d6000fd5b505050506040513d602081101561458357600080fd5b810190808051906020019092919050505090506000606d60009054906101000a900473ffffffffffffffffffffffffffffffffffffffff1673ffffffffffffffffffffffffffffffffffffffff166312dd85ee6040518163ffffffff1660e01b815260040160206040518083038186803b15801561460057600080fd5b505afa158015614614573d6000803e3d6000fd5b505050506040513d602081101561462a57600080fd5b810190808051906020019092919050505090506000606d60009054906101000a900473ffffffffffffffffffffffffffffffffffffffff1673ffffffffffffffffffffffffffffffffffffffff1663743db8276040518163ffffffff1660e01b815260040160206040518083038186803b1580156146a757600080fd5b505afa1580156146bb573d6000803e3d6000fd5b505050506040513d60208110156146d157600080fd5b8101908080519060200190929190505050905060006146ee61243f565b905060008b73ffffffffffffffffffffffffffffffffffffffff1663313ce5676040518163ffffffff1660e01b815260040160206040518083038186803b15801561473857600080fd5b505afa15801561474c573d6000803e3d6000fd5b505050506040513d602081101561476257600080fd5b810190808051906020019092919050505060ff1690506147d461479364e8d4a510008661573c90919063ffffffff16565b6147c66147b7866147a2612773565b64e8d4a510000361573c90919063ffffffff16565b8e61573c90919063ffffffff16565b6157c290919063ffffffff16565b9950600082111561481c5761481961480a620f42406147fc858e61573c90919063ffffffff16565b6157c290919063ffffffff16565b8b615bd090919063ffffffff16565b99505b60006148736148398864e8d4a5100061573c90919063ffffffff16565b61486561485689614848614b5c565b61573c90919063ffffffff16565b8f61573c90919063ffffffff16565b6157c290919063ffffffff16565b905061489e61488c836012615bd090919063ffffffff16565b600a0a826157c290919063ffffffff16565b995060008311156148e6576148e36148d4620f42406148c6868e61573c90919063ffffffff16565b6157c290919063ffffffff16565b8b615bd090919063ffffffff16565b99505b61490e620f4240614900858f61573c90919063ffffffff16565b6157c290919063ffffffff16565b9750614923888d615bd090919063ffffffff16565b98505050505050505092959194509250565b60008061497b64e8d4a5100061496d61020161495f64e8d4a510008a61573c90919063ffffffff16565b61573c90919063ffffffff16565b6157c290919063ffffffff16565b90506000808486106149f7576149db60016149cd8789036149bf898b036149b164e8d4a51000600961573c90919063ffffffff16565b61573c90919063ffffffff16565b61573c90919063ffffffff16565b6157c290919063ffffffff16565b91506149f08289615c5390919063ffffffff16565b9050614a67565b614a4b6001614a3d888803614a2f8a8a03614a2164e8d4a51000600961573c90919063ffffffff16565b61573c90919063ffffffff16565b61573c90919063ffffffff16565b6157c290919063ffffffff16565b9150614a60828961676290919063ffffffff16565b9050809150505b614a7a838261676290919063ffffffff16565b905080945050505050949350505050565b603281565b614a9861536d565b73ffffffffffffffffffffffffffffffffffffffff16614ab6612961565b73ffffffffffffffffffffffffffffffffffffffff1614614b3f576040517f08c379a00000000000000000000000000000000000000000000000000000000081526004018080602001828103825260208152602001807f4f776e61626c653a2063616c6c6572206973206e6f7420746865206f776e657281525060200191505060405180910390fd5b80606560036101000a81548160ff02191690831515021790555050565b600080606d60009054906101000a900473ffffffffffffffffffffffffffffffffffffffff1673ffffffffffffffffffffffffffffffffffffffff166308432eea6040518163ffffffff1660e01b8152600401602060405180830381600087803b158015614bc957600080fd5b505af1158015614bdd573d6000803e3d6000fd5b505050506040513d6020811015614bf357600080fd5b810190808051906020019092919050505090506000606d60009054906101000a900473ffffffffffffffffffffffffffffffffffffffff1673ffffffffffffffffffffffffffffffffffffffff1663c36d74976040518163ffffffff1660e01b815260040160206040518083038186803b158015614c7057600080fd5b505afa158015614c84573d6000803e3d6000fd5b505050506040513d6020811015614c9a57600080fd5b810190808051906020019092919050505090506000614cc460725443615bd090919063ffffffff16565b9050614ce4605f606464e8d4a510000281614cdb57fe5b04828585614935565b935050505090565b6000614cf661661b565b905090565b614d0361536d565b73ffffffffffffffffffffffffffffffffffffffff16614d21612961565b73ffffffffffffffffffffffffffffffffffffffff1614614daa576040517f08c379a00000000000000000000000000000000000000000000000000000000081526004018080602001828103825260208152602001807f4f776e61626c653a2063616c6c6572206973206e6f7420746865206f776e657281525060200191505060405180910390fd5b600073ffffffffffffffffffffffffffffffffffffffff168173ffffffffffffffffffffffffffffffffffffffff161415614e30576040517f08c379a00000000000000000000000000000000000000000000000000000000081526004018080602001828103825260268152602001806173926026913960400191505060405180910390fd5b8073ffffffffffffffffffffffffffffffffffffffff16603360009054906101000a900473ffffffffffffffffffffffffffffffffffffffff1673ffffffffffffffffffffffffffffffffffffffff167f8be0079c531659141344cd1fd0a4f28419497f9722a3daafe3b4186f6b6457e060405160405180910390a380603360006101000a81548173ffffffffffffffffffffffffffffffffffffffff021916908373ffffffffffffffffffffffffffffffffffffffff16021790555050565b606f60009054906101000a900473ffffffffffffffffffffffffffffffffffffffff1681565b600181565b605f606464e8d4a510000281614f2d57fe5b0481565b600181565b60725481565b606560009054906101000a900460ff16614fbe576040517f08c379a00000000000000000000000000000000000000000000000000000000081526004018080602001828103825260148152602001807f4d696e7420262072656465656d2070617573656400000000000000000000000081525060200191505060405180910390fd5b600080600080614fcf878787612ddf565b9350935093509350606c60009054906101000a900473ffffffffffffffffffffffffffffffffffffffff1673ffffffffffffffffffffffffffffffffffffffff166379cc679033866040518363ffffffff1660e01b8152600401808373ffffffffffffffffffffffffffffffffffffffff16815260200182815260200192505050600060405180830381600087803b15801561506a57600080fd5b505af115801561507e573d6000803e3d6000fd5b5050505060038560ff16146150dd576150dc33606e60009054906101000a900473ffffffffffffffffffffffffffffffffffffffff16858a73ffffffffffffffffffffffffffffffffffffffff1661678a909392919063ffffffff16565b5b607360009054906101000a900473ffffffffffffffffffffffffffffffffffffffff1673ffffffffffffffffffffffffffffffffffffffff166340c10f1933846040518363ffffffff1660e01b8152600401808373ffffffffffffffffffffffffffffffffffffffff16815260200182815260200192505050600060405180830381600087803b15801561517057600080fd5b505af1158015615184573d6000803e3d6000fd5b50505050607360009054906101000a900473ffffffffffffffffffffffffffffffffffffffff1673ffffffffffffffffffffffffffffffffffffffff166340c10f19607060009054906101000a900473ffffffffffffffffffffffffffffffffffffffff16836040518363ffffffff1660e01b8152600401808373ffffffffffffffffffffffffffffffffffffffff16815260200182815260200192505050600060405180830381600087803b15801561523d57600080fd5b505af1158015615251573d6000803e3d6000fd5b505050506152a783606660008a73ffffffffffffffffffffffffffffffffffffffff1673ffffffffffffffffffffffffffffffffffffffff16815260200190815260200160002054615c5390919063ffffffff16565b606660008973ffffffffffffffffffffffffffffffffffffffff1673ffffffffffffffffffffffffffffffffffffffff1681526020019081526020016000208190555050505050505050565b600080600090505b606a805490508110156153695761535a61534b606a838154811061531b57fe5b9060005260206000200160009054906101000a900473ffffffffffffffffffffffffffffffffffffffff1661684b565b83615c5390919063ffffffff16565b915080806001019150506152fb565b5090565b600033905090565b606560009054906101000a900460ff166153f7576040517f08c379a00000000000000000000000000000000000000000000000000000000081526004018080602001828103825260148152602001807f4d696e7420262072656465656d2070617573656400000000000000000000000081525060200191505060405180910390fd5b6000806000806154078686614400565b9350935093509350606c60009054906101000a900473ffffffffffffffffffffffffffffffffffffffff1673ffffffffffffffffffffffffffffffffffffffff1663edb561c333866040518363ffffffff1660e01b8152600401808373ffffffffffffffffffffffffffffffffffffffff16815260200182815260200192505050600060405180830381600087803b1580156154a257600080fd5b505af11580156154b6573d6000803e3d6000fd5b505050506154e533848873ffffffffffffffffffffffffffffffffffffffff16616cbb9092919063ffffffff16565b61553783606660008973ffffffffffffffffffffffffffffffffffffffff1673ffffffffffffffffffffffffffffffffffffffff16815260200190815260200160002054615bd090919063ffffffff16565b606660008873ffffffffffffffffffffffffffffffffffffffff1673ffffffffffffffffffffffffffffffffffffffff16815260200190815260200160002081905550607360009054906101000a900473ffffffffffffffffffffffffffffffffffffffff1673ffffffffffffffffffffffffffffffffffffffff16639dc29fac33846040518363ffffffff1660e01b8152600401808373ffffffffffffffffffffffffffffffffffffffff16815260200182815260200192505050600060405180830381600087803b15801561560d57600080fd5b505af1158015615621573d6000803e3d6000fd5b50505050607360009054906101000a900473ffffffffffffffffffffffffffffffffffffffff1673ffffffffffffffffffffffffffffffffffffffff166323b872dd33607060009054906101000a900473ffffffffffffffffffffffffffffffffffffffff16846040518463ffffffff1660e01b8152600401808473ffffffffffffffffffffffffffffffffffffffff1681526020018373ffffffffffffffffffffffffffffffffffffffff1681526020018281526020019350505050602060405180830381600087803b1580156156f857600080fd5b505af115801561570c573d6000803e3d6000fd5b505050506040513d602081101561572257600080fd5b810190808051906020019092919050505050505050505050565b60008083141561574f57600090506157bc565b600082840290508284828161576057fe5b04146157b7576040517f08c379a000000000000000000000000000000000000000000000000000000000815260040180806020018281038252602181526020018061742d6021913960400191505060405180910390fd5b809150505b92915050565b6000808211615839576040517f08c379a000000000000000000000000000000000000000000000000000000000815260040180806020018281038252601a8152602001807f536166654d6174683a206469766973696f6e206279207a65726f00000000000081525060200191505060405180910390fd5b81838161584257fe5b04905092915050565b6000806000806000806000805b606980549050811015615bc6576069818154811061587257fe5b9060005260206000200160009054906101000a900473ffffffffffffffffffffffffffffffffffffffff169650606d60009054906101000a900473ffffffffffffffffffffffffffffffffffffffff1673ffffffffffffffffffffffffffffffffffffffff16639f1a442e886040518263ffffffff1660e01b8152600401808273ffffffffffffffffffffffffffffffffffffffff16815260200191505060206040518083038186803b15801561592857600080fd5b505afa15801561593c573d6000803e3d6000fd5b505050506040513d602081101561595257600080fd5b81019080805190602001909291905050509550606d60009054906101000a900473ffffffffffffffffffffffffffffffffffffffff1673ffffffffffffffffffffffffffffffffffffffff16637d1489fe886040518263ffffffff1660e01b8152600401808273ffffffffffffffffffffffffffffffffffffffff16815260200191505060206040518083038186803b1580156159ee57600080fd5b505afa158015615a02573d6000803e3d6000fd5b505050506040513d6020811015615a1857600080fd5b810190808051906020019092919050505094508673ffffffffffffffffffffffffffffffffffffffff1663313ce5676040518163ffffffff1660e01b815260040160206040518083038186803b158015615a7157600080fd5b505afa158015615a85573d6000803e3d6000fd5b505050506040513d6020811015615a9b57600080fd5b810190808051906020019092919050505060ff169350615b7785615b69888a73ffffffffffffffffffffffffffffffffffffffff166370a08231306040518263ffffffff1660e01b8152600401808273ffffffffffffffffffffffffffffffffffffffff16815260200191505060206040518083038186803b158015615b2057600080fd5b505afa158015615b34573d6000803e3d6000fd5b505050506040513d6020811015615b4a57600080fd5b810190808051906020019092919050505061573c90919063ffffffff16565b6157c290919063ffffffff16565b9250615ba2615b90856012615bd090919063ffffffff16565b600a0a8461573c90919063ffffffff16565b9150615bb78289615c5390919063ffffffff16565b97508080600101915050615858565b5050505050505090565b600082821115615c48576040517f08c379a000000000000000000000000000000000000000000000000000000000815260040180806020018281038252601e8152602001807f536166654d6174683a207375627472616374696f6e206f766572666c6f77000081525060200191505060405180910390fd5b818303905092915050565b600080828401905083811015615cd1576040517f08c379a000000000000000000000000000000000000000000000000000000000815260040180806020018281038252601b8152602001807f536166654d6174683a206164646974696f6e206f766572666c6f77000000000081525060200191505060405180910390fd5b8091505092915050565b60005b60698054905081101561610e57600060698281548110615cfa57fe5b9060005260206000200160009054906101000a900473ffffffffffffffffffffffffffffffffffffffff169050600081905060008173ffffffffffffffffffffffffffffffffffffffff166370a08231306040518263ffffffff1660e01b8152600401808273ffffffffffffffffffffffffffffffffffffffff16815260200191505060206040518083038186803b158015615d9557600080fd5b505afa158015615da9573d6000803e3d6000fd5b505050506040513d6020811015615dbf57600080fd5b8101908080519060200190929190505050905060006066600060698781548110615de557fe5b9060005260206000200160009054906101000a900473ffffffffffffffffffffffffffffffffffffffff1673ffffffffffffffffffffffffffffffffffffffff1673ffffffffffffffffffffffffffffffffffffffff1681526020019081526020016000205490506000615e8883615e7a600a615e6c60088761573c90919063ffffffff16565b6157c290919063ffffffff16565b61676290919063ffffffff16565b9150506000606860008773ffffffffffffffffffffffffffffffffffffffff1673ffffffffffffffffffffffffffffffffffffffff16815260200190815260200160002060009054906101000a900473ffffffffffffffffffffffffffffffffffffffff169050600073ffffffffffffffffffffffffffffffffffffffff168173ffffffffffffffffffffffffffffffffffffffff1614158015615f2c5750600082115b156160fb576000819050615f6181848873ffffffffffffffffffffffffffffffffffffffff16616cbb9092919063ffffffff16565b8073ffffffffffffffffffffffffffffffffffffffff166347e7ef2488856040518363ffffffff1660e01b8152600401808373ffffffffffffffffffffffffffffffffffffffff16815260200182815260200192505050600060405180830381600087803b158015615fd257600080fd5b505af1158015615fe6573d6000803e3d6000fd5b5050505061607983606b60008a73ffffffffffffffffffffffffffffffffffffffff1673ffffffffffffffffffffffffffffffffffffffff16815260200190815260200160002060008573ffffffffffffffffffffffffffffffffffffffff1673ffffffffffffffffffffffffffffffffffffffff16815260200190815260200160002054615c5390919063ffffffff16565b606b60008973ffffffffffffffffffffffffffffffffffffffff1673ffffffffffffffffffffffffffffffffffffffff16815260200190815260200160002060008473ffffffffffffffffffffffffffffffffffffffff1673ffffffffffffffffffffffffffffffffffffffff16815260200190815260200160002081905550505b5050505050508080600101915050615cde565b50565b600080600080600080600080600090505b606980549050811015616611576069818154811061613c57fe5b9060005260206000200160009054906101000a900473ffffffffffffffffffffffffffffffffffffffff16955060005b606a8054905081101561660357606a818154811061618657fe5b9060005260206000200160009054906101000a900473ffffffffffffffffffffffffffffffffffffffff169850889750606b60008873ffffffffffffffffffffffffffffffffffffffff1673ffffffffffffffffffffffffffffffffffffffff16815260200190815260200160002060008a73ffffffffffffffffffffffffffffffffffffffff1673ffffffffffffffffffffffffffffffffffffffff1681526020019081526020016000205495506162e9868973ffffffffffffffffffffffffffffffffffffffff16635f5152268a6040518263ffffffff1660e01b8152600401808273ffffffffffffffffffffffffffffffffffffffff16815260200191505060206040518083038186803b1580156162a057600080fd5b505afa1580156162b4573d6000803e3d6000fd5b505050506040513d60208110156162ca57600080fd5b810190808051906020019092919050505061676290919063ffffffff16565b9050809550506000851115616569578773ffffffffffffffffffffffffffffffffffffffff1663d9caed123089886040518463ffffffff1660e01b8152600401808473ffffffffffffffffffffffffffffffffffffffff1681526020018373ffffffffffffffffffffffffffffffffffffffff1681526020018281526020019350505050600060405180830381600087803b15801561638757600080fd5b505af115801561639b573d6000803e3d6000fd5b505050506000806000806163b18b8a6002612ddf565b9350935093509350606c60009054906101000a900473ffffffffffffffffffffffffffffffffffffffff1673ffffffffffffffffffffffffffffffffffffffff166379cc6790606f60009054906101000a900473ffffffffffffffffffffffffffffffffffffffff16866040518363ffffffff1660e01b8152600401808373ffffffffffffffffffffffffffffffffffffffff16815260200182815260200192505050600060405180830381600087803b15801561646e57600080fd5b505af1158015616482573d6000803e3d6000fd5b5050505061654d8161653f84607360009054906101000a900473ffffffffffffffffffffffffffffffffffffffff1673ffffffffffffffffffffffffffffffffffffffff16633eaaf86b6040518163ffffffff1660e01b815260040160206040518083038186803b1580156164f657600080fd5b505afa15801561650a573d6000803e3d6000fd5b505050506040513d602081101561652057600080fd5b8101908080519060200190929190505050615c5390919063ffffffff16565b615c5390919063ffffffff16565b97506165628888615c5390919063ffffffff16565b9650505050505b607360009054906101000a900473ffffffffffffffffffffffffffffffffffffffff1673ffffffffffffffffffffffffffffffffffffffff166339a7919f846040518263ffffffff1660e01b815260040180828152602001915050600060405180830381600087803b1580156165de57600080fd5b505af11580156165f2573d6000803e3d6000fd5b50505050808060010191505061616c565b508080600101915050616122565b5050505050505050565b600061663e6166286152f3565b61663061584b565b615c5390919063ffffffff16565b905090565b600061664e30616d5d565b15905090565b600060019054906101000a900460ff16806166735750616672616643565b5b80616689575060008054906101000a900460ff16155b6166de576040517f08c379a000000000000000000000000000000000000000000000000000000000815260040180806020018281038252602e8152602001806173ff602e913960400191505060405180910390fd5b60008060019054906101000a900460ff16159050801561672e576001600060016101000a81548160ff02191690831515021790555060016000806101000a81548160ff0219169083151502179055505b616736616d70565b61673e616e6e565b801561675f5760008060016101000a81548160ff0219169083151502179055505b50565b600080838311156167795760008091509150616783565b6001838503915091505b9250929050565b616845846323b872dd60e01b858585604051602401808473ffffffffffffffffffffffffffffffffffffffff1681526020018373ffffffffffffffffffffffffffffffffffffffff1681526020018281526020019350505050604051602081830303815290604052907bffffffffffffffffffffffffffffffffffffffffffffffffffffffff19166020820180517bffffffffffffffffffffffffffffffffffffffffffffffffffffffff8381831617835250505050617015565b50505050565b6000808290506000806000905060008060008060005b606980549050811015616cae576069818154811061687b57fe5b9060005260206000200160009054906101000a900473ffffffffffffffffffffffffffffffffffffffff1696508773ffffffffffffffffffffffffffffffffffffffff1663aa388af6886040518263ffffffff1660e01b8152600401808273ffffffffffffffffffffffffffffffffffffffff16815260200191505060206040518083038186803b15801561690f57600080fd5b505afa158015616923573d6000803e3d6000fd5b505050506040513d602081101561693957600080fd5b810190808051906020019092919050505015616ca157606d60009054906101000a900473ffffffffffffffffffffffffffffffffffffffff1673ffffffffffffffffffffffffffffffffffffffff16639f1a442e886040518263ffffffff1660e01b8152600401808273ffffffffffffffffffffffffffffffffffffffff16815260200191505060206040518083038186803b1580156169d857600080fd5b505afa1580156169ec573d6000803e3d6000fd5b505050506040513d6020811015616a0257600080fd5b81019080805190602001909291905050509550606d60009054906101000a900473ffffffffffffffffffffffffffffffffffffffff1673ffffffffffffffffffffffffffffffffffffffff16637d1489fe886040518263ffffffff1660e01b8152600401808273ffffffffffffffffffffffffffffffffffffffff16815260200191505060206040518083038186803b158015616a9e57600080fd5b505afa158015616ab2573d6000803e3d6000fd5b505050506040513d6020811015616ac857600080fd5b810190808051906020019092919050505094508673ffffffffffffffffffffffffffffffffffffffff1663313ce5676040518163ffffffff1660e01b815260040160206040518083038186803b158015616b2157600080fd5b505afa158015616b35573d6000803e3d6000fd5b505050506040513d6020811015616b4b57600080fd5b810190808051906020019092919050505060ff169350616c5e85616c50888b73ffffffffffffffffffffffffffffffffffffffff16635f51522660698781548110616b9257fe5b9060005260206000200160009054906101000a900473ffffffffffffffffffffffffffffffffffffffff166040518263ffffffff1660e01b8152600401808273ffffffffffffffffffffffffffffffffffffffff16815260200191505060206040518083038186803b158015616c0757600080fd5b505afa158015616c1b573d6000803e3d6000fd5b505050506040513d6020811015616c3157600080fd5b810190808051906020019092919050505061573c90919063ffffffff16565b6157c290919063ffffffff16565b9250616c89616c77856012615bd090919063ffffffff16565b600a0a8461573c90919063ffffffff16565b9150616c9e828a615c5390919063ffffffff16565b98505b8080600101915050616861565b5050505050505050919050565b616d588363a9059cbb60e01b8484604051602401808373ffffffffffffffffffffffffffffffffffffffff16815260200182815260200192505050604051602081830303815290604052907bffffffffffffffffffffffffffffffffffffffffffffffffffffffff19166020820180517bffffffffffffffffffffffffffffffffffffffffffffffffffffffff8381831617835250505050617015565b505050565b600080823b905060008111915050919050565b600060019054906101000a900460ff1680616d8f5750616d8e616643565b5b80616da5575060008054906101000a900460ff16155b616dfa576040517f08c379a000000000000000000000000000000000000000000000000000000000815260040180806020018281038252602e8152602001806173ff602e913960400191505060405180910390fd5b60008060019054906101000a900460ff161590508015616e4a576001600060016101000a81548160ff02191690831515021790555060016000806101000a81548160ff0219169083151502179055505b8015616e6b5760008060016101000a81548160ff0219169083151502179055505b50565b600060019054906101000a900460ff1680616e8d5750616e8c616643565b5b80616ea3575060008054906101000a900460ff16155b616ef8576040517f08c379a000000000000000000000000000000000000000000000000000000000815260040180806020018281038252602e8152602001806173ff602e913960400191505060405180910390fd5b60008060019054906101000a900460ff161590508015616f48576001600060016101000a81548160ff02191690831515021790555060016000806101000a81548160ff0219169083151502179055505b6000616f5261536d565b905080603360006101000a81548173ffffffffffffffffffffffffffffffffffffffff021916908373ffffffffffffffffffffffffffffffffffffffff1602179055508073ffffffffffffffffffffffffffffffffffffffff16600073ffffffffffffffffffffffffffffffffffffffff167f8be0079c531659141344cd1fd0a4f28419497f9722a3daafe3b4186f6b6457e060405160405180910390a35080156170125760008060016101000a81548160ff0219169083151502179055505b50565b6060617077826040518060400160405280602081526020017f5361666545524332303a206c6f772d6c6576656c2063616c6c206661696c65648152508573ffffffffffffffffffffffffffffffffffffffff166171049092919063ffffffff16565b90506000815111156170ff5780806020019051602081101561709857600080fd5b81019080805190602001909291905050506170fe576040517f08c379a000000000000000000000000000000000000000000000000000000000815260040180806020018281038252602a81526020018061744e602a913960400191505060405180910390fd5b5b505050565b6060617113848460008561711c565b90509392505050565b606082471015617177576040517f08c379a00000000000000000000000000000000000000000000000000000000081526004018080602001828103825260268152602001806173d96026913960400191505060405180910390fd5b61718085616d5d565b6171f2576040517f08c379a000000000000000000000000000000000000000000000000000000000815260040180806020018281038252601d8152602001807f416464726573733a2063616c6c20746f206e6f6e2d636f6e747261637400000081525060200191505060405180910390fd5b600060608673ffffffffffffffffffffffffffffffffffffffff1685876040518082805190602001908083835b60208310617242578051825260208201915060208101905060208303925061721f565b6001836020036101000a03801982511681845116808217855250505050505090500191505060006040518083038185875af1925050503d80600081146172a4576040519150601f19603f3d011682016040523d82523d6000602084013e6172a9565b606091505b50915091506172b98282866172c5565b92505050949350505050565b606083156172d55782905061738a565b6000835111156172e85782518084602001fd5b816040517f08c379a00000000000000000000000000000000000000000000000000000000081526004018080602001828103825283818151815260200191508051906020019080838360005b8381101561734f578082015181840152602081019050617334565b50505050905090810190601f16801561737c5780820380516001836020036101000a031916815260200191505b509250505060405180910390fd5b939250505056fe4f776e61626c653a206e6577206f776e657220697320746865207a65726f2061646472657373416d6f756e74206e6565647320746f2062652067726561746572207468616e2030416464726573733a20696e73756666696369656e742062616c616e636520666f722063616c6c496e697469616c697a61626c653a20636f6e747261637420697320616c726561647920696e697469616c697a6564536166654d6174683a206d756c7469706c69636174696f6e206f766572666c6f775361666545524332303a204552433230206f7065726174696f6e20646964206e6f742073756363656564a2646970667358221220888f5afa3807f453e8f4163de36734e3dfe5653741d74590eb4d16a41c8d300464736f6c634300060c0033",
  "immutableReferences": {},
  "source": "//TO-DO: check source file of SafeMathUpgradeable regarding trySub() (and the usage of \"unchecked\")\n//TO-DO: check ERC20Upgradeable vs ERC20Upgradeable\n// Note: assuming when exponentWithPrec >= 2^32, toReturn >= swapFeePresion () (TO-DO: work out the number)\n//TO-DO: AAVE in progress\n//TO-DO: deal with assetDefaultStrategies\n//TO-DO: what happen when we redeem aTokens\n//TO-DO: whether _redeem needs \"SafeTransferFrom\" and how\n//TO-DO: check all user inputs, especially mintView\npragma solidity ^0.6.12;\n\nimport \"@openzeppelin/contracts-upgradeable/proxy/Initializable.sol\";\nimport \"@openzeppelin/contracts-upgradeable/access/OwnableUpgradeable.sol\";\nimport \"@openzeppelin/contracts-upgradeable/math/SafeMathUpgradeable.sol\";\nimport \"@openzeppelin/contracts-upgradeable/utils/AddressUpgradeable.sol\";\nimport \"@openzeppelin/contracts-upgradeable/token/ERC20/SafeERC20Upgradeable.sol\";\nimport \"@openzeppelin/contracts-upgradeable/token/ERC20/ERC20Upgradeable.sol\";\n\nimport \"../libraries/MyMath.sol\";\nimport \"../libraries/Helpers.sol\";\nimport \"../interfaces/IOracle.sol\";\nimport \"../interfaces/ISperaxToken.sol\";\nimport \"../interfaces/IStrategy.sol\";\nimport \"../interfaces/IVault.sol\";\nimport \"../libraries/StableMath.sol\";\nimport { USDs } from \"../token/USDs.sol\";\nimport { VaultStorage } from \"./VaultStorage.sol\";\nimport { BancorFormula } from \"../libraries/BancorFormula.sol\";\n\ncontract VaultCore is Initializable, OwnableUpgradeable, VaultStorage {\n\tusing SafeERC20Upgradeable for ERC20Upgradeable;\n\tusing SafeMathUpgradeable for uint;\n\tusing MyMath for uint;\n\tusing StableMath for uint;\n\n\tmodifier whenMintRedeemAllowed {\n\t\trequire(mintRedeemAllowed, \"Mint & redeem paused\");\n\t\t_;\n\t}\n\t/**\n\t * @dev check if re-investment of collaterals is allowed\n\t */\n\tmodifier whenNotCapitalPaused {\n\t\trequire(capitalAllowed, \"Allocate paused\");\n\t\t_;\n\t}\n\t/**\n\t * @dev disable USDs mint & redeem\n\t */\n\tfunction updateMintBurn(bool _mintRedeemAllowed) external onlyOwner {\n\t\tmintRedeemAllowed = _mintRedeemAllowed;\n\t}\n\t/**\n\t * @dev disable collateral re-investment\n\t */\n\tfunction updateAllocate(bool _capitalAllowed) external onlyOwner {\n\t\tcapitalAllowed = _capitalAllowed;\n\t}\n\t/**\n\t * @dev disable swapInFee, i.e. mint becomes free\n\t */\n\tfunction updateSwapInFee(bool _swapfeeInAllowed) external onlyOwner {\n\t\tswapfeeInAllowed = _swapfeeInAllowed;\n\t}\n\t/**\n\t * @dev disable swapOutFee, i.e. redeem becomes free\n\t */\n\tfunction updateSwapOutFee(bool _swapfeeOutAllowed) external onlyOwner {\n\t\tswapfeeOutAllowed = _swapfeeOutAllowed;\n\t}\n\n\t/**\n\t * @dev add a new supported collateral\n\t * @param _asset the address of the new supported collateral\n\t */\n\tfunction supportAsset(address _asset) external onlyOwner {\n\t\trequire(!supportedCollat[_asset], \"Asset already supported\");\n\t\tsupportedCollat[_asset] = true;\n\t\tallCollat.push(_asset);\n\t\t// TO-DO: add Oracle support here;\n\t}\n\n\t//INITIALIZER\n\n\tfunction initialize(address USDsToken_, address oracleAddr_, address BancorFormulaAddr_) public initializer {\n\t\tOwnableUpgradeable.__Ownable_init();\n\t\t// Initialize variables\n\t\tmintRedeemAllowed = true;\n\t\tswapfeeInAllowed = true;\n\t\tswapfeeOutAllowed = true;\n\t\tcapitalAllowed = true;\n\t\tSPATokenAddr = 0x2B607b664A1012aD658b430E03603be1DC83EeCc;\t// SPA on Kovan\n\n\t\tcollaValut = address(this);\n\t\tSPAValut = address(this);\n\t\tUSDsFeeValut = address(this);\n\t\tUSDsYieldValut = address(this);\t// TO DELETE\n\t\tsupportedCollat[0xb7a4F3E9097C08dA09517b5aB877F7a917224ede] = true;\t// USDC on Kovan\n\t\tallCollat.push(0xb7a4F3E9097C08dA09517b5aB877F7a917224ede);\n\t\tsupportedCollat[0x4F96Fe3b7A6Cf9725f59d353F723c1bDb64CA6Aa] = true;\t// Dai on Kovan\n\t\tallCollat.push(0x4F96Fe3b7A6Cf9725f59d353F723c1bDb64CA6Aa);\n\t\tsupportedCollat[0x07de306FF27a2B630B1141956844eB1552B956B5] = true;\t// USDT on Kovan\n\t\tallCollat.push(0x07de306FF27a2B630B1141956844eB1552B956B5);\n\t\tUSDsInstance = USDs(USDsToken_);\n\t\toracleAddr = oracleAddr_;\n\t\tBancorInstance = BancorFormula(BancorFormulaAddr_);\n\t\tstartBlockHeight = block.number;\n\t}\n\n\t// Note: need to be less than (2^32 - 1)\n\t// Note: assuming when exponentWithPrec >= 2^32, toReturn >= swapFeePresion () (TO-DO: work out the number)\n\t/**\n\t * @dev calculate the OutSwap fee, i.e. fees for redeeming USDs\n\t * @return the OutSwap fee \n\t */\n\tfunction calculateSwapFeeOut() public view returns (uint) {\n\t\t// if the OutSwap fee is diabled, return 0\n\t\tif (!swapfeeOutAllowed) {\n\t\t\treturn 0;\n\t\t}\n\n\t\t// implement the formula in Section 4.3.2 of whitepaper\n\t\tuint USDsInOutRatio = IOracle(oracleAddr).USDsInOutRatio();\n\t\tuint USDsInOutRatioPrecision = IOracle(oracleAddr).USDsInOutRatioPrecision();\n\t\tif (USDsInOutRatio <= uint(12).mul(USDsInOutRatioPrecision).div(10)) {\n\t\t\treturn swapFeePresion / 1000; //0.1%\n\t\t} else {\n\t\t\tuint exponentWithPrec = USDsInOutRatio - uint(12).mul(USDsInOutRatioPrecision).div(10);\n\t\t\tif (exponentWithPrec >= 2^32) {\n\t\t\t\treturn swapFeePresion;\n\t\t\t}\n\t\t\t(uint powResWithPrec, uint8 powResPrec) = BancorInstance.power(swapFee_A, swapFee_A_Prec, uint32(exponentWithPrec), uint32(USDsInOutRatioPrecision));\n\t\t\tuint toReturn = uint(powResWithPrec >> powResPrec).mul(swapFeePresion).div(100);\n\t\t\tif (toReturn >= swapFeePresion) {\n\t\t\t\treturn swapFeePresion;\n\t\t\t} else {\n\t\t\t\treturn toReturn;\n\t\t\t}\n\t\t}\n\t}\n\n\t/**\n\t * @dev calculate chiRedeem based on the formula at the end of section 2.2\n\t * @return chiRedeem_\n\t */\n\tfunction chiRedeem() public returns (uint chiRedeem_) {\n\t\t// calculate chiTarget\n\t\tuint priceUSDs = uint(IOracle(oracleAddr).getUSDsPrice());\n\t\tuint precisionUSDs = IOracle(oracleAddr).USDsPricePrecision();\n\t\tuint blockPassed = uint(block.number).sub(startBlockHeight);\n\t\tuint chiTarget_ = chiTarget(chiInit, blockPassed, priceUSDs, precisionUSDs);\n\t\t// calculate chiRedeem\n\t\tuint collateralRatio_ = collateralRatio();\n\t\tif (chiTarget_ > collateralRatio_) {\n\t\t\tchiRedeem_ = chiTarget_.add(chi_gamma.mul(chiTarget_ - collateralRatio_).div(chi_gamma_Prec));\n\t\t} else {\n\t\t\tchiRedeem_ = chiTarget_;\n\t\t}\n\t}\n\n\t/**\n\t * @dev mint USDs by entering USDs amount\n\t * @param collaAddr the address of user's chosen collateral\n\t * @param USDsMintAmt the amount of USDs to be minted\n\t */\n\tfunction mintWithUSDs(address collaAddr, uint USDsMintAmt)\n\t\tpublic\n\t\twhenMintRedeemAllowed\n\t{\n\t\trequire(supportedCollat[collaAddr], \"Collateral not supported\");\n\t\trequire(USDsMintAmt > 0, \"Amount needs to be greater than 0\");\n\t\t_mint(collaAddr, USDsMintAmt, 0);\n\t}\n\n\t/**\n\t * @dev mint USDs by entering SPA amount\n\t * @param collaAddr the address of user's chosen collateral\n\t * @param SPAAmt the amount of SPA to burn\n\t */\n\tfunction mintWithSPA(address collaAddr, uint SPAAmt)\n\t\tpublic\n\t\twhenMintRedeemAllowed\n\t{\n\t\trequire(supportedCollat[collaAddr], \"Collateral not supported\");\n\t\trequire(SPAAmt > 0, \"Amount needs to be greater than 0\");\n\t\t_mint(collaAddr, SPAAmt, 1);\n\t}\n\n\t/**\n\t * @dev mint USDs by entering collateral amount (excluding ETH)\n\t * @param collaAddr the address of user's chosen collateral\n\t * @param CollaAmt the amount of collateral to stake\n\t */\n\tfunction mintWithColla(address collaAddr, uint CollaAmt)\n\t\tpublic\n\t\twhenMintRedeemAllowed\n\t{\n\t\trequire(supportedCollat[collaAddr], \"Collateral not supported\");\n\t\trequire(CollaAmt > 0, \"Amount needs to be greater than 0\");\n\t\t_mint(collaAddr, CollaAmt, 2);\n\t}\n\n\t/**\n\t * @dev mint USDs by ETH\n\t * note: this function needs changes when USDs is deployed on other blockchain platform\n\t */\n\tfunction mintWithEth() public payable whenMintRedeemAllowed {\n    require(msg.value > 0, \"Need to pay Ether\");\n\t\t_mint(address(0), msg.value, 3);\n\t}\n\n\tfunction _mint(\n\t\taddress collaAddr,\n\t\tuint valueAmt,\n\t\tuint8 valueType\n\t) internal whenMintRedeemAllowed {\n\t\t(uint SPABurnAmt, uint collaDepAmt, uint USDsAmt, uint swapFeeAmount) = mintView(collaAddr, valueAmt, valueType);\n\t\tISperaxToken(SPATokenAddr).burnFrom(msg.sender, SPABurnAmt);\n\t\tif (valueType != 3) {\n\t\t\tERC20Upgradeable(collaAddr).safeTransferFrom(msg.sender, collaValut, collaDepAmt);\n\t\t}\n\t\tUSDsInstance.mint(msg.sender, USDsAmt);\n\t\tUSDsInstance.mint(USDsFeeValut, swapFeeAmount);\n\n\t\tsupportedCollatAmount[collaAddr] = supportedCollatAmount[collaAddr].add(collaDepAmt);\n\t\t//emit USDSMinted(msg.sender, USDsAmt, SPABurnAmt, swapFeeAmount);\n\t}\n\n\tfunction redeem(address collaAddr, uint USDsAmt)\n\t\tpublic\n\t\twhenMintRedeemAllowed\n\t{\n\t\trequire(supportedCollat[collaAddr], \"Collateral not supported\");\n\t\trequire(USDsAmt > 0, \"Amount needs to be greater than 0\");\n\t\t_redeem(collaAddr, USDsAmt);\n\t}\n\n\n\tfunction redeemView(\n\t\taddress collaAddr,\n\t\tuint USDsAmt\n\t) public returns (uint SPAMintAmt, uint collaUnlockAmt, uint USDsBurntAmt, uint swapFeeAmount) {\n\t\tuint priceColla = IOracle(oracleAddr).collatPrice(collaAddr);\n\t\tuint precisionColla = IOracle(oracleAddr).collatPricePrecision(collaAddr);\n\t\tuint priceSPA = IOracle(oracleAddr).getSPAPrice();\n\t\tuint precisionSPA = IOracle(oracleAddr).SPAPricePrecision();\n\t\tuint swapFee = calculateSwapFeeOut();\n\t\tuint collaAddrDecimal = uint(ERC20Upgradeable(collaAddr).decimals());\n\t\tSPAMintAmt = USDsAmt.mul((chiPrec - chiRedeem()).mul(precisionSPA)).div(priceSPA.mul(chiPrec));\n\t\tif (swapFee > 0) {\n\t\t\tSPAMintAmt = SPAMintAmt.sub(SPAMintAmt.mul(swapFee).div(swapFeePresion));\n\t\t}\n\n\t\t//Unlock collaeral\n\t\tuint collaUnlockAmt_18 = USDsAmt.mul(chiMint().mul(precisionColla)).div(chiPrec.mul(priceColla));\n\t\tcollaUnlockAmt = collaUnlockAmt_18.div(10**(uint(18).sub(collaAddrDecimal)));\n\t\tif (swapFee > 0) {\n\t\t\tcollaUnlockAmt = collaUnlockAmt.sub(collaUnlockAmt.mul(swapFee).div(swapFeePresion));\n\t\t}\n\n\t\t//Burn USDs\n\t\tswapFeeAmount = USDsAmt.mul(swapFee).div(swapFeePresion);\n\t\tUSDsBurntAmt =  USDsAmt.sub(swapFeeAmount);\n\t}\n\n\tfunction _redeem(\n\t\taddress collaAddr,\n\t\tuint USDsAmt\n\t) internal whenMintRedeemAllowed {\n\t\t(uint SPAMintAmt, uint collaUnlockAmt, uint USDsBurntAmt, uint swapFeeAmount) = redeemView(collaAddr, USDsAmt);\n\n\t\tISperaxToken(SPATokenAddr).mintForUSDs(msg.sender, SPAMintAmt);\n\t\tERC20Upgradeable(collaAddr).safeTransfer(msg.sender, collaUnlockAmt);\n\t\tsupportedCollatAmount[collaAddr] = supportedCollatAmount[collaAddr].sub(collaUnlockAmt);\n\t\tUSDsInstance.burn(msg.sender, USDsBurntAmt);\n\t\tUSDsInstance.transferFrom(msg.sender, USDsFeeValut, swapFeeAmount);\n\n\t\t//emit USDSRedeemed(msg.sender, USDsBurntAmt, SPAMintAmt, swapFeeAmount);\n\t}\n\n\t/**\n\t * @dev Calculate the total value of assets held by the Vault and all\n\t *      strategies and update the supply of USDs.\n\t */\n\tfunction rebase() external onlyOwner {\n\t\t_rebase();\n\t}\n\n\t/**\n\t * @dev Calculate the total value of assets held by the Vault and all\n\t *      strategies and update the supply of USDs, optionaly sending a\n\t *      portion of the yield to the trustee.\n\t */\n\tfunction _rebase() internal {\n\t\taddress _strategyAddr;\n\t\tIStrategy strategy;\n\t\taddress collaAddr;\n\t\tuint allocatedAmt;\n\t\tuint newTokensAmt;\n\t\tuint USDsSupplyIncrement;\n\t\tuint USDsSupplyIncrementTotal;\n\t\tfor (uint y = 0; y < allCollat.length; y++) {\n\t\t\tcollaAddr = allCollat[y];\n\t\t\tfor (uint i = 0; i < allStrategies.length; i++) {\n\t\t\t\t_strategyAddr = allStrategies[i];\n\t\t\t\tstrategy = IStrategy(_strategyAddr);\n\t\t\t\tallocatedAmt = strategiesAllocatedAmt[collaAddr][_strategyAddr] ;\n\t\t\t\t(, newTokensAmt) = strategy.checkBalance(collaAddr).trySub(allocatedAmt);\n\t\t\t\tif (newTokensAmt > 0) {\n\t\t\t\t\tstrategy.withdraw(address(this), collaAddr, newTokensAmt);\n\t\t\t\t\t(uint SPABurnAmt, uint collaDepAmt, uint USDsAmt, uint swapFeeAmount) = mintView(collaAddr, newTokensAmt, 2);\n\t\t\t\t\t//strategy.withdraw(address(this), collaAddr, collaDepAmt);\n\t\t\t\t\tISperaxToken(SPATokenAddr).burnFrom(SPAValut, SPABurnAmt);\n\t\t\t\t\tUSDsSupplyIncrement = USDsInstance._totalSupply().add(USDsAmt).add(swapFeeAmount);\n\t\t\t\t\tUSDsSupplyIncrementTotal = USDsSupplyIncrementTotal.add(USDsSupplyIncrement);\n\t\t\t\t}\n\t\t\t\tUSDsInstance.changeSupply(USDsSupplyIncrementTotal);\n\t\t   }\n\t\t}\n\n\n\n\t}\n\t//\n\t// /**\n\t//  * @dev  Precision: same as chi (chiPrec)\n\t//  */\n\t//\n\tfunction collateralRatio() public returns (uint ratio) {\n\t\tuint totalValueLocked = _totalValueLocked();\n\t\tuint USDsSupply =  USDsInstance.totalSupply();\n\t\tuint priceUSDs = uint(IOracle(oracleAddr).getUSDsPrice());\n\t\tuint precisionUSDs = IOracle(oracleAddr).USDsPricePrecision();\n\t\tuint USDsValue = USDsSupply.mul(priceUSDs).div(precisionUSDs);\n\t\tratio = totalValueLocked.mul(chiPrec).div(USDsValue);\n\t}\n\n\tfunction totalValueLocked() external view returns (uint value) {\n\t\tvalue = _totalValueLocked();\n\t}\n\n\tfunction _totalValueLocked() internal view returns (uint value) {\n\t\tvalue = _totalValueInVault().add(_totalValueInStrategies());\n\t}\n\n\tfunction totalValueInVault() external view returns (uint value) {\n\t\tvalue = _totalValueInVault();\n\t}\n\n\tfunction _totalValueInVault() internal view returns (uint value) {\n\t\taddress collaAddr;\n\t\tuint priceColla = 0;\n\t\tuint precisionColla = 0;\n\t\tuint collaAddrDecimal = 0;\n\t\tuint collaTotalValueInVault = 0;\n\t\tuint collaTotalValueInVault_18 = 0;\n\t\tfor (uint y = 0; y < allCollat.length; y++) {\n\t\t\tcollaAddr = allCollat[y];\n\t\t\tpriceColla = IOracle(oracleAddr).collatPrice(collaAddr);\n\t\t\tprecisionColla = IOracle(oracleAddr).collatPricePrecision(collaAddr);\n\t\t\tcollaAddrDecimal = uint(ERC20Upgradeable(collaAddr).decimals());\n\t\t\tcollaTotalValueInVault = ERC20Upgradeable(collaAddr).balanceOf(address(this)).mul(priceColla).div(precisionColla);\n\t\t\tcollaTotalValueInVault_18 = collaTotalValueInVault.mul(10**(uint(18).sub(collaAddrDecimal)));\n\t\t\tvalue = value.add(collaTotalValueInVault_18);\n\t\t}\n\t}\n\n\tfunction totalValueInStrategies() external view returns (uint value) {\n\t\tvalue = _totalValueInStrategies();\n\t}\n\n\tfunction _totalValueInStrategies() internal view returns (uint value) {\n\t\tfor (uint i = 0; i < allStrategies.length; i++) {\n\t\t   value = value.add(_totalValueInStrategy(allStrategies[i]));\n\t   }\n\t}\n\n\n\tfunction _totalValueInStrategy(address _strategyAddr) internal view returns (uint value) {\n\t\tIStrategy strategy = IStrategy(_strategyAddr);\n\t\taddress collaAddr;\n\t\tuint priceColla = 0;\n\t\tuint precisionColla = 0;\n\t\tuint collaAddrDecimal = 0;\n\t\tuint collaTotalValueInStrategy = 0;\n\t\tuint collaTotalValueInStrategy_18 = 0;\n\t\tfor (uint y = 0; y < allCollat.length; y++) {\n\t\t\tcollaAddr = allCollat[y];\n\t\t\tif (strategy.supportsAsset(collaAddr)) {\n\t\t\t\tpriceColla = IOracle(oracleAddr).collatPrice(collaAddr);\n\t\t\t\tprecisionColla = IOracle(oracleAddr).collatPricePrecision(collaAddr);\n\t\t\t\tcollaAddrDecimal = uint(ERC20Upgradeable(collaAddr).decimals());\n\t\t\t\tcollaTotalValueInStrategy = strategy.checkBalance(allCollat[y]).mul(priceColla).div(precisionColla);\n\t\t\t\tcollaTotalValueInStrategy_18 = collaTotalValueInStrategy.mul(10**(uint(18).sub(collaAddrDecimal)));\n\t\t\t\tvalue = value.add(collaTotalValueInStrategy_18);\n\t\t\t}\n\t\t}\n\t}\n\n\t/**\n     * @notice Allocate unallocated funds on Vault to strategies.\n     * @dev Allocate unallocated funds on Vault to strategies.\n\t\t**/\n\tfunction allocate() external whenNotCapitalPaused {\n\t\t_allocate();\n\t}\n\n\t/**\n\t\t* @notice Allocate unallocated funds on Vault to strategies.\n\t\t* @dev Allocate unallocated funds on Vault to strategies.\n\t\t**/\n\tfunction _allocate() internal {\n\t\t// Iterate over all assets in the Vault and allocate the the appropriate\n\t\t// strategy\n\t\tfor (uint i = 0; i < allCollat.length; i++) {\n\t\t\taddress collateralAddr = allCollat[i];\n\t\t\tERC20Upgradeable collateralERC20 = ERC20Upgradeable(collateralAddr);\n\t\t\tuint collatInVault = collateralERC20.balanceOf(address(this));\n\t\t\tuint collatInVaultTotal = supportedCollatAmount[allCollat[i]];\n\t\t\t(,uint allocateAmount) = collatInVaultTotal.mul(allocatePrecentage).div(allocatePrecentage_Prec).trySub(collatInVault);\n\n\t\t\taddress depositStrategyAddr = assetDefaultStrategies[collateralAddr];\n\n\t\t\tif (depositStrategyAddr != address(0) && allocateAmount > 0) {\n\t\t\t\tIStrategy strategy = IStrategy(depositStrategyAddr);\n\t\t\t\tcollateralERC20.safeTransfer(address(strategy), allocateAmount);\n\t\t\t\tstrategy.deposit(collateralAddr, allocateAmount);\n\t\t\t\tstrategiesAllocatedAmt[collateralAddr][depositStrategyAddr] = strategiesAllocatedAmt[collateralAddr][depositStrategyAddr].add(allocateAmount);\n\t\t\t}\n\t\t}\n\t}\n\n}\n",
  "sourcePath": "/Volumes/Work/Sperax/USDs/contracts/vault/VaultCore.sol",
  "compiler": {
    "name": "solc",
    "version": "0.6.12+commit.27d51765.Emscripten.clang"
  },
  "schemaVersion": "3.4.0",
  "updatedAt": "2021-08-20T02:02:29.078Z",
  "devdoc": {
    "kind": "dev",
    "methods": {
      "allocate()": {
        "details": "Allocate unallocated funds on Vault to strategies.*"
      },
      "calculateSwapFeeIn()": {
        "details": "calculate the InSwap fee, i.e. fees for minting USDs",
        "returns": {
          "_0": "the InSwap fee"
        }
      },
      "calculateSwapFeeOut()": {
        "details": "calculate the OutSwap fee, i.e. fees for redeeming USDs",
        "returns": {
          "_0": "the OutSwap fee "
        }
      },
      "chiMint()": {
        "details": "calculate chiMint",
        "returns": {
          "_0": "chiMint, i.e. chiTarget, since they share the same value "
        }
      },
      "chiRedeem()": {
        "details": "calculate chiRedeem based on the formula at the end of section 2.2",
        "returns": {
          "chiRedeem_": "chiRedeem_"
        }
      },
      "chiTarget(uint256,uint256,uint256,uint256)": {
        "details": "calculate chiTarget by the formula in section 2.2 of the whitepaper",
        "params": {
          "blockPassed": "the number of blocks that have passed since USDs is launched, i.e. \"Block Height\"",
          "chiInit_": "the initial value of chi",
          "precisionUSDs": "the precision used in the variable \"priceUSDs\"",
          "priceUSDs": "the price of USDs, i.e. \"USDs Price\""
        },
        "returns": {
          "chiTarget_": "the value of chiTarget"
        }
      },
      "mintView(address,uint256,uint8)": {
        "details": "the general mintView function that display all related quantities based on mint types\t\tvalueType = 0: mintWithUSDs\t\tvalueType = 1: mintWithSPA\t\tvalueType = 2: mintWithColla\t\tvalueType = 3: mintWithETH",
        "params": {
          "collaAddr": "the address of user's chosen collateral",
          "valueAmt": "the amount of user input whose specific meaning depends on valueType",
          "valueType": "the type of user input whose interpretation is listed above in @dev"
        },
        "returns": {
          "SPABurnAmt": "the amount of SPA to burn\t\t\tcollaDepAmt the amount of collateral to stake\t\t\tUSDsAmt the amount of USDs to mint\t\t\tswapFeeAmount the amount of Inswapfee to pay"
        }
      },
      "mintWithColla(address,uint256)": {
        "details": "mint USDs by entering collateral amount (excluding ETH)",
        "params": {
          "CollaAmt": "the amount of collateral to stake",
          "collaAddr": "the address of user's chosen collateral"
        }
      },
      "mintWithCollaView(address,uint256)": {
        "details": "view related quantities for minting USDs with collateral amount to stake (excluding ETH)",
        "params": {
          "CollaAmt": "the amount of collateral to stake",
          "collaAddr": "the address of user's chosen collateral"
        },
        "returns": {
          "SPABurnAmt": "the amount of SPA to burn\t\t\tcollaDepAmt the amount of collateral to stake\t\t\tUSDsAmt the amount of USDs to mint\t\t\tswapFeeAmount the amount of Inswapfee to pay"
        }
      },
      "mintWithEth()": {
        "details": "mint USDs by ETH note: this function needs changes when USDs is deployed on other blockchain platform"
      },
      "mintWithEthView(uint256)": {
        "details": "view related quantities for minting USDs with ETH",
        "params": {
          "CollaAmt": "the amount of ETH that the user stakes for minting USDs"
        },
        "returns": {
          "SPABurnAmt": "the amount of SPA to burn\t\t\tcollaDepAmt the amount of collateral to stake\t\t\tUSDsAmt the amount of USDs to mint\t\t\tswapFeeAmount the amount of Inswapfee to pay SPABurnAmt precision: 10^18 collaDepAmt precision: 10^collaAddrDecimal USDsAmt precision: 10^18 swapFeeAmount precision: swapFeePresion"
        }
      },
      "mintWithSPA(address,uint256)": {
        "details": "mint USDs by entering SPA amount",
        "params": {
          "SPAAmt": "the amount of SPA to burn",
          "collaAddr": "the address of user's chosen collateral"
        }
      },
      "mintWithSPAView(address,uint256)": {
        "details": "view related quantities for minting USDs with SPA amount to burn",
        "params": {
          "SPAAmt": "the amount of SPAs to burn",
          "collaAddr": "the address of user's chosen collateral"
        },
        "returns": {
          "SPABurnAmt": "the amount of SPA to burn\t\t\tcollaDepAmt the amount of collateral to stake\t\t\tUSDsAmt the amount of USDs to mint\t\t\tswapFeeAmount the amount of Inswapfee to pay"
        }
      },
      "mintWithUSDs(address,uint256)": {
        "details": "mint USDs by entering USDs amount",
        "params": {
          "USDsMintAmt": "the amount of USDs to be minted",
          "collaAddr": "the address of user's chosen collateral"
        }
      },
      "mintWithUSDsView(address,uint256)": {
        "details": "view related quantities for minting USDs with USDs amount",
        "params": {
          "USDsMintAmt": "the amount of USDs to mint",
          "collaAddr": "the address of user's chosen collateral"
        },
        "returns": {
          "SPABurnAmt": "the amount of SPA to burn\t\t\tcollaDepAmt the amount of collateral to stake\t\t\tUSDsAmt the amount of USDs to mint\t\t\tswapFeeAmount the amount of Inswapfee to pay"
        }
      },
      "owner()": {
        "details": "Returns the address of the current owner."
      },
      "rebase()": {
        "details": "Calculate the total value of assets held by the Vault and all      strategies and update the supply of USDs."
      },
      "renounceOwnership()": {
        "details": "Leaves the contract without owner. It will not be possible to call `onlyOwner` functions anymore. Can only be called by the current owner. NOTE: Renouncing ownership will leave the contract without an owner, thereby removing any functionality that is only available to the owner."
      },
      "supportAsset(address)": {
        "details": "add a new supported collateral",
        "params": {
          "_asset": "the address of the new supported collateral"
        }
      },
      "transferOwnership(address)": {
        "details": "Transfers ownership of the contract to a new account (`newOwner`). Can only be called by the current owner."
      },
      "updateAllocate(bool)": {
        "details": "disable collateral re-investment"
      },
      "updateMintBurn(bool)": {
        "details": "disable USDs mint & redeem"
      },
      "updateSwapInFee(bool)": {
        "details": "disable swapInFee, i.e. mint becomes free"
      },
      "updateSwapOutFee(bool)": {
        "details": "disable swapOutFee, i.e. redeem becomes free"
      }
    },
    "version": 1
  },
  "userdoc": {
    "kind": "user",
    "methods": {
      "allocate()": {
        "notice": "Allocate unallocated funds on Vault to strategies."
      }
    },
    "version": 1
  }
}