{
  "contractName": "VaultStorage",
  "abi": [
    {
      "anonymous": false,
      "inputs": [
        {
          "indexed": false,
          "internalType": "address",
          "name": "_asset",
          "type": "address"
        }
      ],
      "name": "AssetSupported",
      "type": "event"
    },
    {
      "inputs": [],
      "name": "SPATokenAddr",
      "outputs": [
        {
          "internalType": "address",
          "name": "",
          "type": "address"
        }
      ],
      "stateMutability": "view",
      "type": "function"
    },
    {
      "inputs": [],
      "name": "SPAValut",
      "outputs": [
        {
          "internalType": "address",
          "name": "",
          "type": "address"
        }
      ],
      "stateMutability": "view",
      "type": "function"
    },
    {
      "inputs": [],
      "name": "USDsFeeValut",
      "outputs": [
        {
          "internalType": "address",
          "name": "",
          "type": "address"
        }
      ],
      "stateMutability": "view",
      "type": "function"
    },
    {
      "inputs": [],
      "name": "USDsYieldValut",
      "outputs": [
        {
          "internalType": "address",
          "name": "",
          "type": "address"
        }
      ],
      "stateMutability": "view",
      "type": "function"
    },
    {
      "inputs": [],
      "name": "allocatePrecentage",
      "outputs": [
        {
          "internalType": "uint256",
          "name": "",
          "type": "uint256"
        }
      ],
      "stateMutability": "view",
      "type": "function"
    },
    {
      "inputs": [],
      "name": "allocatePrecentage_Prec",
      "outputs": [
        {
          "internalType": "uint256",
          "name": "",
          "type": "uint256"
        }
      ],
      "stateMutability": "view",
      "type": "function"
    },
    {
      "inputs": [
        {
          "internalType": "address",
          "name": "",
          "type": "address"
        }
      ],
      "name": "assetDefaultStrategies",
      "outputs": [
        {
          "internalType": "address",
          "name": "",
          "type": "address"
        }
      ],
      "stateMutability": "view",
      "type": "function"
    },
    {
      "inputs": [],
      "name": "capitalAllowed",
      "outputs": [
        {
          "internalType": "bool",
          "name": "",
          "type": "bool"
        }
      ],
      "stateMutability": "view",
      "type": "function"
    },
    {
      "inputs": [],
      "name": "chiInit",
      "outputs": [
        {
          "internalType": "uint256",
          "name": "",
          "type": "uint256"
        }
      ],
      "stateMutability": "view",
      "type": "function"
    },
    {
      "inputs": [],
      "name": "chiPrec",
      "outputs": [
        {
          "internalType": "uint256",
          "name": "",
          "type": "uint256"
        }
      ],
      "stateMutability": "view",
      "type": "function"
    },
    {
      "inputs": [],
      "name": "chi_alpha",
      "outputs": [
        {
          "internalType": "uint256",
          "name": "",
          "type": "uint256"
        }
      ],
      "stateMutability": "view",
      "type": "function"
    },
    {
      "inputs": [],
      "name": "chi_alpha_Prec",
      "outputs": [
        {
          "internalType": "uint256",
          "name": "",
          "type": "uint256"
        }
      ],
      "stateMutability": "view",
      "type": "function"
    },
    {
      "inputs": [],
      "name": "chi_beta",
      "outputs": [
        {
          "internalType": "uint256",
          "name": "",
          "type": "uint256"
        }
      ],
      "stateMutability": "view",
      "type": "function"
    },
    {
      "inputs": [],
      "name": "chi_beta_Prec",
      "outputs": [
        {
          "internalType": "uint256",
          "name": "",
          "type": "uint256"
        }
      ],
      "stateMutability": "view",
      "type": "function"
    },
    {
      "inputs": [],
      "name": "chi_gamma",
      "outputs": [
        {
          "internalType": "uint256",
          "name": "",
          "type": "uint256"
        }
      ],
      "stateMutability": "view",
      "type": "function"
    },
    {
      "inputs": [],
      "name": "chi_gamma_Prec",
      "outputs": [
        {
          "internalType": "uint256",
          "name": "",
          "type": "uint256"
        }
      ],
      "stateMutability": "view",
      "type": "function"
    },
    {
      "inputs": [],
      "name": "collaValut",
      "outputs": [
        {
          "internalType": "address",
          "name": "",
          "type": "address"
        }
      ],
      "stateMutability": "view",
      "type": "function"
    },
    {
      "inputs": [],
      "name": "mintRedeemAllowed",
      "outputs": [
        {
          "internalType": "bool",
          "name": "",
          "type": "bool"
        }
      ],
      "stateMutability": "view",
      "type": "function"
    },
    {
      "inputs": [],
      "name": "oracleAddr",
      "outputs": [
        {
          "internalType": "address",
          "name": "",
          "type": "address"
        }
      ],
      "stateMutability": "view",
      "type": "function"
    },
    {
      "inputs": [],
      "name": "startBlockHeight",
      "outputs": [
        {
          "internalType": "uint256",
          "name": "",
          "type": "uint256"
        }
      ],
      "stateMutability": "view",
      "type": "function"
    },
    {
      "inputs": [
        {
          "internalType": "address",
          "name": "",
          "type": "address"
        },
        {
          "internalType": "address",
          "name": "",
          "type": "address"
        }
      ],
      "name": "strategiesAllocatedAmt",
      "outputs": [
        {
          "internalType": "uint256",
          "name": "",
          "type": "uint256"
        }
      ],
      "stateMutability": "view",
      "type": "function"
    },
    {
      "inputs": [
        {
          "internalType": "address",
          "name": "",
          "type": "address"
        }
      ],
      "name": "supportedCollat",
      "outputs": [
        {
          "internalType": "bool",
          "name": "",
          "type": "bool"
        }
      ],
      "stateMutability": "view",
      "type": "function"
    },
    {
      "inputs": [
        {
          "internalType": "address",
          "name": "",
          "type": "address"
        }
      ],
      "name": "supportedCollatAmount",
      "outputs": [
        {
          "internalType": "uint256",
          "name": "",
          "type": "uint256"
        }
      ],
      "stateMutability": "view",
      "type": "function"
    },
    {
      "inputs": [],
      "name": "swapFeePresion",
      "outputs": [
        {
          "internalType": "uint256",
          "name": "",
          "type": "uint256"
        }
      ],
      "stateMutability": "view",
      "type": "function"
    },
    {
      "inputs": [],
      "name": "swapFee_A",
      "outputs": [
        {
          "internalType": "uint256",
          "name": "",
          "type": "uint256"
        }
      ],
      "stateMutability": "view",
      "type": "function"
    },
    {
      "inputs": [],
      "name": "swapFee_A_Prec",
      "outputs": [
        {
          "internalType": "uint256",
          "name": "",
          "type": "uint256"
        }
      ],
      "stateMutability": "view",
      "type": "function"
    },
    {
      "inputs": [],
      "name": "swapFee_a",
      "outputs": [
        {
          "internalType": "uint32",
          "name": "",
          "type": "uint32"
        }
      ],
      "stateMutability": "view",
      "type": "function"
    },
    {
      "inputs": [],
      "name": "swapFee_a_Prec",
      "outputs": [
        {
          "internalType": "uint32",
          "name": "",
          "type": "uint32"
        }
      ],
      "stateMutability": "view",
      "type": "function"
    },
    {
      "inputs": [],
      "name": "swapFee_p",
      "outputs": [
        {
          "internalType": "uint256",
          "name": "",
          "type": "uint256"
        }
      ],
      "stateMutability": "view",
      "type": "function"
    },
    {
      "inputs": [],
      "name": "swapFee_p_Prec",
      "outputs": [
        {
          "internalType": "uint256",
          "name": "",
          "type": "uint256"
        }
      ],
      "stateMutability": "view",
      "type": "function"
    },
    {
      "inputs": [],
      "name": "swapFee_theta",
      "outputs": [
        {
          "internalType": "uint256",
          "name": "",
          "type": "uint256"
        }
      ],
      "stateMutability": "view",
      "type": "function"
    },
    {
      "inputs": [],
      "name": "swapFee_theta_Prec",
      "outputs": [
        {
          "internalType": "uint256",
          "name": "",
          "type": "uint256"
        }
      ],
      "stateMutability": "view",
      "type": "function"
    },
    {
      "inputs": [],
      "name": "swapfeeInAllowed",
      "outputs": [
        {
          "internalType": "bool",
          "name": "",
          "type": "bool"
        }
      ],
      "stateMutability": "view",
      "type": "function"
    },
    {
      "inputs": [],
      "name": "swapfeeOutAllowed",
      "outputs": [
        {
          "internalType": "bool",
          "name": "",
          "type": "bool"
        }
      ],
      "stateMutability": "view",
      "type": "function"
    },
    {
      "inputs": [
        {
          "internalType": "uint256",
          "name": "chiInit_",
          "type": "uint256"
        },
        {
          "internalType": "uint256",
          "name": "blockPassed",
          "type": "uint256"
        },
        {
          "internalType": "uint256",
          "name": "priceUSDs",
          "type": "uint256"
        },
        {
          "internalType": "uint256",
          "name": "precisionUSDs",
          "type": "uint256"
        }
      ],
      "name": "chiTarget",
      "outputs": [
        {
          "internalType": "uint256",
          "name": "chiTarget_",
          "type": "uint256"
        }
      ],
      "stateMutability": "pure",
      "type": "function"
    },
    {
      "inputs": [],
      "name": "chiMint",
      "outputs": [
        {
          "internalType": "uint256",
          "name": "",
          "type": "uint256"
        }
      ],
      "stateMutability": "nonpayable",
      "type": "function"
    },
    {
      "inputs": [],
      "name": "calculateSwapFeeIn",
      "outputs": [
        {
          "internalType": "uint256",
          "name": "",
          "type": "uint256"
        }
      ],
      "stateMutability": "nonpayable",
      "type": "function"
    },
    {
      "inputs": [
        {
          "internalType": "address",
          "name": "collaAddr",
          "type": "address"
        },
        {
          "internalType": "uint256",
          "name": "USDsMintAmt",
          "type": "uint256"
        }
      ],
      "name": "mintWithUSDsView",
      "outputs": [
        {
          "internalType": "uint256",
          "name": "SPABurnAmt",
          "type": "uint256"
        },
        {
          "internalType": "uint256",
          "name": "collaDepAmt",
          "type": "uint256"
        },
        {
          "internalType": "uint256",
          "name": "USDsAmt",
          "type": "uint256"
        },
        {
          "internalType": "uint256",
          "name": "swapFeeAmount",
          "type": "uint256"
        }
      ],
      "stateMutability": "nonpayable",
      "type": "function"
    },
    {
      "inputs": [
        {
          "internalType": "address",
          "name": "collaAddr",
          "type": "address"
        },
        {
          "internalType": "uint256",
          "name": "SPAAmt",
          "type": "uint256"
        }
      ],
      "name": "mintWithSPAView",
      "outputs": [
        {
          "internalType": "uint256",
          "name": "SPABurnAmt",
          "type": "uint256"
        },
        {
          "internalType": "uint256",
          "name": "collaDepAmt",
          "type": "uint256"
        },
        {
          "internalType": "uint256",
          "name": "USDsAmt",
          "type": "uint256"
        },
        {
          "internalType": "uint256",
          "name": "swapFeeAmount",
          "type": "uint256"
        }
      ],
      "stateMutability": "nonpayable",
      "type": "function"
    },
    {
      "inputs": [
        {
          "internalType": "address",
          "name": "collaAddr",
          "type": "address"
        },
        {
          "internalType": "uint256",
          "name": "CollaAmt",
          "type": "uint256"
        }
      ],
      "name": "mintWithCollaView",
      "outputs": [
        {
          "internalType": "uint256",
          "name": "SPABurnAmt",
          "type": "uint256"
        },
        {
          "internalType": "uint256",
          "name": "collaDepAmt",
          "type": "uint256"
        },
        {
          "internalType": "uint256",
          "name": "USDsAmt",
          "type": "uint256"
        },
        {
          "internalType": "uint256",
          "name": "swapFeeAmount",
          "type": "uint256"
        }
      ],
      "stateMutability": "nonpayable",
      "type": "function"
    },
    {
      "inputs": [
        {
          "internalType": "uint256",
          "name": "CollaAmt",
          "type": "uint256"
        }
      ],
      "name": "mintWithEthView",
      "outputs": [
        {
          "internalType": "uint256",
          "name": "SPABurnAmt",
          "type": "uint256"
        },
        {
          "internalType": "uint256",
          "name": "collaDepAmt",
          "type": "uint256"
        },
        {
          "internalType": "uint256",
          "name": "USDsAmt",
          "type": "uint256"
        },
        {
          "internalType": "uint256",
          "name": "swapFeeAmount",
          "type": "uint256"
        }
      ],
      "stateMutability": "nonpayable",
      "type": "function"
    },
    {
      "inputs": [
        {
          "internalType": "address",
          "name": "collaAddr",
          "type": "address"
        },
        {
          "internalType": "uint256",
          "name": "valueAmt",
          "type": "uint256"
        },
        {
          "internalType": "uint8",
          "name": "valueType",
          "type": "uint8"
        }
      ],
      "name": "mintView",
      "outputs": [
        {
          "internalType": "uint256",
          "name": "SPABurnAmt",
          "type": "uint256"
        },
        {
          "internalType": "uint256",
          "name": "collaDepAmt",
          "type": "uint256"
        },
        {
          "internalType": "uint256",
          "name": "USDsAmt",
          "type": "uint256"
        },
        {
          "internalType": "uint256",
          "name": "swapFeeAmount",
          "type": "uint256"
        }
      ],
      "stateMutability": "nonpayable",
      "type": "function"
    }
  ],
  "bytecode": "0x608060405234801561001057600080fd5b506123b4806100206000396000f3fe608060405234801561001057600080fd5b506004361061025e5760003560e01c80639f8fdafe11610146578063be002f6e116100c3578063e4a584a711610087578063e4a584a714610a29578063f62f843014610a47578063faa5f34b14610a7b578063faeddc9014610a99578063fc703aa614610ab7578063fc9dc4ff14610ad55761025e565b8063be002f6e1461090f578063cc31fccb14610943578063ceee77ed14610977578063dfab838d146109ab578063e1da538014610a0b5761025e565b8063aa9712011161010a578063aa971201146107d8578063ab5d97f41461082f578063b017b183146108b3578063baea83c8146108d3578063bbf274be146108f15761025e565b80639f8fdafe14610697578063a09caa18146106b5578063a0fda95e146106d5578063a403e4d5146106f3578063a7a63b0a146107615761025e565b80634c75808e116101df5780637e4e61d7116101a35780637e4e61d7146105385780638eb128141461056c57806395bb5e371461058a57806396fd7db614610601578063974fa6181461061f5780639c11ca73146106795761025e565b80634c75808e1461045e57806357635e91146104b65780635e0d5f13146104d65780637080460f146104fa578063723863711461051a5761025e565b806333f8bdfe1161022657806333f8bdfe146103c257806337d87d70146103e05780633f521f8c1461040457806343ee5cdc146104225780634b521499146104405761025e565b806316e63e30146102635780631f207d0814610297578063276545fe1461030e578063302845261461032c57806332ad97ab146103a4575b600080fd5b61026b610af3565b604051808273ffffffffffffffffffffffffffffffffffffffff16815260200191505060405180910390f35b6102e3600480360360408110156102ad57600080fd5b81019080803573ffffffffffffffffffffffffffffffffffffffff16906020019092919080359060200190929190505050610b19565b6040518085815260200184815260200183815260200182815260200194505050505060405180910390f35b610316610c5c565b6040518082815260200191505060405180910390f35b61038e6004803603604081101561034257600080fd5b81019080803573ffffffffffffffffffffffffffffffffffffffff169060200190929190803573ffffffffffffffffffffffffffffffffffffffff169060200190929190505050610c61565b6040518082815260200191505060405180910390f35b6103ac610c86565b6040518082815260200191505060405180910390f35b6103ca610c8f565b6040518082815260200191505060405180910390f35b6103e8610c98565b604051808263ffffffff16815260200191505060405180910390f35b61040c610c9d565b6040518082815260200191505060405180910390f35b61042a610ca2565b6040518082815260200191505060405180910390f35b610448610f37565b6040518082815260200191505060405180910390f35b6104a06004803603602081101561047457600080fd5b81019080803573ffffffffffffffffffffffffffffffffffffffff169060200190929190505050610f3e565b6040518082815260200191505060405180910390f35b6104be610f56565b60405180821515815260200191505060405180910390f35b6104de610f67565b604051808263ffffffff16815260200191505060405180910390f35b610502610f6c565b60405180821515815260200191505060405180910390f35b610522610f7f565b6040518082815260200191505060405180910390f35b610540610f85565b604051808273ffffffffffffffffffffffffffffffffffffffff16815260200191505060405180910390f35b610574610fab565b6040518082815260200191505060405180910390f35b6105d6600480360360408110156105a057600080fd5b81019080803573ffffffffffffffffffffffffffffffffffffffff16906020019092919080359060200190929190505050610fb0565b6040518085815260200184815260200183815260200182815260200194505050505060405180910390f35b6106096110f3565b6040518082815260200191505060405180910390f35b6106616004803603602081101561063557600080fd5b81019080803573ffffffffffffffffffffffffffffffffffffffff1690602001909291905050506110f8565b60405180821515815260200191505060405180910390f35b610681611118565b6040518082815260200191505060405180910390f35b61069f61111d565b6040518082815260200191505060405180910390f35b6106bd611122565b60405180821515815260200191505060405180910390f35b6106dd611135565b6040518082815260200191505060405180910390f35b6107356004803603602081101561070957600080fd5b81019080803573ffffffffffffffffffffffffffffffffffffffff16906020019092919050505061113a565b604051808273ffffffffffffffffffffffffffffffffffffffff16815260200191505060405180910390f35b6107ad6004803603604081101561077757600080fd5b81019080803573ffffffffffffffffffffffffffffffffffffffff1690602001909291908035906020019092919050505061116d565b6040518085815260200184815260200183815260200182815260200194505050505060405180910390f35b610804600480360360208110156107ee57600080fd5b81019080803590602001909291905050506112b0565b6040518085815260200184815260200183815260200182815260200194505050505060405180910390f35b6108886004803603606081101561084557600080fd5b81019080803573ffffffffffffffffffffffffffffffffffffffff16906020019092919080359060200190929190803560ff169060200190929190505050611333565b6040518085815260200184815260200183815260200182815260200194505050505060405180910390f35b6108bb611d34565b60405180821515815260200191505060405180910390f35b6108db611d47565b6040518082815260200191505060405180910390f35b6108f9611d4c565b6040518082815260200191505060405180910390f35b610917611d51565b604051808273ffffffffffffffffffffffffffffffffffffffff16815260200191505060405180910390f35b61094b611d77565b604051808273ffffffffffffffffffffffffffffffffffffffff16815260200191505060405180910390f35b61097f611d9d565b604051808273ffffffffffffffffffffffffffffffffffffffff16815260200191505060405180910390f35b6109f5600480360360808110156109c157600080fd5b8101908080359060200190929190803590602001909291908035906020019092919080359060200190929190505050611dc3565b6040518082815260200191505060405180910390f35b610a13611f19565b6040518082815260200191505060405180910390f35b610a31611f1e565b6040518082815260200191505060405180910390f35b610a4f6120ae565b604051808273ffffffffffffffffffffffffffffffffffffffff16815260200191505060405180910390f35b610a836120d4565b6040518082815260200191505060405180910390f35b610aa16120d9565b6040518082815260200191505060405180910390f35b610abf6120ef565b6040518082815260200191505060405180910390f35b610add6120f4565b6040518082815260200191505060405180910390f35b600760009054906101000a900473ffffffffffffffffffffffffffffffffffffffff1681565b600080600080600260008773ffffffffffffffffffffffffffffffffffffffff1673ffffffffffffffffffffffffffffffffffffffff16815260200190815260200160002060009054906101000a900460ff16610bde576040517f08c379a00000000000000000000000000000000000000000000000000000000081526004018080602001828103825260188152602001807f436f6c6c61746572616c206e6f7420737570706f72746564000000000000000081525060200191505060405180910390fd5b60008511610c37576040517f08c379a000000000000000000000000000000000000000000000000000000000815260040180806020018281038252602181526020018061233d6021913960400191505060405180910390fd5b610c4386866001611333565b8094508195508296508397505050505092959194509250565b606381565b6006602052816000526040600020602052806000526040600020600091509150505481565b64e8d4a5100081565b64e8d4a5100081565b600c81565b600181565b60008060029054906101000a900460ff16610cc05760009050610f34565b6000600860009054906101000a900473ffffffffffffffffffffffffffffffffffffffff1673ffffffffffffffffffffffffffffffffffffffff16635abe6c696040518163ffffffff1660e01b8152600401602060405180830381600087803b158015610d2c57600080fd5b505af1158015610d40573d6000803e3d6000fd5b505050506040513d6020811015610d5657600080fd5b810190808051906020019092919050505090506000600860009054906101000a900473ffffffffffffffffffffffffffffffffffffffff1673ffffffffffffffffffffffffffffffffffffffff1663c36d74976040518163ffffffff1660e01b815260040160206040518083038186803b158015610dd357600080fd5b505afa158015610de7573d6000803e3d6000fd5b505050506040513d6020811015610dfd57600080fd5b810190808051906020019092919050505090506000610e396064610e2b8460636120fa90919063ffffffff16565b61218090919063ffffffff16565b905082811015610e5c576103e8620f424081610e5157fe5b049350505050610f34565b6000610e876001610e7960328786036120fa90919063ffffffff16565b61218090919063ffffffff16565b90506000610e9e82836120fa90919063ffffffff16565b90506000610edc85610ece87610ec0620f4240876120fa90919063ffffffff16565b61218090919063ffffffff16565b61218090919063ffffffff16565b90506000610ef460648361218090919063ffffffff16565b90506000816103e8620f424081610f0757fe5b04019050620f42408110610f2857620f424098505050505050505050610f34565b80985050505050505050505b90565b620f424081565b60016020528060005260406000206000915090505481565b60008054906101000a900460ff1681565b600a81565b600060039054906101000a900460ff1681565b61020181565b600860009054906101000a900473ffffffffffffffffffffffffffffffffffffffff1681565b600881565b600080600080600260008773ffffffffffffffffffffffffffffffffffffffff1673ffffffffffffffffffffffffffffffffffffffff16815260200190815260200160002060009054906101000a900460ff16611075576040517f08c379a00000000000000000000000000000000000000000000000000000000081526004018080602001828103825260188152602001807f436f6c6c61746572616c206e6f7420737570706f72746564000000000000000081525060200191505060405180910390fd5b600085116110ce576040517f08c379a000000000000000000000000000000000000000000000000000000000815260040180806020018281038252602181526020018061233d6021913960400191505060405180910390fd5b6110da86866000611333565b8094508195508296508397505050505092959194509250565b600981565b60026020528060005260406000206000915054906101000a900460ff1681565b600181565b600181565b600060029054906101000a900460ff1681565b601481565b60036020528060005260406000206000915054906101000a900473ffffffffffffffffffffffffffffffffffffffff1681565b600080600080600260008773ffffffffffffffffffffffffffffffffffffffff1673ffffffffffffffffffffffffffffffffffffffff16815260200190815260200160002060009054906101000a900460ff16611232576040517f08c379a00000000000000000000000000000000000000000000000000000000081526004018080602001828103825260188152602001807f436f6c6c61746572616c206e6f7420737570706f72746564000000000000000081525060200191505060405180910390fd5b6000851161128b576040517f08c379a000000000000000000000000000000000000000000000000000000000815260040180806020018281038252602181526020018061233d6021913960400191505060405180910390fd5b61129786866002611333565b8094508195508296508397505050505092959194509250565b6000806000806000851161130f576040517f08c379a000000000000000000000000000000000000000000000000000000000815260040180806020018281038252602181526020018061233d6021913960400191505060405180910390fd5b61131c6000866003611333565b809450819550829650839750505050509193509193565b60008060008060008060038760ff16141561149757600860009054906101000a900473ffffffffffffffffffffffffffffffffffffffff1673ffffffffffffffffffffffffffffffffffffffff1663a607a8d96040518163ffffffff1660e01b815260040160206040518083038186803b1580156113b057600080fd5b505afa1580156113c4573d6000803e3d6000fd5b505050506040513d60208110156113da57600080fd5b81019080805190602001909291905050509150600860009054906101000a900473ffffffffffffffffffffffffffffffffffffffff1673ffffffffffffffffffffffffffffffffffffffff1663d5b01d436040518163ffffffff1660e01b815260040160206040518083038186803b15801561145557600080fd5b505afa158015611469573d6000803e3d6000fd5b505050506040513d602081101561147f57600080fd5b81019080805190602001909291905050509050611624565b600860009054906101000a900473ffffffffffffffffffffffffffffffffffffffff1673ffffffffffffffffffffffffffffffffffffffff16639f1a442e8a6040518263ffffffff1660e01b8152600401808273ffffffffffffffffffffffffffffffffffffffff16815260200191505060206040518083038186803b15801561152057600080fd5b505afa158015611534573d6000803e3d6000fd5b505050506040513d602081101561154a57600080fd5b81019080805190602001909291905050509150600860009054906101000a900473ffffffffffffffffffffffffffffffffffffffff1673ffffffffffffffffffffffffffffffffffffffff16637d1489fe8a6040518263ffffffff1660e01b8152600401808273ffffffffffffffffffffffffffffffffffffffff16815260200191505060206040518083038186803b1580156115e657600080fd5b505afa1580156115fa573d6000803e3d6000fd5b505050506040513d602081101561161057600080fd5b810190808051906020019092919050505090505b6000600860009054906101000a900473ffffffffffffffffffffffffffffffffffffffff1673ffffffffffffffffffffffffffffffffffffffff166312dd85ee6040518163ffffffff1660e01b815260040160206040518083038186803b15801561168e57600080fd5b505afa1580156116a2573d6000803e3d6000fd5b505050506040513d60208110156116b857600080fd5b810190808051906020019092919050505090506000600860009054906101000a900473ffffffffffffffffffffffffffffffffffffffff1673ffffffffffffffffffffffffffffffffffffffff1663743db8276040518163ffffffff1660e01b815260040160206040518083038186803b15801561173557600080fd5b505afa158015611749573d6000803e3d6000fd5b505050506040513d602081101561175f57600080fd5b81019080805190602001909291905050509050600061177c610ca2565b905060008c73ffffffffffffffffffffffffffffffffffffffff1663313ce5676040518163ffffffff1660e01b815260040160206040518083038186803b1580156117c657600080fd5b505afa1580156117da573d6000803e3d6000fd5b505050506040513d60208110156117f057600080fd5b810190808051906020019092919050505060ff16905060008b60ff1614156119b3578b975061187161183064e8d4a51000866120fa90919063ffffffff16565b6118638561185561183f611f1e565b64e8d4a51000038d6120fa90919063ffffffff16565b6120fa90919063ffffffff16565b61218090919063ffffffff16565b995060008211156118b9576118b66118a7620f4240611899858e6120fa90919063ffffffff16565b61218090919063ffffffff16565b8b61220990919063ffffffff16565b99505b60006119106118d68864e8d4a510006120fa90919063ffffffff16565b611902886118f46118e5611f1e565b8e6120fa90919063ffffffff16565b6120fa90919063ffffffff16565b61218090919063ffffffff16565b905061193b61192983601261229190919063ffffffff16565b600a0a8261218090919063ffffffff16565b9950600083111561198357611980611971620f4240611963868e6120fa90919063ffffffff16565b61218090919063ffffffff16565b8b61220990919063ffffffff16565b99505b6119ab620f424061199d858c6120fa90919063ffffffff16565b61218090919063ffffffff16565b975050611d25565b60018b60ff161415611b66578b99508997506000821115611a0e57611a0b6119e783620f424061220990919063ffffffff16565b6119fd620f42408b6120fa90919063ffffffff16565b61218090919063ffffffff16565b97505b611a6a611a32611a1c611f1e565b64e8d4a5100003856120fa90919063ffffffff16565b611a5c86611a4e64e8d4a510008d6120fa90919063ffffffff16565b6120fa90919063ffffffff16565b61218090919063ffffffff16565b97506000611ac3611a898864e8d4a510006120fa90919063ffffffff16565b611ab588611aa7611a98611f1e565b8e6120fa90919063ffffffff16565b6120fa90919063ffffffff16565b61218090919063ffffffff16565b9050611aee611adc83601261229190919063ffffffff16565b600a0a8261218090919063ffffffff16565b99506000831115611b3657611b33611b24620f4240611b16868e6120fa90919063ffffffff16565b61218090919063ffffffff16565b8b61220990919063ffffffff16565b99505b611b5e620f4240611b50858c6120fa90919063ffffffff16565b61218090919063ffffffff16565b975050611d24565b60028b60ff161480611b7b575060038b60ff16145b15611d23578b98508897506000821115611bcf57611bcc611ba883620f424061220990919063ffffffff16565b611bbe620f42408b6120fa90919063ffffffff16565b61218090919063ffffffff16565b97505b6000611bfa611be883601261229190919063ffffffff16565b600a0a8a6120fa90919063ffffffff16565b9050611c51611c07611f1e565b611c4388611c35611c268c64e8d4a510006120fa90919063ffffffff16565b866120fa90919063ffffffff16565b61218090919063ffffffff16565b61218090919063ffffffff16565b9850611caf611c6e64e8d4a51000876120fa90919063ffffffff16565b611ca186611c93611c7d611f1e565b64e8d4a51000038e6120fa90919063ffffffff16565b6120fa90919063ffffffff16565b61218090919063ffffffff16565b9a506000831115611cf757611cf4611ce5620f4240611cd7868f6120fa90919063ffffffff16565b61218090919063ffffffff16565b8c61220990919063ffffffff16565b9a505b611d1f620f4240611d11858c6120fa90919063ffffffff16565b61218090919063ffffffff16565b9750505b5b5b50505050505093509350935093565b600060019054906101000a900460ff1681565b600a81565b606481565b600b60009054906101000a900473ffffffffffffffffffffffffffffffffffffffff1681565b600c60009054906101000a900473ffffffffffffffffffffffffffffffffffffffff1681565b600960009054906101000a900473ffffffffffffffffffffffffffffffffffffffff1681565b600080611e0964e8d4a51000611dfb610201611ded64e8d4a510008a6120fa90919063ffffffff16565b6120fa90919063ffffffff16565b61218090919063ffffffff16565b9050600080848610611e8557611e696001611e5b878903611e4d898b03611e3f64e8d4a5100060096120fa90919063ffffffff16565b6120fa90919063ffffffff16565b6120fa90919063ffffffff16565b61218090919063ffffffff16565b9150611e7e828961220990919063ffffffff16565b9050611ef5565b611ed96001611ecb888803611ebd8a8a03611eaf64e8d4a5100060096120fa90919063ffffffff16565b6120fa90919063ffffffff16565b6120fa90919063ffffffff16565b61218090919063ffffffff16565b9150611eee828961231490919063ffffffff16565b9050809150505b611f08838261231490919063ffffffff16565b905080945050505050949350505050565b603281565b600080600860009054906101000a900473ffffffffffffffffffffffffffffffffffffffff1673ffffffffffffffffffffffffffffffffffffffff166308432eea6040518163ffffffff1660e01b8152600401602060405180830381600087803b158015611f8b57600080fd5b505af1158015611f9f573d6000803e3d6000fd5b505050506040513d6020811015611fb557600080fd5b810190808051906020019092919050505090506000600860009054906101000a900473ffffffffffffffffffffffffffffffffffffffff1673ffffffffffffffffffffffffffffffffffffffff1663c36d74976040518163ffffffff1660e01b815260040160206040518083038186803b15801561203257600080fd5b505afa158015612046573d6000803e3d6000fd5b505050506040513d602081101561205c57600080fd5b810190808051906020019092919050505090506000612086600d544361229190919063ffffffff16565b90506120a6605f606464e8d4a51000028161209d57fe5b04828585611dc3565b935050505090565b600a60009054906101000a900473ffffffffffffffffffffffffffffffffffffffff1681565b600181565b605f606464e8d4a5100002816120eb57fe5b0481565b600181565b600d5481565b60008083141561210d576000905061217a565b600082840290508284828161211e57fe5b0414612175576040517f08c379a000000000000000000000000000000000000000000000000000000000815260040180806020018281038252602181526020018061235e6021913960400191505060405180910390fd5b809150505b92915050565b60008082116121f7576040517f08c379a000000000000000000000000000000000000000000000000000000000815260040180806020018281038252601a8152602001807f536166654d6174683a206469766973696f6e206279207a65726f00000000000081525060200191505060405180910390fd5b81838161220057fe5b04905092915050565b600080828401905083811015612287576040517f08c379a000000000000000000000000000000000000000000000000000000000815260040180806020018281038252601b8152602001807f536166654d6174683a206164646974696f6e206f766572666c6f77000000000081525060200191505060405180910390fd5b8091505092915050565b600082821115612309576040517f08c379a000000000000000000000000000000000000000000000000000000000815260040180806020018281038252601e8152602001807f536166654d6174683a207375627472616374696f6e206f766572666c6f77000081525060200191505060405180910390fd5b818303905092915050565b6000808383111561232b5760008091509150612335565b6001838503915091505b925092905056fe416d6f756e74206e6565647320746f2062652067726561746572207468616e2030536166654d6174683a206d756c7469706c69636174696f6e206f766572666c6f77a2646970667358221220a8cadcc8eb5cb38706ff9cd5af0b6b597507f9d0f4ded48a5b31a4986fe7e76864736f6c634300060c0033",
  "immutableReferences": {},
  "source": "pragma solidity ^0.6.12;\n\nimport \"@openzeppelin/contracts-upgradeable/proxy/Initializable.sol\";\nimport \"@openzeppelin/contracts-upgradeable/math/SafeMathUpgradeable.sol\";\nimport \"@openzeppelin/contracts-upgradeable/token/ERC20/ERC20Upgradeable.sol\";\nimport \"@openzeppelin/contracts-upgradeable/token/ERC20/SafeERC20Upgradeable.sol\";\nimport { USDs } from \"../token/USDs.sol\";\nimport { BancorFormula } from \"../libraries/BancorFormula.sol\";\nimport \"../interfaces/IOracle.sol\";\n\ncontract VaultStorage {\n\tusing SafeERC20Upgradeable for ERC20Upgradeable;\n\tusing SafeMathUpgradeable for uint;\n\tevent AssetSupported(address _asset);\n\n\tbool public mintRedeemAllowed;\t// if false, no USDs can be minted or burnt\n\tbool public capitalAllowed;\t\t// if false, no collaterals can be reinvested\n\n\tbool public swapfeeInAllowed;\n\tbool public swapfeeOutAllowed;\n\n\tmapping(address => uint) public supportedCollatAmount;\t// the total amount of some supported collateral users have staked \t\n\tmapping(address => bool) public supportedCollat;\t\t// if it is true, the collateral is supported; else it is false, it is not supported\n\tmapping(address => address) public assetDefaultStrategies;\t// the corresponding strategy contract address to a supported collateral token (currently, they are all AAVE)\n\taddress[] allCollat;\t// the list of all supported collaterals\n\taddress[] allStrategies;\t// the list of all strategy addresses\n\tmapping (address => mapping (address => uint)) public strategiesAllocatedAmt; // the amount of a specific collateral re-invested by a chosen strategy\n\n\taddress public SPATokenAddr;\n\taddress public oracleAddr;\n\taddress public collaValut;\t// the contract address that stores all collaterals\n\t\t\t\t\t\t\t\t// WARNING: currently, this address is the same as the address of VaultCore.sol\n\taddress public SPAValut;\t\n\taddress public USDsFeeValut;\t// the account that stores all swapping fees\n\taddress public USDsYieldValut;\t// TO DELETE\n\n\tuint public startBlockHeight;\n\n\t// the following constant economic parameters are subject to changes\n\tuint public constant chi_alpha = 513;\n\tuint public constant chi_alpha_Prec = 10**12;\n\tuint public constant chiPrec = chi_alpha_Prec;\n\tuint public constant chiInit = chiPrec * 100 / 95;\n\tuint public constant chi_beta = 9;\n\tuint public constant chi_beta_Prec = 1;\n\tuint public constant chi_gamma = 1;\n\tuint public constant chi_gamma_Prec = 1;\n\n\n\tuint public constant swapFeePresion = 1000000;\n\tuint public constant swapFee_p = 99;\n\tuint public constant swapFee_p_Prec = 100;\n\tuint public constant swapFee_theta = 50;\n\tuint public constant swapFee_theta_Prec = 1;\n\tuint32 public constant swapFee_a = 12;\n\tuint32 public constant swapFee_a_Prec = 10;\n\tuint public constant swapFee_A = 20;\n\tuint public constant swapFee_A_Prec = 1;\n\n\tuint public constant allocatePrecentage = 8;\n\tuint public constant allocatePrecentage_Prec = 10;\n\n\tUSDs USDsInstance;\n\tBancorFormula BancorInstance;\n\n\t// note: chi_alpha_Prec = chiPrec\n\t/**\n\t * @dev calculate chiTarget by the formula in section 2.2 of the whitepaper\n\t * @param chiInit_ the initial value of chi\n\t * @param blockPassed the number of blocks that have passed since USDs is launched, i.e. \"Block Height\"\n\t * @param priceUSDs the price of USDs, i.e. \"USDs Price\"\n\t * @param precisionUSDs the precision used in the variable \"priceUSDs\"\n\t * @return chiTarget_ the value of chiTarget\n\t */\n\tfunction chiTarget(uint chiInit_, uint blockPassed, uint priceUSDs, uint precisionUSDs) public pure returns (uint chiTarget_) {\n\t\tuint chiAdjustmentA = blockPassed.mul(chiPrec).mul(chi_alpha).div(chi_alpha_Prec);\n\t\tuint chiAdjustmentB;\n\t\tuint afterB;\n\t\tif (priceUSDs >= precisionUSDs) {\n\t\t\tchiAdjustmentB = chi_beta.mul(chiPrec).mul(priceUSDs - precisionUSDs).mul(priceUSDs - precisionUSDs).div(chi_beta_Prec);\n\t\t\tafterB = chiInit_.add(chiAdjustmentB);\n\t\t} else {\n\t\t\tchiAdjustmentB = chi_beta.mul(chiPrec).mul(precisionUSDs - priceUSDs).mul(precisionUSDs - priceUSDs).div(chi_beta_Prec);\n\t\t\t(, afterB) = chiInit_.trySub(chiAdjustmentB);\n\t\t}\n\t\t(, chiTarget_) = afterB.trySub(chiAdjustmentA);\n\t}\n\n\t/**\n\t * @dev calculate chiMint\n\t * @return chiMint, i.e. chiTarget, since they share the same value \n\t */\n\tfunction chiMint() public returns (uint)  {\n\t\tuint priceUSDs = uint(IOracle(oracleAddr).getUSDsPrice());\n\t\tuint precisionUSDs = IOracle(oracleAddr).USDsPricePrecision();\n\t\tuint blockPassed = uint(block.number).sub(startBlockHeight);\n\t\treturn chiTarget(chiInit, blockPassed, priceUSDs, precisionUSDs);\n\t}\n\n\t/**\n\t * @dev calculate the InSwap fee, i.e. fees for minting USDs\n\t * @return the InSwap fee\n\t */\n\tfunction calculateSwapFeeIn() public returns (uint) {\n\t\t// if InSwap fee is disabled, return 0\n\t\tif (!swapfeeInAllowed) {\n\t\t\treturn 0;\n\t\t}\n\n\t\t// implement the formula in Section 4.3.1 of whitepaper \n\t\tuint priceUSDs_Average = IOracle(oracleAddr).getUSDsPrice_Average(); //TODO: change to 3 days average\n\t\tuint precisionUSDs = IOracle(oracleAddr).USDsPricePrecision();\n\t\tuint smallPwithPrecision = swapFee_p.mul(precisionUSDs).div(swapFee_p_Prec);\n\t\tif (smallPwithPrecision < priceUSDs_Average) {\n\t\t\treturn swapFeePresion / 1000; // 0.1%\n\t\t} else {\n\t\t\tuint temp = (smallPwithPrecision - priceUSDs_Average).mul(swapFee_theta).div(swapFee_theta_Prec); //precision: precisionUSDs\n\t\t\tuint temp2 = temp.mul(temp); //precision: precisionUSDs^2\n\t\t\tuint temp3 = temp2.mul(swapFeePresion).div(precisionUSDs).div(precisionUSDs);\n\t\t\tuint temp4 = temp3.div(100);\n\t\t\tuint temp5 =  swapFeePresion / 1000 + temp4;\n\t\t\tif (temp5 >= swapFeePresion) {\n\t\t\t\treturn swapFeePresion;\n\t\t\t} else {\n\t\t\t\treturn temp5;\n\t\t\t}\n\t\t}\n\n\t}\n\t//View functions\n\n\t/**\n\t * @dev view related quantities for minting USDs with USDs amount\n\t * @param collaAddr the address of user's chosen collateral\n\t * @param USDsMintAmt the amount of USDs to mint\n\t * @return SPABurnAmt the amount of SPA to burn\n\t *\t\t\tcollaDepAmt the amount of collateral to stake\n\t *\t\t\tUSDsAmt the amount of USDs to mint\n\t *\t\t\tswapFeeAmount the amount of Inswapfee to pay\n\t */\n\tfunction mintWithUSDsView(address collaAddr, uint USDsMintAmt)\n\t\tpublic returns (uint SPABurnAmt, uint collaDepAmt, uint USDsAmt, uint swapFeeAmount)\n\t{\n\t\trequire(supportedCollat[collaAddr], \"Collateral not supported\");\n\t\trequire(USDsMintAmt > 0, \"Amount needs to be greater than 0\");\n\t\t(SPABurnAmt, collaDepAmt, USDsAmt, swapFeeAmount) = mintView(collaAddr, USDsMintAmt, 0);\n\t}\n\t/**\n\t * @dev view related quantities for minting USDs with SPA amount to burn\n\t * @param collaAddr the address of user's chosen collateral\n\t * @param SPAAmt the amount of SPAs to burn\n\t * @return SPABurnAmt the amount of SPA to burn\n\t *\t\t\tcollaDepAmt the amount of collateral to stake\n\t *\t\t\tUSDsAmt the amount of USDs to mint\n\t *\t\t\tswapFeeAmount the amount of Inswapfee to pay\n\t */\n\tfunction mintWithSPAView(address collaAddr, uint SPAAmt)\n\t\tpublic returns (uint SPABurnAmt, uint collaDepAmt, uint USDsAmt, uint swapFeeAmount)\n\t{\n\t\trequire(supportedCollat[collaAddr], \"Collateral not supported\");\n\t\trequire(SPAAmt > 0, \"Amount needs to be greater than 0\");\n\t\t(SPABurnAmt, collaDepAmt, USDsAmt, swapFeeAmount)  = mintView(collaAddr, SPAAmt, 1);\n\t}\n\t/**\n\t * @dev view related quantities for minting USDs with collateral amount to stake (excluding ETH)\n\t * @param collaAddr the address of user's chosen collateral\n\t * @param CollaAmt the amount of collateral to stake\n\t * @return SPABurnAmt the amount of SPA to burn\n\t *\t\t\tcollaDepAmt the amount of collateral to stake\n\t *\t\t\tUSDsAmt the amount of USDs to mint\n\t *\t\t\tswapFeeAmount the amount of Inswapfee to pay\n\t */\n\tfunction mintWithCollaView(address collaAddr, uint CollaAmt)\n\t\tpublic returns (uint SPABurnAmt, uint collaDepAmt, uint USDsAmt, uint swapFeeAmount)\n\t{\n\t\trequire(supportedCollat[collaAddr], \"Collateral not supported\");\n\t\trequire(CollaAmt > 0, \"Amount needs to be greater than 0\");\n\t\t(SPABurnAmt, collaDepAmt, USDsAmt, swapFeeAmount) = mintView(collaAddr, CollaAmt, 2);\n\t}\n\n\t/**\n\t * @dev view related quantities for minting USDs with ETH\n\t * @param CollaAmt the amount of ETH that the user stakes for minting USDs\n\t * @return SPABurnAmt the amount of SPA to burn\n\t *\t\t\tcollaDepAmt the amount of collateral to stake\n\t *\t\t\tUSDsAmt the amount of USDs to mint\n\t *\t\t\tswapFeeAmount the amount of Inswapfee to pay\n\t *\n\t * SPABurnAmt precision: 10^18\n\t * collaDepAmt precision: 10^collaAddrDecimal\n\t * USDsAmt precision: 10^18\n\t * swapFeeAmount precision: swapFeePresion\n\t */\n\tfunction mintWithEthView(uint CollaAmt)\n\t\tpublic returns (uint SPABurnAmt, uint collaDepAmt, uint USDsAmt, uint swapFeeAmount)\n\t{\n\t\trequire(CollaAmt > 0, \"Amount needs to be greater than 0\");\n\t\t(SPABurnAmt, collaDepAmt, USDsAmt, swapFeeAmount) = mintView(address(0), CollaAmt, 3);\n\t}\n\n\t/**\n\t * @dev the general mintView function that display all related quantities based on mint types\n\t *\t\tvalueType = 0: mintWithUSDs\n\t *\t\tvalueType = 1: mintWithSPA\n\t *\t\tvalueType = 2: mintWithColla\n\t *\t\tvalueType = 3: mintWithETH\n\t * @param collaAddr the address of user's chosen collateral\n\t * @param valueAmt the amount of user input whose specific meaning depends on valueType\n\t * @param valueType the type of user input whose interpretation is listed above in @dev\n\t * @return SPABurnAmt the amount of SPA to burn\n\t *\t\t\tcollaDepAmt the amount of collateral to stake\n\t *\t\t\tUSDsAmt the amount of USDs to mint\n\t *\t\t\tswapFeeAmount the amount of Inswapfee to pay\n\t */\n\tfunction mintView(\n\t\taddress collaAddr,\n\t\tuint valueAmt,\n\t\tuint8 valueType\n\t) public returns (uint SPABurnAmt, uint collaDepAmt, uint USDsAmt, uint swapFeeAmount) {\n\t\t// obtain the price and pecision of the collateral\n\t\tuint priceColla = 0;\n\t\tuint precisionColla = 0;\n\t\tif (valueType == 3) {\n\t\t\tpriceColla = IOracle(oracleAddr).getETHPrice();\n\t\t\tprecisionColla = IOracle(oracleAddr).ETHPricePrecision();\n\t\t} else {\n\t\t\tpriceColla = IOracle(oracleAddr).collatPrice(collaAddr);\n\t\t\tprecisionColla = IOracle(oracleAddr).collatPricePrecision(collaAddr);\n\t\t}\n\t\t// obtain other necessary data\n\t\tuint priceSPA = IOracle(oracleAddr).getSPAPrice();\n\t\tuint precisionSPA = IOracle(oracleAddr).SPAPricePrecision();\n\t\tuint swapFee = calculateSwapFeeIn();\n\t\tuint collaAddrDecimal = uint(ERC20Upgradeable(collaAddr).decimals());\n\n\t\tif (valueType == 0) { // when mintWithUSDs\n\t\t\t// calculate USDsAmt\n\t\t\tUSDsAmt = valueAmt;\n\t\t\t// calculate SPABurnAmt\n\t\t\tSPABurnAmt = USDsAmt.mul(chiPrec - chiMint()).mul(precisionSPA).div(priceSPA.mul(chiPrec));\n\t\t\tif (swapFee > 0) {\n\t\t\t\tSPABurnAmt = SPABurnAmt.add(SPABurnAmt.mul(swapFee).div(swapFeePresion));\n\t\t\t}\n\t\t\t// calculate collaDepAmt\n\t\t\tuint collaDepAmt_18 = USDsAmt.mul(chiMint()).mul(precisionColla).div(chiPrec.mul(priceColla));\n\t\t\tcollaDepAmt = collaDepAmt_18.div(10**(uint(18).sub(collaAddrDecimal)));\n\t\t\tif (swapFee > 0) {\n\t\t\t\tcollaDepAmt = collaDepAmt.add(collaDepAmt.mul(swapFee).div(swapFeePresion));\n\t\t\t}\n\t\t\t// calculate swapFeeAmount\n\t\t\tswapFeeAmount = USDsAmt.mul(swapFee).div(swapFeePresion);\n\n\t\t} else if (valueType == 1) { // when mintWithSPA\n\t\t\t// calculate SPABurnAmt\n\t\t\tSPABurnAmt = valueAmt;\n\t\t\t// calculate USDsAmt\n\t\t\tUSDsAmt = SPABurnAmt;\n\t\t\tif (swapFee > 0) {\n\t\t\t\tUSDsAmt = USDsAmt.mul(swapFeePresion).div(swapFeePresion.add(swapFee));\n\t\t\t}\n\t\t\tUSDsAmt = USDsAmt.mul(chiPrec).mul(priceSPA).div(precisionSPA.mul(chiPrec - chiMint()));\n\t\t\t// calculate collaDepAmt\n\t\t\tuint collaDepAmt_18 = USDsAmt.mul(chiMint()).mul(precisionColla).div(chiPrec.mul(priceColla));\n\t\t\tcollaDepAmt = collaDepAmt_18.div(10**(uint(18).sub(collaAddrDecimal)));\n\t\t\tif (swapFee > 0) {\n\t\t\t\tcollaDepAmt = collaDepAmt.add(collaDepAmt.mul(swapFee).div(swapFeePresion));\n\t\t\t}\n\t\t\t// calculate swapFeeAmount\n\t\t\tswapFeeAmount = USDsAmt.mul(swapFee).div(swapFeePresion);\n\n\t\t} else if (valueType == 2 || valueType == 3) { // when mintWithColla or mintWithETH\n\t\t\t// calculate collaDepAmt\n\t\t\tcollaDepAmt = valueAmt;\n\t\t\t// calculate USDsAmt\n\t\t\tUSDsAmt = collaDepAmt;\n\t\t\tif (swapFee > 0) {\n\t\t\t\tUSDsAmt = USDsAmt.mul(swapFeePresion).div(swapFeePresion.add(swapFee));\n\t\t\t}\n\t\t\tuint CollaDepAmt_18 = USDsAmt.mul(10**(uint(18).sub(collaAddrDecimal)));\n\t\t\tUSDsAmt = CollaDepAmt_18.mul(chiPrec.mul(priceColla)).div(precisionColla).div(chiMint());\n\t\t\t// calculate SPABurnAmt\n\t\t\tSPABurnAmt = USDsAmt.mul(chiPrec - chiMint()).mul(precisionSPA).div(priceSPA.mul(chiPrec));\n\t\t\tif (swapFee > 0) {\n\t\t\t\tSPABurnAmt = SPABurnAmt.add(SPABurnAmt.mul(swapFee).div(swapFeePresion));\n\t\t\t}\n\t\t\t// calculate swapFeeAmount\n\t\t\tswapFeeAmount = USDsAmt.mul(swapFee).div(swapFeePresion);\n\t\t}\n\t}\n}\n",
  "sourcePath": "/Volumes/Work/Sperax/USDs/contracts/vault/VaultStorage.sol",
  "compiler": {
    "name": "solc",
    "version": "0.6.12+commit.27d51765.Emscripten.clang"
  },
  "schemaVersion": "3.4.0",
  "updatedAt": "2021-08-20T02:02:29.097Z",
  "devdoc": {
    "kind": "dev",
    "methods": {
      "calculateSwapFeeIn()": {
        "details": "calculate the InSwap fee, i.e. fees for minting USDs",
        "returns": {
          "_0": "the InSwap fee"
        }
      },
      "chiMint()": {
        "details": "calculate chiMint",
        "returns": {
          "_0": "chiMint, i.e. chiTarget, since they share the same value "
        }
      },
      "chiTarget(uint256,uint256,uint256,uint256)": {
        "details": "calculate chiTarget by the formula in section 2.2 of the whitepaper",
        "params": {
          "blockPassed": "the number of blocks that have passed since USDs is launched, i.e. \"Block Height\"",
          "chiInit_": "the initial value of chi",
          "precisionUSDs": "the precision used in the variable \"priceUSDs\"",
          "priceUSDs": "the price of USDs, i.e. \"USDs Price\""
        },
        "returns": {
          "chiTarget_": "the value of chiTarget"
        }
      },
      "mintView(address,uint256,uint8)": {
        "details": "the general mintView function that display all related quantities based on mint types\t\tvalueType = 0: mintWithUSDs\t\tvalueType = 1: mintWithSPA\t\tvalueType = 2: mintWithColla\t\tvalueType = 3: mintWithETH",
        "params": {
          "collaAddr": "the address of user's chosen collateral",
          "valueAmt": "the amount of user input whose specific meaning depends on valueType",
          "valueType": "the type of user input whose interpretation is listed above in @dev"
        },
        "returns": {
          "SPABurnAmt": "the amount of SPA to burn\t\t\tcollaDepAmt the amount of collateral to stake\t\t\tUSDsAmt the amount of USDs to mint\t\t\tswapFeeAmount the amount of Inswapfee to pay"
        }
      },
      "mintWithCollaView(address,uint256)": {
        "details": "view related quantities for minting USDs with collateral amount to stake (excluding ETH)",
        "params": {
          "CollaAmt": "the amount of collateral to stake",
          "collaAddr": "the address of user's chosen collateral"
        },
        "returns": {
          "SPABurnAmt": "the amount of SPA to burn\t\t\tcollaDepAmt the amount of collateral to stake\t\t\tUSDsAmt the amount of USDs to mint\t\t\tswapFeeAmount the amount of Inswapfee to pay"
        }
      },
      "mintWithEthView(uint256)": {
        "details": "view related quantities for minting USDs with ETH",
        "params": {
          "CollaAmt": "the amount of ETH that the user stakes for minting USDs"
        },
        "returns": {
          "SPABurnAmt": "the amount of SPA to burn\t\t\tcollaDepAmt the amount of collateral to stake\t\t\tUSDsAmt the amount of USDs to mint\t\t\tswapFeeAmount the amount of Inswapfee to pay SPABurnAmt precision: 10^18 collaDepAmt precision: 10^collaAddrDecimal USDsAmt precision: 10^18 swapFeeAmount precision: swapFeePresion"
        }
      },
      "mintWithSPAView(address,uint256)": {
        "details": "view related quantities for minting USDs with SPA amount to burn",
        "params": {
          "SPAAmt": "the amount of SPAs to burn",
          "collaAddr": "the address of user's chosen collateral"
        },
        "returns": {
          "SPABurnAmt": "the amount of SPA to burn\t\t\tcollaDepAmt the amount of collateral to stake\t\t\tUSDsAmt the amount of USDs to mint\t\t\tswapFeeAmount the amount of Inswapfee to pay"
        }
      },
      "mintWithUSDsView(address,uint256)": {
        "details": "view related quantities for minting USDs with USDs amount",
        "params": {
          "USDsMintAmt": "the amount of USDs to mint",
          "collaAddr": "the address of user's chosen collateral"
        },
        "returns": {
          "SPABurnAmt": "the amount of SPA to burn\t\t\tcollaDepAmt the amount of collateral to stake\t\t\tUSDsAmt the amount of USDs to mint\t\t\tswapFeeAmount the amount of Inswapfee to pay"
        }
      }
    },
    "version": 1
  },
  "userdoc": {
    "kind": "user",
    "methods": {},
    "version": 1
  }
}